:02000004080AE8
:1000000000000A0868480A0800000600060005010A
:080010000402FD0800000000DD
:04001800D8420A08B8
:10001C0009480A4908B5884205D0094A824202D0EB
:10002C00121A04F097F80748074A0021121A04F034
:10003C009FF8064808BD00BF00000020AC470A0826
:10004C0094000020940000200507002005070020E4
:10005C0070B502F09DFD0025054E064CA41BA408AE
:10006C00A54200D170BD56F8043B98470135F7E71F
:10007C007C470A089C470A0800F038BC08B500F019
:10008C00EBFCBDE8084002F03BBD01F09FBC01F069
:10009C009DBC01F0A3BC01F0A1BC0078B0FA80F0CB
:1000AC0040097047012303707047426000220272BE
:1000BC0020220170C260704710B5037A044653B118
:1000CC002178606801F016FD606801F01EFDB0FA41
:1000DC0080F0400910BD012100F003F80028EFD199
:1000EC00F8E738B5044640680D4601F0D1FC012014
:1000FC00207225B12046BDE83840FFF7DDBF38BD82
:10010C002DE9F8431F46DDE90896C36815463244CD
:10011C009A420446884602D90020BDE8F88301784B
:10012C00406801F0E7FC7EB960682A4603684146E6
:10013C00DB6898478542EFD13946606801F0E1FCF5
:10014C00B0FA80F04009E8E7B9F1000FECD0606834
:10015C00324603684946DB689847B042DCD1E3E796
:10016C002DE9F041154604460E46D2B2017840689E
:10017C0001F0ABFC85420DD100271FFA87F8A8458A
:10018C0007F1010709D2606803685B69984706F8B4
:10019C000800F2E70020BDE8F0810120FBE72DE923
:1001AC00F84307468846164699460025B54212D2B2
:1001BC00FA68741B944228BF1446331BAB4294BF9D
:1001CC004B4600232246384608EB0501FFF7C8FFD3
:1001DC0010B12544EAE70120BDE8F8830022017242
:1001EC00026070471FB50023CDE9003349BA0446BD
:1001FC00ADF80C10012303A902220068FFF780FF61
:10020C00012320681A4603A9FFF7C9FF9DF80C00CB
:10021C0004B010BD4D2108B5FFF7E4FFC0F3071083
:10022C0008BD1FB50023CDE9003349BAADF80C1059
:10023C008DF80E200123032203A90068FFF760FF4D
:10024C0005B05DF804FB38B504460D4601F07F029D
:10025C0040F21221FFF7E5FF2068257210B1102142
:10026C0002F088FD1020FFF710FF054618B16268F8
:10027C00217AFFF71AFF284625600121BDE8384096
:10028C00FFF72FBF10B50446012240F20721FFF7FC
:10029C00C8FF204601224FF40271FFF7C2FF20462F
:1002AC0000229621FFF7BDFF2046FD229721FFF784
:1002BC00B8FF20460022E321FFF7B3FF20460422BB
:1002CC00E421FFF7AEFF20460222E521FFF7A9FF4C
:1002DC0020460122E621FFF7A4FF20460322E72156
:1002EC00FFF79FFF20460222F521FFF79AFF2046D9
:1002FC000522D921FFF795FF2046CE22DB21FFF7FF
:10030C0090FF20460322DC21FFF78BFF2046F822CA
:10031C00DD21FFF786FF204600229F21FFF781FF9A
:10032C0020463C22A321FFF77CFF20460022B72168
:10033C00FFF777FF20463C22BB21FFF772FF2046D8
:10034C000922B221FFF76DFF20460922CA21FFF7CF
:10035C0068FF204601224FF4CC71FFF762FF204664
:10036C0017224FF4D871FFF75CFF2046002240F2B1
:10037C00AD11FFF756FF20460522FF21FFF751FF75
:10038C00204605224FF48071FFF74BFF20460522D3
:10039C0040F29911FFF745FF20461B224FF4D37111
:1003AC00FFF73FFF20463E224FF4D671FFF739FF8F
:1003BC0020461F2240F2A711FFF733FF20460022F0
:1003CC003021FFF72EFF204610221121FFF729FFC5
:1003DC00204630224FF48571FFF723FF204646223A
:1003EC003F21FFF71EFF2046FF223121FFF719FFA7
:1003FC00204663224121FFF714FF204601222E21C3
:10040C00FFF70FFF204609221B21FFF70AFF2046AA
:10041C0031223E21FFF705FF2046BDE81040242283
:10042C001421FFF7FEBE38B504464160006810B1D8
:10043C00102102F09FFC1020FFF727FE054618B193
:10044C006268217AFFF731FE284625600121FFF70B
:10045C0048FE054610B90025284638BD0021204627
:10046C00FFF7C0FEB428F6D116212046FFF7BAFEDE
:10047C00C307F1D52046FFF705FF002216212046C1
:10048C00FFF7CFFEE8E738B504464D212046FFF7CD
:10049C00A9FEC207F9D5012218212046FFF7C1FE9B
:1004AC004F212046FFF79EFE4307F9D562212046D7
:1004BC00FFF798FE0546072220461521FFF7B1FEEF
:1004CC00284638BD30B532498FB003F07DFE002888
:1004DC005CD1304800F0E4FF05462E4800F0EEFFFA
:1004EC002D49044602A801F025FD02F095F80A22D8
:1004FC0001460AA801F06FFD0AA906A801F03CFD0F
:10050C00264906A801F0B8FD014602A801F0A4FD99
:10051C0006A801F0C5FC0AA801F0C2FC284602F0AE
:10052C00A5FE062502460B4600950AA801F067FDBC
:10053C000AA906A801F020FD184906A801F09CFDA7
:10054C00014602A801F088FD06A801F0A9FC0AA842
:10055C0001F0A6FC204602F089FE009502460B46EF
:10056C000AA801F04CFD0AA902A801F075FD0AA821
:10057C0001F096FC0A4800F012FC20B1029A0949DD
:10058C00074800F088FD02A801F08AFC0FB030BDCE
:10059C00EC420A089101002087440A08FB420A0831
:1005AC0094000020FD420A0838B505460224A0B28A
:1005BC002946013402F079FB0F2CF8D138BD00002C
:1005CC0008B50020FFF7F0FF0A2001F01FFA012008
:1005DC00FFF7EAFF0A2001F019FA0121022002F0CC
:1005EC0064FB0021032002F060FB0021042002F0D8
:1005FC005CFB0021052002F058FB0021062002F0D4
:10060C0054FB00210A2002F050FB00210B2002F0C9
:10061C004CFB00210C2002F048FB00210D2002F0C5
:10062C0044FB00210E2002F040FB02F071FB01465E
:10063C007548FFF7F8FE28B902F0F0F8734901F09D
:10064C00A0FBFEE730217048FFF7FDFD0A2001F00A
:10065C00DDF90121032002F028FB0A2001F0D6F974
:10066C0002F056FB01466A48FFF7DDFE28B902F09E
:10067C00D5F8684901F085FBFEE731216448FFF7A6
:10068C00E2FD0121042002F010FB0A2001F0BEF96A
:10069C0002F03EFB01466048FFF7C5FE28B902F0A8
:1006AC00BDF85E4901F06DFBFEE732215A48FFF7B9
:1006BC00CAFD0121052002F0F8FA0A2001F0A6F982
:1006CC0002F026FB01465648FFF7ADFE28B902F0B2
:1006DC00A5F8544901F055FBFEE733215048FFF7CC
:1006EC00B2FD0121062002F0E0FA0A2001F08EF999
:1006FC0002F00EFB01464C48FFF795FE28B902F0BC
:10070C008DF84A4901F03DFBFEE734214648FFF7DE
:10071C009AFD01210A2002F0C8FA0A2001F076F9AC
:10072C0002F0F6FA01464248FFF77DFE28B902F0C6
:10073C0075F8404901F025FBFEE735213C48FFF7F1
:10074C0082FD01210B2002F0B0FA0A2001F05EF9C3
:10075C0002F0DEFA01463848FFF765FE28B902F0D0
:10076C005DF8364901F00DFBFEE737213248FFF703
:10077C006AFD01210C2002F098FA0A2001F046F9DA
:10078C0002F0C6FA01462E48FFF74DFE28B902F0DA
:10079C0045F82C4901F0F5FAFEE738212848FFF717
:1007AC0052FD01210D2002F080FA0A2001F02EF9F1
:1007BC0002F0AEFA01462448FFF735FE28B902F0E4
:1007CC002DF8224901F0DDFAFEE739211E48FFF72A
:1007DC003AFD01210E2002F068FA0A2001F016F908
:1007EC0002F096FA01461A48FFF71DFE28B902F0EE
:1007FC0015F8184901F0C5FAFEE73A21BDE80840A2
:10080C001348FFF720BD00BF0401002010430A0865
:10081C001C0100202D430A08280100204B430A0824
:10082C003401002068430A084001002086430A086E
:10083C004C010020A3430A0858010020C0430A08B9
:10084C0064010020DF430A0870010020FC430A0801
:10085C001001002019440A082DE9F0471D4D1E4CCB
:10086C002B781E4E54F82300FFF70DFE2B78824692
:10087C0054F82300FFF7CEFC2C78194B185528BBE5
:10088C00184F2644385D02F0DFFC0022164B02F0B4
:10089C0045FD80465046894602F0D6FC0022124B9C
:1008AC0002F03CFD02460B464046494602F080FBF6
:1008BC0002F0CEFFC0B2307138550A220134B4FBBD
:1008CC00F2F302FB13442C70BDE8F087FF2326449F
:1008DC003371F2E77C01002000000020F4000020BE
:1008EC00870100207D0100200000E03F70B588B03A
:1008FC0001F094FF4FF4E13101F070FF01F08EFF35
:10090C0001F073FF18B9012001F080F8F6E701F04F
:10091C0085FF494901F02BFA484904A801F00AFB6C
:10092C0001F07AFE0A220146684601F041FB694655
:10093C0004A801F095FB0168414800F021FB6846D2
:10094C0001F0AEFA04A801F0ABFA3D4C3A4E3B4D27
:10095C00204600F024FA10BB01F060FF314601F094
:10096C0006FA294604A801F0E5FA01F055FE0A2220
:10097C000146684601F01CFB694604A801F070FBB7
:10098C000168204600F0FCFA684601F089FA04A8D8
:10099C0001F086FA4FF47A7001F038F8D8E729495B
:1009AC00274800F015FD0121022002F06DF901210C
:1009BC00032002F069F90121042002F065F90121FC
:1009CC00052002F061F90121062002F05DF90121F8
:1009DC000A2002F059F901210B2002F055F90121EE
:1009EC000C2002F051F901210D2002F04DF90121EA
:1009FC000E2002F049F901F011FF134901F0B7F98B
:100A0C000020FFF7D1FD01F009FF104901F0AFF90B
:100A1C00FFF7D6FD0E4800F0DEFC0D4800F002FD9D
:100A2C0014210B4800F064FD01F0F8FE094901F0B7
:100A3C009EF908B070BD00BF36440A0851440A083C
:100A4C0094000020EC420A085D440A0875440A0828
:100A5C009101002081440A0810B5FFF7FDFE0D4BF3
:100A6C001B78092B0CD101F0D7FD0B4C20600B48E7
:100A7C0000F095F920B122460949084800F00BFB1B
:100A8C00064800F08CF920B1BDE81040034800F096
:100A9C005DBB10BD7C010020F40000209400002000
:100AAC0088440A0807B529211948FFF797FB292123
:100ABC001848FFF793FB29211748FFF78FFB2921D3
:100ACC001648FFF78BFB29211548FFF787FB2921D7
:100ADC001448FFF783FB29211348FFF77FFB2921DB
:100AEC001248FFF77BFB29211148FFF777FB2921DF
:100AFC001048FFF773FB002340F25B7200930E4922
:100B0C000E4B0F4800F062F803B05DF804FB00BF19
:100B1C00040100201C0100202801002034010020C9
:100B2C00400100204C0100205801002064010020ED
:100B3C0070010020100100209B440A08D1040A080F
:100B4C009400002091F85C3010B50446016013B19C
:100B5C00886D00F0EBFC204610BD10B50368044610
:100B6C0093F85C2012B1986D00F0E8FC204610BDA3
:100B7C00F8B51F469DF8243004460D46164623B1A1
:100B8C0001235830037100F0C9FC089B2363002338
:100B9C00636306B1A66425B1294604F1380001F05F
:100BAC00F6F9069BE0692365079BA4F84C70FF2BB4
:100BBC00B8BFFF23A4F8543008B1FFF76CFAB4F8AF
:100BCC005400FFF764FAE061F8BD00002DE9FF4125
:100BDC0004460025984617460E4601F0A5FC0D4923
:100BEC00E56104F1380001F0A5F99DF82830FF22E9
:100BFC00CDE902830F232046CDE9003231463B4636
:100C0C002A46A56484F85C50FFF7B2FF204604B076
:100C1C00BDE8F08187440A0810B50446204601F06F
:100C2C0099FB0028FAD0204601F0D7FAC0B210BDCB
:100C3C002DE9F0470546C46989460127FFF7ECFF0B
:100C4C004FF0000820703C46EB6993F800A00AF0C6
:100C5C00F00A2846FFF7E0FF2646EB690134985569
:100C6C0000F07F0303FB07880306A4B21FFA88F881
:100C7C004FEAC717EDD4631EBAF1300F89F8003074
:100C8C0024D12846EF69FFF7C7FF38552846EF698E
:100C9C00FFF7C2FFF41C0236B6B2B8550226A4B256
:100CAC00B6B2B1462746C14512D22846FFF7B4FF6B
:100CBC00B5F8543009F10109BB4288BFEB691FFA42
:100CCC0089F988BFD8550137BFB2ECE70026E7E7B2
:100CDC00A8EB0600B0452CBF06460026B5F854001C
:100CEC003444A4B2A0422CBF20460020BDE8F087BB
:100CFC00F7B58C461E461D4607460023AE4605F04A
:100D0C007F01BEF17F0F02A888BF41F080015C1CFF
:100D1C00BEF17F0F03444FEAD515E4B203F8041C6F
:100D2C0010D8C4F10403D11802F803C0C4F10503B0
:100D3C00134401A80532934206D010F8015B03F866
:100D4C00015BF8E72346D9E7721C2244384601F0D0
:100D5C00C6F9054600F012FC013478623444A8B29E
:100D6C00231A5842584103B0F0BD0233F0B5044683
:100D7C0098B20023CD5C4DB1B4F854605F1C864230
:100D8C0004D9461C15543B46B0B2F3E799B2441A49
:100D9C002244091202F8021C02F8013CF0BD38B5DD
:100DAC00044601F068FB002814BF0125002502D180
:100DBC00204601F009FB284638BD00002DE9F0471C
:100DCC0088B00446894617461E46DDF840809DF8DB
:100DDC0050A0FFF7E4FF0546002840F0CB802146E9
:100DEC0001A8FFF7AFFEA16C002940F087802B46CD
:100DFC002046B4F84C20A16B01F0AEFB002879D052
:100E0C00012323849DF85430E269042B40F0818047
:100E1C00594B186899889B79ADF80C108DF80E30E9
:100E2C000290C2F805009DF80E30BDF80C10D3727C
:100E3C000C23A2F80910B8F1000F7FD09DF84800E0
:100E4C009DF84420400140EAC20040F00600C0B2C8
:100E5C00BAF1000F01D100F0FD001FB1002E6FD1CF
:100E6C0040F08000E269D054226DE169581C1212E6
:100E7C000A54E169206D9A1C885403334946204674
:100E8C00E269FFF772FF0346B8F1000F0BD0414641
:100E9C00E2692046FFF769FFE26903461399204691
:100EAC00FFF763FF034667B139462046E269FFF757
:100EBC005CFF03462EB131462046E269FFF755FF31
:100ECC000346053B1021E2699BB22046FFF710FF59
:100EDC0000F054FB4FF47A76C4E90900204601F087
:100EEC0039FA80BB00F04AFBA36AC01A236D734326
:100EFC009842F3D9204601F067FA34E002A800F0DA
:100F0C0075FE2B462046B4F84C2002A901F0B2F92C
:100F1C0074E71A4B0DF1080C186859681B7AACE889
:100F2C0003008CF8003002AB03CBC2F80500C2F80A
:100F3C0009109CF8003053730E237CE7022087E7DE
:100F4C0040F0C0008EE7204602A9FFF771FE04288E
:100F5C00D0D1E369DE78002ECCD100F00FFB012557
:100F6C00A06284F82C6001A8FFF7F7FD284608B0B2
:100F7C00BDE8F0870025F9E7B3440A08BA440A082B
:100F8C007FB501230422CDE9043200231A46CDE9B2
:100F9C000233CDE90033FFF711FF07B05DF804FB16
:100FAC002DE9F74FDDF83C8004468B4616461F466C
:100FBC009DF834509DF83890FFF7F1FE82460028DA
:100FCC0051D0214601A8FFF7BDFD0021B4F85420F3
:100FDC00E06903F0CDF8052359462046E269FFF796
:100FEC00C4FE6B1E012B15D8218CE369013189B22B
:100FFC00218409121954421CE369218C92B20230EB
:10100C0080B29954B8F1000F04D0238C5A1C22845E
:10101C00A8F8003000210B188F42E2699BB20AD964
:10102C00B4F854C09C4506D916F801C0013102F839
:10103C0003C089B2EFE79DF8301000290CBF3021B6
:10104C003121B9F1000F01D041F00801022D0ED170
:10105C0041F00401053B20469BB2FFF749FE824656
:10106C0001A8FFF77AFD504603B0BDE8F08F012DC3
:10107C0008BF41F00201EDE71FB5089C0394002462
:10108C0002949DF81C4001949DF818400094FFF7C1
:10109C0087FF04B010BD7FB50546104614460E46BA
:1010AC0003F0A4F800220346CDE901220092314658
:1010BC0022462846FFF7E0FF04B070BD73B5044626
:1010CC000E46FFF76CFE0546C8B1214601A8FFF796
:1010DC0039FD6222E36920461A700222E3695A70D4
:1010EC00E36932129A70E3690422DE70E16900F060
:1010FC00F6FF051E01A818BF0125FFF72EFD284697
:10110C0002B070BD73B504460E46FFF748FE0546A7
:10111C00C8B1214601A8FFF715FD7222E3692046EC
:10112C001A700222E3695A70E36932129A70E36909
:10113C000422DE70E16900F0D2FF051E01A818BF81
:10114C000125FFF70AFD284602B070BD2DE9F04FCE
:10115C0087B000AF0446FFF722FE8146F8B1214666
:10116C0007F11400FFF7EEFC00F008FA4FF47A7365
:10117C00226D06465343A26A821A9A4203D8626AC7
:10118C00821A93421FD294F82C306BB1204601F096
:10119C001BF94FF0000907F11400FFF7DEFC48467D
:1011AC001C37BD46BDE8F08FC021E26920461170A6
:1011BC00E2695370E169022200F091FF0123C4E956
:1011CC00096684F82C30204601F0C4F80028E2D0DF
:1011DC00204607F11301FFF72BFD83460028DAD0D8
:1011EC00E369A662197801F0F002302A7DD1D4F8B7
:1011FC0030A0BAF1000FCED097F813C0C7F804D0C6
:10120C0003EB0C025578917801EB05218DB2694600
:10121C0005F10802D208A1EBC202954668460CF112
:10122C000302FA6003EB020E0DEB0502C7F808D0BF
:10123C003A603A68B9688A4206D00A461EF8018BB1
:10124C0002F8018BBA60F4E70022425593F8008053
:10125C00F96808F00608ABEB0C02033AB8F1020F80
:10126C00A2EB0502294424D113F801E0194491F8AA
:10127C0001B00CF105012944023A19440BEB0E2B79
:10128C00D0474022E3691FFA8BFB1A70E36983F89D
:10129C000180E3694FEA2B229A70E369042283F8F8
:1012AC0003B02046E16900F01AFF6662D7F804D05B
:1012BC0071E7B8F1040F15D113F801E0194491F856
:1012CC0001B00CF105012944023A19440BEB0E2B29
:1012DC00D0475022E3691FFA8BFB1A700222E36994
:1012EC005A70D6E71944D047E0E7502A08D19A78CB
:1012FC00D978204601EB022189B2FFF7DFFE4AE7DD
:10130C00402A12D1626B002A3FF445AFBBF1040FA7
:10131C007FF441AF11F0060F7FF43DAF9978D87888
:10132C0000EB012080B2904735E7602A08D19A780B
:10133C00D978204601EB022189B2FFF7E3FE2AE7B8
:10134C00702ADFD0902A3FF426AFC02A0AD1D022CF
:10135C001A700022E36920465A70E169022200F0FB
:10136C00BEFE18E7D02A04BF002384F82C3012E705
:10137C00F7B504460F461646FFF711FD054610B3A8
:10138C00214601A8FFF7DEFB238C01339BB2EBB1A6
:10139C002384238CE2691B125371E369228C394636
:1013AC009A71E26907232046FFF7DFFCE36982218B
:1013BC001E54043883B2E2692046FFF799FC0546B7
:1013CC0001A8FFF7CAFB284603B0F0BD0123DFE7F5
:1013DC000022FFF7CDBF08B501F09AFC00F058FBD6
:1013EC00012008BD38B515460C4601F091FC36219C
:1013FC0000F084FB01F08CFC036829469B6898473D
:10140C0001F086FC0368210A9B68984701F080FC78
:10141C000368E1B29B68984701F07AFCBDE838405C
:10142C0000F073BB06224FF48041FFF7DBBF10B511
:10143C000C4601F06DFC362100F060FB01F068FCFD
:10144C00036821469B68984701F062FC002100F07C
:10145C0058FB01F05DFC0222362100F048FB40F203
:10146C00E93401F055FC03681B699847012806DC38
:10147C00013CA4B21CB1012000F0C8FAF1E701F064
:10148C0047FC03685B699847044601F041FC03681C
:10149C005B699847C3B243EA042080B210BD0000D8
:1014AC00022108B5FFF7C3FFC0F30F1002F0F6FAE4
:1014BC00014902F0FFFB08BD0000484438B5042187
:1014CC00FFF7B5FF0446C0F30F2002F0EBFA054618
:1014DC00E0B201F0B9FE0022044B01F01FFF02F054
:1014EC00D7F9294602F02AFA38BD00BF0000703F38
:1014FC002029A8BF202138B50C460C210546FFF742
:10150C0096FFC4F1200420F01F01E4B289B22846F2
:10151C0021430C22BDE83840FFF764BF08B5024BED
:10152C001B681B6B019308BDD001060808B5024B64
:10153C001B689B6B019308BDD001060808B5024BD4
:10154C001B681B6C019308BDD001060808B5024B43
:10155C001B685B6C019308BDD001060808B5024BF3
:10156C001B689B6C019308BDD001060808B5024BA3
:10157C001B685B68019308BD9C01060808B5024B0B
:10158C001B685B69019308BD9C01060808B5024BFA
:10159C001B689B6D019308BD9C01060808B5024BA6
:1015AC001B685B6E019308BD9C01060808B5024BD5
:1015BC001B689B68019308BDB001060808B5024B77
:1015CC001B68DB68019308BDB001060808B5024B27
:1015DC001B681B69019308BDB001060808B5024BD6
:1015EC001B68DB6C019308BDAC01060808B5024B07
:1015FC001B689B6D019308BDAC01060808B5024B36
:10160C001B68DB6D019308BDAC01060808B5024BE5
:10161C001B681B6E019308BDAC01060808B5024B94
:10162C001B685B6E019308BDAC01060808B5024B44
:10163C001B689B6E019308BDAC01060808B5024BF4
:10164C001B68DB6E019308BDAC01060808B5024BA4
:10165C001B681B6F019308BDAC01060808B5024B53
:10166C001B685B6F019308BDAC01060808B5034B02
:10167C001B68D3F88030019308BD0000AC0106084C
:10168C0008B5034B1B68D3F89030019308BD0000DC
:10169C00AC01060808B5024B1B681B68019308BD1A
:1016AC00BC01060808B5024B1B685B68019308BDBA
:1016BC00BC01060808B5024B1B689B68019308BD6A
:1016CC00BC01060808B5024B1B68DB68019308BD1A
:1016DC00BC01060808B5024B1B681B69019308BDC9
:1016EC00BC01060808B5024B1B681B6A019308BDB8
:1016FC00BC01060808B5024B1B681B6B019308BDA7
:10170C00BC01060808B5024B1B685B6C019308BD55
:10171C00BC01060808B5024B1B68DB69019308BDC8
:10172C00B401060808B5024B1B681B6A019308BD7F
:10173C00B401060808B5024B1B689B69019308BDF0
:10174C00C401060808B5024B1B685B6A019308BD0F
:10175C00C401060808B5024B1B689B6A019308BDBF
:10176C00C401060808B5024B1B68DB6A019308BD6F
:10177C00C401060808B5024B1B681B6B019308BD1E
:10178C00C401060808B5024B1B685B6B019308BDCE
:10179C00C401060808B5024B1B689B6B019308BD7E
:1017AC00C401060808B5024B1B681B6C019308BDED
:1017BC00C401060808B5024B1B681B68019308BDE1
:1017CC00D801060808B5024B1B685B68019308BD7D
:1017DC00D801060808B5024B1B681B69019308BDAC
:1017EC00D801060808B5024B1B685B69019308BD5C
:1017FC00D801060808B5024B1B689B69019308BD0C
:10180C00D801060808B5024B1B68DB69019308BDBB
:10181C00D801060808B5024B1B681B6A019308BD6A
:10182C00D801060808B5024B1B685B6A019308BD1A
:10183C00D801060808B5024B1B685B6C019308BD08
:10184C00C001060808B5024B1B689B6C019308BDD0
:10185C00C001060808B5024B1B681B6D019308BD3F
:10186C00A801020808B5024B1B681B68019308BD50
:10187C00A401060808B5024B1B685B68019308BD00
:10188C00A401060808B5024B1B685B69019308BDEF
:10189C00A401060808B5024B1B689B6D019308BD9B
:1018AC00A401060808B5034B1B68D3F890300193CC
:1018BC0008BD0000A401060808B5034B1B68D3F84B
:1018CC009C30019308BD0000A401060808B5024B2A
:1018DC001B689B68019308BDCC01060808B5024B38
:1018EC001B685B69019308BDCC01060808B5024B67
:1018FC001B681B6B019308BDCC01060808B5024B95
:10190C001B68DB6B019308BDCC01060808B5024BC4
:10191C001B685B68019308BDC801060808B5024B3B
:10192C001B689B68019308BDC801060808B5024BEB
:10193C001B68DB68019308BDC801060808B5024B9B
:10194C001B681B69019308BDC801060808B5024B4A
:10195C001B685B69019308BDC801060808B5024BFA
:10196C001B689B69019308BDC801060808B5024BAA
:10197C001B68DB69019308BDC801060808B5024B5A
:10198C001B681B6A019308BDC801060808B5024B09
:10199C001B681B6B019308BDC801060808B5024BF8
:1019AC001B685B6B019308BDC801060808B5024BA8
:1019BC001B681B6C019308BDC801060808B5024BD7
:1019CC001B685B6C019308BDC801060808B5024B87
:1019DC001B681B68019308BDA001060808B5024BE3
:1019EC001B685B68019308BDA001060808B5024B93
:1019FC001B689B68019308BDA001060808B5024B43
:101A0C001B685B6C019308BDA00106080021FFF761
:101A1C0039BF7047F8B5064615460C468F18BC42C0
:101A2C0006D0336830469B6814F8011B9847F6E7DC
:101A3C002846F8BD0022007CFFF7E8BD0021007CA1
:101A4C00FFF7ECBD0021007CFFF7F0BD0021007C0E
:101A5C00FFF7F4BD0021007CFFF7F8BD10B504467C
:101A6C00142101F087F9204610BD000010B54FF489
:101A7C007A73044608460021C4E90113034B11464E
:101A8C0023602074FFF7F2FD204610BDCC440A08F9
:101A9C000023007C1A461946FFF7A0BD7FB5002233
:101AAC001423CDE90122ADF804300B78007C8DF8BD
:101ABC0008304B680393CB6804930B7A01A9059308
:101ACC00FFF7DEFD07B05DF804FB1FB5003B8DF89A
:101ADC0000104FF0640118BF012303916946019275
:101AEC008DF80830FFF7DAFF05B05DF804FB012331
:101AFC00FFF7EBBF0022007CFFF778BDC9B2FFF700
:101B0C00F9BF0022007CFFF779BD0121FFF7F9BF77
:101B1C00704710B50446182101F02CF9204610BD71
:101B2C00F8B50E46002400F10807051D17F8011D35
:101B3C000A22304600F027F9AF42044401D1204676
:101B4C00F8BD002CF2D02E21304600F001F90444EF
:101B5C00ECE7000010B50446044B1122002140F8BC
:101B6C00043B02F005FB204610BD00BFF4440A08FC
:101B7C000346074A10B543F8042B01F1100251F843
:101B8C00044B914243F8044BF9D10A781A7010BDFA
:101B9C00F4440A08024AC0E9002104220275704785
:101BAC00F4440A0810B59DF8084044EA03240423C1
:101BBC0044EA024444EA01644460037510BD000029
:101BCC0037B5044D05609DF818500095FFF7EAFFF6
:101BDC0003B030BDF4440A0813B5CB7800938B786E
:101BEC004A780978FFF7DEFF02B010BD10B5044645
:101BFC00024B0360FFF7F0FF204610BDF4440A08C7
:101C0C00014B024A1A6070479401002000450A08F3
:101C1C00002340681A46FFF779BE00220221406873
:101C2C00FFF784BE002240681146FFF777BE002202
:101C3C0040681146FFF782BE002340681A461946D9
:101C4C00FFF784BE002340681A461946FFF786BE8C
:101C5C0000214068FFF7AABE00214068FFF7AEBE26
:101C6C000022406881F00101FFF780BE002240682D
:101C7C00FFF78CBE002240681146FFF78FBE002292
:101C8C0040681146FFF77ABE70B515468EB0044613
:101C9C0008A8FFF75FFF1122002103A802F068FAE1
:101CAC000026284602F0A2FA0A4B009681B25B6825
:101CBC00284603AAFFF7C6FD30B131462046FFF790
:101CCC0069FF20460EB070BD204603A9FFF750FFF8
:101CDC00F7E700BF18060020034A044B042814BF82
:101CEC0010461846704700BF9801002018060020C7
:101CFC00024B034A1A6000225A6070479801002078
:101D0C000C450A08F8B506460D4600248F18BD424E
:101D1C000CD0336830469B6815F8011B9847031E9E
:101D2C0001DB1C44F3E7002C08BF1C462046F8BD21
:101D3C0070B505460C46084649B102F057FA2B68B7
:101D4C00024621462846BDE87040DB68184770BD46
:101D5C0003689B68184738B50D210546FFF7F8FF57
:101D6C000A2104462846FFF7F3FF204438BD38B556
:101D7C000546FFF7DDFF04462846FFF7ECFF20443D
:101D8C0038BDFFF7F4BF0023012A98BF0A2230B5F3
:101D9C008BB00C468DF8243009A92546B4FBF2F41F
:101DAC0004FB1253DBB2092B94BF30333733DBB255
:101DBC00AA4201F8013DF0D9FFF7BAFF0BB030BDD4
:101DCC000022014B9A607047A001002070B50026DC
:101DDC0004460D4640F8086FFFF7B8FB28462570FF
:101DEC00FFF798FC2046666070BD00002DE9F047B7
:101DFC0007460D4616461C46002200233846294647
:101E0C0001F0FEFC20B12D2305F1004504F8013B47
:101E1C0000234FF0010A0A22D9B28E4203D902FBE9
:101E2C000AFA0133F8E7504601F00EFA3A462B460F
:101E3C0001F074FA8046894601F0F0FF05460F4622
:101E4C0001F036FA02460B464046494601F0AEF820
:101E5C000022124B01F0E8FC10B1013547F10007EC
:101E6C00524628463946D31701F0C0FF01231546C8
:101E7C0021460A2200F0E4FD6EB1204602F0B6F9CC
:101E8C002E23211823540A2233462846BDE8F04756
:101E9C00013100F0D5BDBDE8F08700BF0000E03F88
:101EAC0010B504460068FFF799FD204610BD10B52B
:101EBC000446006808B1FFF791FD0023C4E9013323
:101ECC00236010BD38B504460D4600680131FFF79C
:101EDC008DFD10B1C4E90005012038BD10B50368B3
:101EEC00044623B143688B4201D3012010BD204628
:101EFC00FFF7E8FF0028F9D0A368002BF5D1226882
:101F0C001370F2E770B50E46114604461546FFF7FE
:101F1C00E5FF20B92046FFF7CAFF204670BD2A46D0
:101F2C0031462068A56002F015F900212268A368EB
:101F3C00D154F2E738B5002304460D46C0E900330E
:101F4C008360037339B1084602F050F92946024602
:101F5C002046FFF7D7FF204638BD884210B50B4608
:101F6C00044604D0096821B19A68FFF7CBFF2046DC
:101F7C0010BDFFF79CFFFAE7002310B50446C0E93B
:101F8C00003383600373FFF7E8FF204610BD38B5BC
:101F9C0005460C4649B1084602F028F9214602468E
:101FAC002846FFF7AFFF284638BDFFF780FFFAE75A
:101FBC0010B5002304468AB0C4E90033A360237330
:101FCC00084601A900F0F9FC204601A9FFF7DFFF44
:101FDC0020460AB010BD10B5002304468AB0C4E9EF
:101FEC000033A36023730846012301A900F028FDE8
:101FFC00204601A9FFF7CBFF20460AB010BD10B553
:10200C001946044600238AB01046C4E900339DF8F3
:10201C003020A360237301ABFFF7E8FE204601A933
:10202C00FFF7B5FF20460AB010BD70B505460E4649
:10203C0009B9002070BD6AB1846814442146FFF7C9
:10204C004DFF0028F5D02868AB683146184402F0E3
:10205C00C5F8AC600120EDE78A680968FFF7E5BFB9
:10206C0010B58A6809680446FFF7DFFF10B92046EF
:10207C00FFF71DFF204610BD38B504460D4621B9AB
:10208C002046FFF714FF204638BD084602F0AEF894
:10209C00294602462046FFF7C8FF0028F0D0F2E799
:1020AC0002220020044B1A60044B054A18609880E9
:1020BC0098719A60FFF7DEBBBC010020B0010020D4
:1020CC000000FFFF13B503688DF80710DC6B0122CD
:1020DC0047F230530DF10701A04702B010BD10B408
:1020EC000368DC6B47F23053A44610BC604713B551
:1020FC00134602688DF80710D46B0DF1070101220D
:10210C00A04702B010BD70477047000010B50446E0
:10211C00064B0846994204F10C0404D000F02EFE44
:10212C00002808BF0024204610BD00BF78450A08CF
:10213C0010B50446AC2100F01DFE204610BDFDF785
:10214C00A8BF000038B50B4B8469054603607CB111
:10215C006368013B63605BB9236820469B689847C2
:10216C00A368013BA3601BB923682046DB68984732
:10217C00284638BD88450A0810B50446FFF7E2FF2B
:10218C0020461C2100F0F6FD204610BD70B504461B
:10219C0006464D69044B8C3544F8043B0FCD0FC4F7
:1021AC002B683046237070BDF4440A0810B543699F
:1021BC000446B3F88620B3F884309A4205D063699C
:1021CC00B3F884201344187910BD03681B69984731
:1021DC000028F4D14FF0FF30F6E710B54369044600
:1021EC00B3F88620B3F884309A4208D06369B3F808
:1021FC008420511CA3F884101344187910BD036873
:10220C001B6998470028F1D14FF0FF30F6E7F8B57D
:10221C0043691746B3F88620B3F8843005469A42D2
:10222C000E4616D069693046B1F88430B1F8864054
:10223C00E41ABC4228BF3C4604332246194401F040
:10224C0089FF6A69B2F884302344A2F884302046AE
:10225C00F8BD03681B6998470028E3D14FF0FF34A1
:10226C00F5E700234269A2F884304269A2F886306F
:10227C00704700002DE9F0431F4603688BB0DB6A02
:10228C0005460C46164698473846FFF725FD036869
:10229C00DB689847002854D03346062201210220DF
:1022AC000097D5F81480FFF705FA2023C8F8000032
:1022BC004FF00008CDE902386B6901201B682349F7
:1022CC000193234B02AA00934346FFF7C3FA6B69B1
:1022DC001868FFF7E7F9002833D02846FFF7C1FF4D
:1022EC000223ADF80830E37976BA8DF80C30A37977
:1022FC004FF4FA508DF80D306379ADF80A608DF813
:10230C000E3014F8043F8DF80F30FFF793FA6B6919
:10231C0006461022186802A9FFF7D4F98146304608
:10232C00FFF788FA0FCC6E698C360FC623683370B2
:10233C002F61B9F1000F07D02B682846DB6A98474C
:10234C0040460BB0BDE8F0830120FAE740450A088F
:10235C0047450A0838B542690446B2F886302BB1B5
:10236C00B2F884209A4201D1FFF77BFF2069FFF776
:10237C00B3FC0368DB689847F8B163691868FFF72A
:10238C0091F9D0B16069B0F886107F2915D8051D78
:10239C00C1F18002002300682944FFF79BF9002853
:1023AC000BDD6369B3F886200AB9A3F8842063694E
:1023BC00B3F886201044A3F886006369B3F886004E
:1023CC00B3F88430C01A38BD38B543690446186870
:1023DC00FFF768F918B163691868FFF783F9656945
:1023EC00FFF788F928606069112200218C3001F018
:1023FC00BFFE2046BDE83840FFF733BF10B5436938
:10240C0004461868FFF74EF908B9002010BD206982
:10241C00FFF762FC0368DB6898470028F5D0636916
:10242C001868FFF737F9B0FA80F04009EEE708B505
:10243C00FFF7E4FF003818BF012008BD2DE9F34178
:10244C000027476004460D4616469846FFF7D6FF10
:10245C0070B1CDE9008760693B4632462946006879
:10246C00FFF750F9002800DA606002B0BDE8F08197
:10247C004FF0FF30F8E770B50546FFF7BFFFE8B93E
:10248C006B69B3F88610B3F88420914216D11868A2
:10249C00FFF708F908B9002070BD6B691868FFF7E1
:1024AC00F9F801280446F6D12B6828461B69984791
:1024BC0030B92B682846DB6A9847ECE70120EBE73C
:1024CC002046E9E7002310B504460160C0F88430CB
:1024DC008830FFF73FFB204610BD0000F8B54FF4E5
:1024EC007A720023C0E901320D4A03610260436134
:1024FC000446AC200E46FDF7C8FD051E05F10C0781
:10250C0008D00123C5E90133064B314638462B6010
:10251C00FFF7D8FF2046C4E90575FFF7A2FEF8BD0A
:10252C0088450A0864450A0810B50446FFF7E2F826
:10253C0001462046FFF7D2FF204610BD10B50446D9
:10254C000068FFF7AFF810B12068FFF7CBF8204612
:10255C0010BD0C30FFF7F2BF2DE9F0431F460368A6
:10256C008FB0DB6A06460D46904698471348FFF736
:10257C005EFBF0B102A8FFF7EDFA284601F036FE3B
:10258C00002481B23B462846009403AAFFF75AF96F
:10259C0090B9336809ADD3F82090094B03AC08937C
:1025AC000FCC0FC5236842462B7030463B4608A91A
:1025BC00C8470FB0BDE8F0832046FAE79801002029
:1025CC00F4440A0808B50020FFF790F928B1FFF78A
:1025DC0085F980F00100C0B208BD0120FCE710B500
:1025EC000020FEF7D3FF0446A0B9FFF73BF9012802
:1025FC0010D12046FFF74EF960B9FFF7E3FF10B991
:10260C00FFF764F9F9E7FFF7DDFFBDE810400020A4
:10261C00FEF7BCBF204610BD1FB5FFF7E0FF102230
:10262C000021684601F0A4FD00216846FEF7B6FFC4
:10263C00009805B05DF804FB024B1A68024B1A6057
:10264C00704700BF28000020C00100207047417473
:10265C007047704708B5007CFFF7A4F820EAE070DB
:10266C0008BD08B5007CFFF775F820EAE07008BDDE
:10267C0008B5007CFFF77EF840EAE07008BD08B5AD
:10268C00007CFFF76FF840EAE07008BD007CFFF7B4
:10269C0079B870B5467C04460D462EB12946207C8F
:1026AC00BDE87040FFF74EB8007CFFF77BF80028C0
:1026BC00F4DC304670BD10B50446142100F05AFB12
:1026CC00204610BD4FF0000C10B5044608461146CC
:1026DC004FF47A72C4E901C2044A207422600122C8
:1026EC0062741A46FFF726F8204610BDF0450A081A
:1026FC0038B50C4D2978BFF35B8F11F001040FD165
:10270C002846FDF7CAFC58B12146074B074A084832
:10271C00FFF7D8FF2846FDF7C5FC064801F000FD81
:10272C00034838BDC40100204C020020C801002021
:10273C00D00200205F260A0841747047704770472A
:10274C0008B50021007CFFF755F840EAE07008BDA1
:10275C0008B50121007CFFF74DF840EAE07008BD98
:10276C0008B5007CFFF73EF820EAE07008BD08B51C
:10277C00007CFFF72FF820EAE07008BD38B504465E
:10278C00007C0D46FFF72EF8002801DC607C28B198
:10279C002946207CFFF736F820EAE07038BD007C33
:1027AC00FFF738B810B50446142100F0E3FA2046C0
:1027BC0010BD704710B54FF47A73044608460021DB
:1027CC00C4E90113044B2074236001231146637484
:1027DC00FEF7F0FF204610BD20460A080022007CC0
:1027EC00FEF7F0BF007CFFF71DB8FFF7FBBF000042
:1027FC0010B504461422002101F0BAFC054B20460A
:10280C006360054BE36040F2011323818123238233
:10281C0010BD00BF140300201504002030B50E4D70
:10282C0087B001A8FFF7E4FF2978BFF35B8F11F0A5
:10283C0001040ED12846FDF730FC50B1214601AA07
:10284C000648FFF7B7FF2846FDF72CFC044801F0BB
:10285C0067FC024807B030BDE4020020EC02002007
:10286C0049270A0810B504461422002101F080FC07
:10287C00054B20466360054BE36040F20113238156
:10288C008123238210BD00BF9604002097050020F1
:10289C0010B50E4C86B001A8FFF7E4FF2378BFF308
:1028AC005B8FDB070ED42046FDF7F7FB50B10121FF
:1028BC0001AA0748FFF77EFF2046FDF7F3FB05480A
:1028CC0001F02EFC024806B010BD00BFE80200204B
:1028DC0000030020BF270A08002240681146FFF7BA
:1028EC002DB8F0B5154689B011220E4604460021CC
:1028FC0003A801F03DFC284601F078FC002781B2CA
:10290C0073682846009703AAFEF79CFF30B139463E
:10291C002046FFF73FF9204609B0F0BD204603A939
:10292C00FFF726F9F7E7002240681146FFF726B8B3
:10293C00002240681146FFF731B800224068FFF7CB
:10294C0025B80022406881F00101FFF70FB8002381
:10295C0040681A461946FFF701B8002340681A462A
:10296C001946FEF7F3BF002240681146FEF7D6BFAA
:10297C00002202214068FEF7D9BF002340681A46A6
:10298C00FEF7C4BF0422024B5A60024A1A60704719
:10299C001806002050460A0810B5044601F026FC23
:1029AC00431E20462344834206D90278197800F846
:1029BC00011B03F80129F6E710BD931E222B4FF0E3
:1029CC0000032DE9F0418CB00D4614468DF82C30E7
:1029DC0026D9002829DA2E462D230A2406F8013B95
:1029EC0040424FF001080DF12B072246014601A889
:1029FC0001F09CFB029B0198092BCCBF37223022A3
:102A0C00134407F8013908F101080028EDD14246BA
:102A1C003046791C01F09EFB28460CB0BDE8F081D5
:102A2C000A2AD6D018B12E46DBE70A24FAE730235F
:102A3C002E464FF002088DF82B300DF12A07E6E7F1
:102A4C0070B50C46911E222922D8254668B1B0FBE0
:102A5C00F2F602FB1600C1B2092894BF303157318F
:102A6C00C9B2304605F8011BF0E72A463021234451
:102A7C00934202D902F8011BFAE75A1BAB4238BF4A
:102A8C00002200232046AB54FFF786FF204670BD82
:102A9C000020FCE7014B1860704700BF2C000020A1
:102AAC0008B5134B43B1FFF7B9FE03681B69984790
:102ABC00002801DDAFF300800E4B43B1FFF718FE89
:102ACC0003681B699847002801DDAFF300800A4BAF
:102ADC000BB1AFF30080094B43B1FFF7D9FE03688C
:102AEC001B699847002801DDAFF3008008BD00BFCB
:102AFC0000000000000000000000000000000000CA
:102B0C0008B5FFF7CDFFFEF739FD014B186008BD86
:102B1C00380600200548064A08B5121A054901F086
:102B2C0019FB054B054A1A6008BD00BF0040024066
:102B3C0004400240A8470A08004002401E1C279A85
:102B4C00002307B51A466FF077010093FEF7B4FE29
:102B5C0003B05DF804FB000007B543880A2B08D0CE
:102B6C00502B0BD1094B1B684BB103B05DF804EB38
:102B7C001847FFF7E5FF03B05DF804FB00231A4686
:102B8C006FF077010093FEF797FEF4E72406002020
:102B9C00002110B51148FEF731FF114B1A68114B8B
:102BAC009A420CBF012200220F4B1A7001D0FFF782
:102BBC00B1FFFEF7DBFC044601F0E2FA0B4B13B15C
:102BCC002046AFF3008000210848FEF797FEBDE8D1
:102BDC00104000210648FEF765BE00BFA12A0A0876
:102BEC00004002401E1C279A200600200000000016
:102BFC00652B0A08024B986808B1FEF7AFBC70470A
:102C0C002C060020172870B5044601D9002070BD91
:102C1C00A0F10D03022B0BD9012824D800F078F871
:102C2C000021007CFEF71AFD80F00100C0B2EEE737
:102C3C00124E3178BFF35B8F11F001050DD1304688
:102C4C00FDF72BFA48B129460D48FFF7BFF830467F
:102C5C00FDF728FA0B4801F063FA094B1878FEF7D8
:102C6C0061FD0028D2D1123C012C05D8FFF740FDA4
:102C7C00007CFEF78FFDD7E70120C8E7280600206F
:102C8C002C060020012C0A08172838B504460D46DE
:102C9C000AD8FF2908D0FFF7B5FF28B129462046EE
:102CAC00BDE83840FEF782BC38BD38B504460D4649
:102CBC00FEF784FCFF2810D0062804D84D2323FAF5
:102CCC0000F0C30709D42046FFF79CFF28B1294622
:102CDC002046BDE83840FEF779BC38BD704700008F
:102CEC00002370B5202543801423084E044603802E
:102CFC00314685600561284600F03EF8314660603B
:102D0C00284600F039F8E060204670BD84460A0879
:102D1C0030B50E4D87B02978BFF35B8F11F00104ED
:102D2C0011D12846FDF7B9F968B101A8FFF7D8FF12
:102D3C00214601AA0648FEF799FE2846FDF7B2F98E
:102D4C00044801F0EDF9024807B030BD3C06002004
:102D5C0040060020E92C0A08002307B51A4619463C
:102D6C0000930348FEF72CFF03B05DF804FB00BF93
:102D7C0054060020FDF78DB9FDF789B9014900F023
:102D8C00FBB800BFA0460A087FB500241023CDE98C
:102D9C000234036815469E6912686B4600948DF8E0
:102DAC000440B0479DF8043003F00603062B09BF1E
:102DBC0001202046009B2B6004B070BD009890420F
:102DCC0014BF01200620704710B50446024B036067
:102DDC0000F0CFF8204610BDE0460A0810B50446B6
:102DEC00FFF7F2FF20460821FFF7C4FF204610BD75
:102DFC002DE9F041DDF818801F46DDE908349845CF
:102E0C000646154607D1079900F0B6F818B165715A
:102E1C000020BDE8F0813946304600F0ADF80028BE
:102E2C00F6D00123C4F800802571A371F0E738B502
:102E3C0015461C4600F0A0F820B10823E3600623D9
:102E4C002560237138BD2DE9F04105460C46164628
:102E5C001F4600F091F848B9032F07D82368324673
:102E6C0029462046BDE8F0415B691847BDE8F08172
:102E7C0010B50446024B0360FFF7A6FF204610BDB9
:102E8C0040470A0810B50446FFF7F2FF20460C2114
:102E9C00FFF770FF204610BD2DE9F041DDF81880DA
:102EAC00064690450F4615461C460BD0B0682A4680
:102EBC000368CDF818801E6A39462346B446BDE82F
:102ECC00F0416047194600F057F80028EED0062074
:102EDC00BDE8F0812DE9F14F0D46DDE90A4BDDE946
:102EEC000CA6194681461746984600F045F890B155
:102EFC00002D3460377109DB2C44A2450CBF06242D
:102F0C000124B471002001B0BDE8F08F0235F9D175
:102F1C000123B371F6E7544506D15946484600F0F3
:102F2C002BF808B17771EDE7D9F808003A46036839
:102F3C00CDE90CA6CDE90A4BDC6929464346A446EB
:102F4C0001B0BDE8F04F60472DE9F04107460C4653
:102F5C0015461E46FFF76BFF48B9B8682A4603684A
:102F6C0021469F693346BC46BDE8F0416047BDE849
:102F7C00F081704700207047814208B50ED0406840
:102F8C0003782A2B0CD049680B782A2B08BF013107
:102F9C0001F01AF9B0FA80F0400908BD0120FCE7F5
:102FAC000020FAE781F0004102E000BF83F000430B
:102FBC0030B54FEA41044FEA430594EA050F08BFC8
:102FCC0090EA020F1FBF54EA000C55EA020C7FEA8C
:102FDC00645C7FEA655C00F0E2804FEA5454D4EB09
:102FEC005555B8BF6D420CDD2C4480EA020281EAD3
:102FFC00030382EA000083EA010180EA020281EA0B
:10300C000303362D88BF30BD11F0004F4FEA01315C
:10301C004FF4801C4CEA113102D0404261EB41016B
:10302C0013F0004F4FEA03334CEA133302D05242F1
:10303C0063EB430394EA050F00F0A780A4F10104AD
:10304C00D5F1200E0DDB02FA0EFC22FA05F28018E7
:10305C0041F1000103FA0EF2801843FA05F35941CD
:10306C000EE0A5F120050EF1200E012A03FA0EFC4C
:10307C0028BF4CF0020C43FA05F3C01851EBE37176
:10308C0001F0004507D54FF0000EDCF1000C7EEB93
:10309C0000006EEB0101B1F5801F1BD3B1F5001FD1
:1030AC000CD349085FEA30004FEA3C0C04F10104F0
:1030BC004FEA445212F5800F80F09A80BCF1004F19
:1030CC0008BF5FEA500C50F1000041EB045141EA9B
:1030DC00050130BD5FEA4C0C404141EB0101013C64
:1030EC0028BFB1F5801FE9D291F0000F04BF014653
:1030FC000020B1FA81F308BF2033A3F10B03B3F125
:10310C0020020CDA0C3208DD02F1140CC2F10C02B4
:10311C0001FA0CF021FA02F10CE002F11402D8BF12
:10312C00C2F1200C01FA02F120FA0CFCDCBF41EADE
:10313C000C019040E41AA2BF01EB0451294330BDAD
:10314C006FEA04041F3C1CDA0C340EDC04F114048A
:10315C00C4F1200220FA04F001FA02F340EA030061
:10316C0021FA04F345EA030130BDC4F10C04C4F1A7
:10317C00200220FA02F001FA04F340EA0300294687
:10318C0030BD21FA04F0294630BD94F0000F83F4D1
:10319C00801306BF81F480110134013D4EE77FEAB4
:1031AC00645C18BF7FEA655C29D094EA050F08BF00
:1031BC0090EA020F05D054EA000C04BF19461046E1
:1031CC0030BD91EA030F1EBF0021002030BD5FEA25
:1031DC00545C05D14000494128BF41F0004130BD4D
:1031EC0014F580043CBF01F5801130BD01F00045A1
:1031FC0045F0FE4141F470014FF0000030BD7FEA14
:10320C00645C1ABF194610467FEA655C1CBF0B460E
:10321C00024650EA013406BF52EA033591EA030F25
:10322C0041F4002130BD00BF90F0000F04BF00211D
:10323C00704730B54FF4806404F132044FF0000550
:10324C004FF0000150E700BF90F0000F04BF0021C9
:10325C00704730B54FF4806404F1320410F000452F
:10326C0048BF40424FF000013EE700BF42004FEA2A
:10327C00E2014FEA31014FEA02701FBF12F07F43A7
:10328C0093F07F4F81F06051704732F07F4208BF5E
:10329C00704793F07F4F04BF41F40021704730B565
:1032AC004FF4607401F0004521F000411CE700BFB1
:1032BC0050EA010208BF704730B54FF000050AE034
:1032CC0050EA010208BF704730B511F0004502D535
:1032DC00404261EB41014FF4806404F132045FEA37
:1032EC00915C3FF4D8AE4FF003025FEADC0C18BFE0
:1032FC0003325FEADC0C18BF033202EBDC02C2F1D2
:10330C00200300FA03FC20FA02F001FA03FE40EA63
:10331C000E0021FA02F11444BDE600BF70B54FF067
:10332C00FF0C4CF4E06C1CEA11541DBF1CEA135545
:10333C0094EA0C0F95EA0C0F00F0DEF82C4481EAAD
:10334C00030621EA4C5123EA4C5350EA013518BFCD
:10335C0052EA033541F4801143F4801338D0A0FBBA
:10336C0002CE4FF00005E1FB02E506F00042E0FB67
:10337C0003E54FF00006E1FB03569CF0000F18BF6D
:10338C004EF0010EA4F1FF04B6F5007F64F5407415
:10339C0004D25FEA4E0E6D4146EB060642EAC621A8
:1033AC0041EA55514FEAC52040EA5E504FEACE2E15
:1033BC00B4F1FD0C88BFBCF5E06F1ED8BEF1004F18
:1033CC0008BF5FEA500E50F1000041EB045170BD94
:1033DC0006F0004646EA010140EA020081EA0301D8
:1033EC00B4EB5C04C2BFD4EB0C0541EA045170BDD4
:1033FC0041F480114FF0000E013C00F3AB8014F14E
:10340C00360FDEBF002001F0004170BDC4F1000496
:10341C00203C35DA0C341BDC04F11404C4F1200517
:10342C0000FA05F320FA04F001FA05F240EA020072
:10343C0001F0004221F0004110EBD37021FA04F6A8
:10344C0042EB06015EEA430E08BF20EAD37070BD62
:10345C00C4F10C04C4F1200500FA04F320FA05F0C1
:10346C0001FA04F240EA020001F0004110EBD370C3
:10347C0041F100015EEA430E08BF20EAD37070BD33
:10348C00C4F1200500FA05F24EEA020E20FA04F30C
:10349C0001FA05F243EA020321FA04F001F00041BB
:1034AC0021FA04F220EA020000EBD3705EEA430E2C
:1034BC0008BF20EAD37070BD94F0000F0FD101F05B
:1034CC000046400041EB010111F4801F08BF013C94
:1034DC00F7D041EA060195F0000F18BF704703F0D2
:1034EC000046520043EB030313F4801F08BF013D59
:1034FC00F7D043EA0603704794EA0C0F0CEA135515
:10350C0018BF95EA0C0F0CD050EA410618BF52EACE
:10351C004306D1D181EA030101F000414FF00000D4
:10352C0070BD50EA410606BF1046194652EA4306E2
:10353C0019D094EA0C0F02D150EA013613D195EA56
:10354C000C0F05D152EA03361CBF104619460AD19E
:10355C0081EA030101F0004141F0FE4141F47001A8
:10356C004FF0000070BD41F0FE4141F4780170BD98
:10357C0070B54FF0FF0C4CF4E06C1CEA11541DBFFD
:10358C001CEA135594EA0C0F95EA0C0F00F0A7F8FF
:10359C00A4EB050481EA030E52EA03354FEA01312C
:1035AC0000F088804FEA03334FF0805545EA13133F
:1035BC0043EA12634FEA022245EA111545EA106507
:1035CC004FEA00260EF000419D4208BF964244F19E
:1035DC00FD0404F5407402D25B084FEA3202B61ABD
:1035EC0065EB03055B084FEA32024FF480104FF491
:1035FC00002CB6EB020E75EB030E22BFB61A754605
:10360C0040EA0C005B084FEA3202B6EB020E75EB97
:10361C00030E22BFB61A754640EA5C005B084FEAFF
:10362C003202B6EB020E75EB030E22BFB61A7546CC
:10363C0040EA9C005B084FEA3202B6EB020E75EBD7
:10364C00030E22BFB61A754640EADC0055EA060E98
:10365C0018D04FEA051545EA16754FEA06164FEADB
:10366C00C30343EA52734FEAC2025FEA1C1CC0D187
:10367C0011F4801F0BD141EA00014FF000004FF014
:10368C00004CB6E711F4801F04BF01430020B4F1D5
:10369C00FD0C88BFBCF5E06F3FF6AFAEB5EB030C8D
:1036AC0004BFB6EB020C5FEA500C50F1000041EB8A
:1036BC00045170BD0EF0004E4EEA113114EB5C0457
:1036CC00C2BFD4EB0C0541EA045170BD41F480112A
:1036DC004FF0000E013C90E645EA060E8DE60CEA32
:1036EC00135594EA0C0F08BF95EA0C0F3FF43BAF4F
:1036FC0094EA0C0F0AD150EA01347FF434AF95EA06
:10370C000C0F7FF425AF104619462CE795EA0C0FE9
:10371C0006D152EA03353FF4FDAE1046194622E7B6
:10372C0050EA410618BF52EA43067FF4C5AE50EA90
:10373C0041047FF40DAF52EA43057FF4EBAE12E780
:10374C004FF0FF3C06E000BF4FF0010C02E000BF61
:10375C004FF0010C4DF804CD4FEA410C7FEA6C5C44
:10376C004FEA430C18BF7FEA6C5C1BD001B050EAE7
:10377C00410C0CBF52EA430C91EA030F02BF90EAD2
:10378C00020F0020704710F1000F91EA030F58BF91
:10379C00994208BF90422CBFD8176FEAE37040F0F3
:1037AC00010070474FEA410C7FEA6C5C02D150EA91
:1037BC00013C07D14FEA430C7FEA6C5CD6D152EA4C
:1037CC00033CD3D05DF8040B704700BF8446104611
:1037DC0062468C461946634600E000BF01B5FFF710
:1037EC00B7FF002848BF10F1000F01BD4DF808EDE0
:1037FC00FFF7F4FF0CBF012000205DF808FB00BFB1
:10380C004DF808EDFFF7EAFF34BF012000205DF80A
:10381C0008FB00BF4DF808EDFFF7E0FF94BF012057
:10382C0000205DF808FB00BF4DF808EDFFF7CEFF58
:10383C0094BF012000205DF808FB00BF4DF808ED97
:10384C00FFF7C4FF34BF012000205DF808FB00BF68
:10385C004A0011D212F5001211D20DD56FF4787303
:10386C00B3EB62520ED44FEAC12343F0004343EA58
:10387C00505323FA02F070474FF00000704750EAA3
:10388C00013002D14FF0FF3070474FF0000070470D
:10389C004FEA4102B2F1E04324BFB3F5001CDCF166
:1038AC00FE5C0DD901F0004C4FEAC0024CEA50709E
:1038BC00B2F1004F40EB830008BF20F001007047CD
:1038CC0011F0804F21D113F13872BCBF01F00040D0
:1038DC00704741F480114FEA5252C2F11802C2F102
:1038EC00200C10FA0CF320FA02F018BF40F0010083
:1038FC004FEAC1234FEAD32303FA0CFC40EA0C0035
:10390C0023FA02F34FEA4303CCE77FEA625307D171
:10391C0050EA01331EBF4FF0FE4040F440007047A8
:10392C0001F0004040F0FE4040F40000704700BF42
:10393C0080F0004002E000BF81F0004142001FBF58
:10394C005FEA410392EA030F7FEA226C7FEA236C61
:10395C006AD04FEA1262D2EB1363C1BFD218414056
:10396C0048404140B8BF5B42192B88BF704710F0EC
:10397C00004F40F4000020F07F4018BF404211F08F
:10398C00004F41F4000121F07F4118BF494292EAF7
:10399C00030F3FD0A2F1010241FA03FC10EB0C0023
:1039AC00C3F1200301FA03F100F0004302D54942B0
:1039BC0060EB4000B0F5000F13D3B0F1807F06D35D
:1039CC0040084FEA310102F10102FE2A51D2B1F155
:1039DC00004F40EBC25008BF20F0010040EA03004A
:1039EC007047490040EB0000013A28BFB0F5000FCA
:1039FC00EDD2B0FA80FCACF1080CB2EB0C0200FA80
:103A0C000CF0AABF00EBC25052421843BCBFD040CE
:103A1C001843704792F0000F81F4000106BF80F448
:103A2C0000000132013BB5E74FEA41037FEA226C0B
:103A3C0018BF7FEA236C21D092EA030F04D092F0D6
:103A4C00000F08BF0846704790EA010F1CBF00200A
:103A5C00704712F07F4F04D1400028BF40F0004067
:103A6C00704712F100723CBF00F50000704700F087
:103A7C00004343F0FE4040F4000070477FEA2262AE
:103A8C0016BF08467FEA23630146420206BF5FEA7F
:103A9C00412390EA010F40F4800070474FF000037F
:103AAC0004E000BF10F0004348BF40425FEA000C46
:103ABC0008BF704743F0964301464FF000001CE0EE
:103ACC0050EA010208BF70474FF000030AE000BF44
:103ADC0050EA010208BF704711F0004302D5404282
:103AEC0061EB41015FEA010C02BF844601460020F4
:103AFC0043F0B64308BFA3F18053A3F50003BCFA0F
:103B0C008CF2083AA3EBC25310DB01FA02FC6344BB
:103B1C0000FA02FCC2F12002BCF1004F20FA02F2C2
:103B2C0043EB020008BF20F00100704702F12002B5
:103B3C0001FA02FCC2F1200250EA4C0021FA02F216
:103B4C0043EB020008BF20EADC7070474FF0FF0C1B
:103B5C001CEAD0521EBF1CEAD15392EA0C0F93EA16
:103B6C000C0F6FD01A4480EA010C400218BF5FEAB8
:103B7C0041211ED04FF0006343EA501043EA51112B
:103B8C00A0FB01310CF00040B1F5000F3EBF490025
:103B9C0041EAD3715B0040EA010062F17F02FD2A29
:103BAC001DD8B3F1004F40EBC25008BF20F001000C
:103BBC00704790F0000F0CF0004C08BF49024CEA23
:103BCC00502040EA51207F3AC2BFD2F1FF0340EAB5
:103BDC00C250704740F400004FF00003013A5DDC26
:103BEC0012F1190FDCBF00F000407047C2F1000267
:103BFC00410021FA02F1C2F1200200FA02FC5FEA54
:103C0C00310040F1000053EA4C0308BF20EADC709D
:103C1C00704792F0000F00F0004C02BF400010F40F
:103C2C00000F013AF9D040EA0C0093F0000F01F0BC
:103C3C00004C02BF490011F4000F013BF9D041EADE
:103C4C000C018FE70CEAD15392EA0C0F18BF93EAE0
:103C5C000C0F0AD030F0004C18BF31F0004CD8D10A
:103C6C0080EA010000F00040704790F0000F17BF91
:103C7C0090F0004F084691F0000F91F0004F14D0D7
:103C8C0092EA0C0F01D142020FD193EA0C0F03D12F
:103C9C004B0218BF084608D180EA010000F0004032
:103CAC0040F0FE4040F40000704740F0FE4040F40D
:103CBC00400070474FF0FF0C1CEAD0521EBF1CEAAC
:103CCC00D15392EA0C0F93EA0C0F69D0A2EB0302CA
:103CDC0080EA010C49024FEA402037D04FF0805364
:103CEC0043EA111143EA10130CF000408B4238BF29
:103CFC005B0042F17D024FF4000C8B4224BF5B1A37
:103D0C0040EA0C00B3EB510F24BFA3EB510340EA84
:103D1C005C00B3EB910F24BFA3EB910340EA9C0032
:103D2C00B3EBD10F24BFA3EBD10340EADC001B01A2
:103D3C0018BF5FEA1C1CE0D1FD2A3FF650AF8B4246
:103D4C0040EBC25008BF20F0010070470CF0004C53
:103D5C004CEA50207F32C2BFD2F1FF0340EAC2507E
:103D6C00704740F400004FF00003013A37E792F03F
:103D7C00000F00F0004C02BF400010F4000F013A9D
:103D8C00F9D040EA0C0093F0000F01F0004C02BF98
:103D9C00490011F4000F013BF9D041EA0C0195E701
:103DAC000CEAD15392EA0C0F08D142027FF47DAF9A
:103DBC0093EA0C0F7FF470AF084676E793EA0C0F8A
:103DCC0004D14B023FF44CAF08466EE730F0004C88
:103DDC0018BF31F0004CCAD130F000427FF45CAF18
:103DEC0031F000437FF43CAF5FE700BF53B94AB9F1
:103DFC00002908BF00281CBF4FF0FF314FF0FF30E7
:103E0C0000F08CB9ADF1080C6DE904CE00F024F88B
:103E1C00DDF804E0DDE9022304B07047D0B50022E0
:103E2C000B4B06460F46FFF779FAFFF711FD0446D8
:103E3C00FFF7FAF90022074BFFF770FA02460B4620
:103E4C0030463946FFF7B2F8FFF702FD2146D0BDE8
:103E5C000000F03D0000F0412DE9F047089E0D46B2
:103E6C0004468E46002B40F083808A42174647D981
:103E7C00B2FA82F34BB1C3F1200105FA03FE20FA2A
:103E8C0001F19F4041EA0E0E9C404FEA1748BEFBE1
:103E9C00F8FC1FFA87F908FB1CE20CFB09F0210C5B
:103EAC0041EA024290420AD9BA180CF1FF3180F073
:103EBC001881904240F21581ACF1020C3A44121A6E
:103ECC00B2FBF8F008FB102200FB09F1A4B244EAA3
:103EDC000244A14209D93C1900F1FF3280F0038160
:103EEC00A14240F2008102383C44641A002140EAAD
:103EFC000C401EB10022DC40C6E90042BDE8F08750
:103F0C0002B9FFDEB2FA82F3002B4FD18D1A0121D8
:103F1C004FEA124E1FFA82F8B5FBFEFC0EFB1C5545
:103F2C0008FB0CF0220C42EA0545A84207D97D1982
:103F3C000CF1FF3202D2A84200F2E98094462D1A0D
:103F4C00B5FBFEF00EFB105508FB00F8A4B244EADA
:103F5C000544A04507D93C1900F1FF3202D2A04517
:103F6C0000F2D9801046A4EB080440EA0C40C0E7EC
:103F7C008B4208D9002E00F0B1800021C6E9000563
:103F8C000846BDE8F087B3FA83F100294BD1AB4268
:103F9C0002D3824200F2B980841A65EB030301203C
:103FAC009E46002EAAD0C6E9004EA7E79F40C3F15B
:103FBC002002D1404FEA174EB1FBFEF01FFA87F8F2
:103FCC000EFB101124FA02F29D4000FB08FC2A4360
:103FDC00150C45EA0145AC4504FA03F409D97D19E1
:103FEC0000F1FF3180F08F80AC4540F28C800238BC
:103FFC003D44A5EB0C05B5FBFEF10EFB115C01FB82
:10400C0008F995B245EA0C45A94507D97D1901F186
:10401C00FF3274D2A94572D902393D44A5EB09058A
:10402C0041EA004178E7C1F120078B4022FA07FCF6
:10403C004CEA030C25FA07F44FEA1C4EB4FBFEF9CC
:10404C001FFA8CF80EFB194420FA07F309FB08FA47
:10405C008D401D432B0C43EA0444A24502FA01F2A5
:10406C0000FA01F309D91CEB040409F1FF3048D222
:10407C00A24546D9A9F102096444A4EB0A04B4FB95
:10408C00FEF00EFB104400FB08FAADB245EA044406
:10409C00A24508D91CEB040400F1FF352DD2A24532
:1040AC002BD90238644440EA0940A0FB0289A4EBF6
:1040BC000A044C45C6464D4619D316D05EB1B3EB37
:1040CC000E0264EB050404FA07F722FA01F31F430E
:1040DC00CC40C6E900740021BDE8F087314630467B
:1040EC000CE78C46EBE61046FFE64345E6D2B8EB10
:1040FC00020E69EB0C050138E0E72846D3E71146C0
:10410C008CE78146B9E7084673E7084649E7ACF106
:10411C00020C3D4413E702383C4424E7704700BFCF
:10412C00002301461A46184600F068B810B591FBFA
:10413C00F2F4002902FB141306DB002B01DA013424
:10414C009B1AC0E9004310BD002BC4BF04F1FF341F
:10415C009B18F6E70A44914200F1FF3300D17047F7
:10416C0010B511F8014B914203F8014FF9D110BD74
:10417C0003460244934200D1704703F8011BF9E750
:10418C0038B50D4B04461D68AB6B7BB91820FDF799
:10419C001DFC0A4A0A4BA863C0E90023094B012203
:1041AC0083600B2383810023C0E904230022AB6BC3
:1041BC001C615A6138BD00BF2C0000200E33CDAB02
:1041CC0034126DE6ECDE050010F8012B11F8013B02
:1041DC00012A28BF9A42F7D0D01A7047034611F82B
:1041EC00012B03F8012B002AF9D17047034613F871
:1041FC00012B002AFBD1181A013870472DE9F8431E
:10420C00DFF8BC800646D8F800001F460D469146E4
:10421C0000F058F8264B1C6834B9264C1C60264B11
:10422C0013B11B68C4F8883063681F2B07DDD8F8FE
:10423C00000000F049F84FF0FF30BDE8F8835EB3A2
:10424C00D4F8880088B91D4B23B9D8F8000000F0C9
:10425C003AF8F0E74FF48470FDF7B8FB0028F4D07F
:10426C000023C0E94033C4F8880001226368022EA1
:10427C0040F8239002FA03F200EB8301D0F80031EE
:10428C0043EA0203C0F80031C1F8807002BFD0F8D5
:10429C0004311A43C0F804216368D8F800005A1C92
:1042AC000233626044F8235000F00EF80020C4E79B
:1042BC00F80600206C06002000000000D9190A083E
:1042CC009000002070477047704700001D000A08DE
:1042DC005D000A0885000A0889000A080000000031
:1042EC0077726973742F626174742F61736B002C15
:1042FC000077726973742F626174742F73656E73B7
:10430C006F7273004661696C656420746F20626F14
:10431C006F7420666972737420564C36313830587D
:10432C00004661696C656420746F20626F6F742045
:10433C007365636F6E6420564C36313830580046C6
:10434C0061696C656420746F20626F6F742074688F
:10435C0069726420564C3631383058004661696CAD
:10436C00656420746F20626F6F7420666F75727451
:10437C006820564C3631383058004661696C65649B
:10438C0020746F20626F6F742066696674682056A3
:10439C004C3631383058004661696C656420746F56
:1043AC0020626F6F7420736978746820564C3631B4
:1043BC00383058004661696C656420746F20626FF8
:1043CC006F7420736576656E746820564C36313880
:1043DC003058004661696C656420746F20626F6FA1
:1043EC007420656967746820564C36313830580033
:1043FC004661696C656420746F20626F6F74206E07
:10440C00696E746820564C363138305800466169F4
:10441C006C656420746F20626F6F742074656E74A9
:10442C006820564C363138305800436F6E6E6563D9
:10443C0074696E6720746F204D51545420686F73EB
:10444C00742E2E2E0077726973742D7761746368E5
:10445C000053687574646F776E2070696E73206991
:10446C006E697465642E2E2E005374617274696EBD
:10447C00672E2E2E00526561647921007772697364
:10448C00742F646174612F73656E736F7273006D3A
:10449C007174742E65636C6970736570726F6A6584
:1044AC006374732E696F0000044D5154540400065C
:1044BC004D514973647003000000000000000000BF
:1044CC001F1A0A08691A0A08411A0A08211A0A0846
:1044DC00491A0A08511A0A08591A0A08611A0A08CC
:1044EC0000000000000000002D1B0A081D1B0A081C
:1044FC001F1B0A0861707000000000000000000023
:10450C001D1C0A08271C0A08311C0A083B1C0A0837
:10451C00451C0A08511C0A085D1C0A08651C0A087F
:10452C006D1C0A08791C0A08811C0A088B1C0A08D5
:10453C00951C0A08776972696E6700544350436C86
:10454C0069656E7420736F636B65743D257800002C
:10455C00000000000000000015210A083D210A0897
:10456C005F250A084B210A0819210A0800000000DF
:10457C0000000000000000000000000051210A08AB
:10458C0085210A08D1200A08EB200A0861230A08B1
:10459C00E7210A08B9210A0813210A0881220A080E
:1045AC0065250A081B220A08D5230A0883240A0851
:1045BC003B240A08FB200A0849240A0899210A0806
:1045CC0025592D256D2D25645425483A254D3A2520
:1045DC0053257A0061736374696D650000000000F7
:1045EC000000000059260A08C3260A089F260A085C
:1045FC00111D0A086F260A088B260A087D260A0850
:10460C0099260A085B260A0861260A0800000000A1
:10461C00000000004B270A08B1270A0889270A085E
:10462C00111D0A087B270A084D270A085D270A086E
:10463C00AB270A086D270A0845270A080000000066
:10464C000000000087290A087D290A0873290A0836
:10465C00E5280A0867290A085B290A085D1C0A086C
:10466C00651C0A084F290A0847290A083D290A0827
:10467C0033290A08EF280A0800537431395F537044
:10468C005F6D616B655F7368617265645F746167B0
:10469C0000000000E0460A0885460A0840470A0860
:1046AC00B4460A0864470A084E31305F5F63787875
:1046BC00616269763131375F5F636C6173735F740C
:1046CC007970655F696E666F450000000000000040
:1046DC00A8460A08D52D0A08E92D0A08812F0A08D0
:1046EC00812F0A08532E0A08952D0A083B2E0A081A
:1046FC00FD2D0A08C92D0A0840470A0810470A0868
:10470C00A8460A084E31305F5F637878616269763B
:10471C003132305F5F73695F636C6173735F74799F
:10472C0070655F696E666F45000000000000000058
:10473C0004470A087D2E0A08912E0A08812F0A08C0
:10474C00812F0A08532E0A08952D0A08552F0A089E
:10475C00E12E0A08A52E0A08E0460A086C470A084A
:10476C00537439747970655F696E666F0000000070
:10477C00B10A0A080D1C0A08FD1C0A08CD1D0A08FE
:10478C00AD200A0845260A0891290A08652D0A0851
:04479C000000000019
:0847A000C4F6FF7F01000000D8
:0447A800000000000D
:1047AC00040100201C0100202801002034010020FD
:1047BC00400100204C010020580100206401002021
:1047CC007001002010010020E0450A083000002094
:1047DC0000000000000000000000000000000000CD
:1047EC0000000000000000000000000000000000BD
:1047FC0000000000000000000000000000000000AD
:10480C00000000000000000000000000000000009C
:10481C00000000000000000000000000000000008C
:10482C00000000000000000000000000000000007C
:04483C00FD06002055
:10484000FFFFFFFF00000102030405060708090A35
:104850000B0C0D0E0F101112131415161718191A30
:084860001B1C1D1E1F20280077
:044868007856341238
:04000005080A001CC9
:00000001FF
