:02000004080AE8
:1000000000000A08702D0A0800000600060005011D
:080010000402FD0800000000DD
:040018008C270A081F
:10001C0009480A4908B5884205D0094A824202D0EB
:10002C00121A02F0F1FA0748074A0021121A02F0DC
:10003C00F9FA064808BD00BF00000020B42C0A08DD
:10004C009400002094000020ED060020ED06002016
:10005C0070B502F0C9F80025054E064CA41BA40887
:10006C00A54200D170BD56F8043B98470135F7E71F
:10007C00842C0A08A42C0A0800F0ECBB08B500F08C
:10008C007FFCBDE8084002F067B800F0D1BF00F07B
:10009C00CFBF00F0D5BF000000210C2008B5024AEC
:1000AC0000F022FFFEE700BFFD0B0A080078B0FA53
:1000BC0080F04009704701230370704742600022B2
:1000CC00027220220170C260704710B5037A044698
:1000DC0053B12178606801F047F8606801F04FF87F
:1000EC00B0FA80F0400910BD012100F003F800289F
:1000FC00EFD1F8E738B5044640680D4601F002F838
:10010C000120207225B12046BDE83840FFF7DDBF45
:10011C0038BD2DE9F8431F46DDE90896C36815463E
:10012C0032449A420446884602D90020BDE8F8833E
:10013C000178406801F018F87EB960682A460368B7
:10014C004146DB6898478542EFD13946606801F03B
:10015C0012F8B0FA80F04009E8E7B9F1000FECD0E2
:10016C006068324603684946DB689847B042DCD188
:10017C00E3E72DE9F041154604460E46D2B201786C
:10018C00406800F0DCFF85420DD100271FFA87F88C
:10019C00A84507F1010709D2606803685B699847B5
:1001AC0006F80800F2E70020BDE8F0810120FBE72B
:1001BC002DE9F84307468846164699460025B54270
:1001CC0012D2FA68741B944228BF1446331BAB42FC
:1001DC0094BF4B4600232246384608EB0501FFF737
:1001EC00C8FF10B12544EAE70120BDE8F8830022DE
:1001FC000172026070471FB50023CDE9003349BA84
:10020C000446ADF80C10012303A902220068FFF785
:10021C0080FF012320681A4603A9FFF7C9FF9DF848
:10022C000C0004B010BD4D2108B5FFF7E4FFC0F37E
:10023C00071008BD1FB50023CDE9003349BAADF84E
:10024C000C108DF80E200123032203A90068FFF780
:10025C0060FF05B05DF804FB38B504460D4601F0AF
:10026C007F0240F21221FFF7E5FF2068257210B1E2
:10027C00102102F0ABF81020FFF707FF054618B16C
:10028C006268217AFFF71AFF284625600121BDE834
:10029C003840FFF72FBF10B50446012240F207216A
:1002AC00FFF7C8FF204601224FF40271FFF7C2FF8F
:1002BC00204600229621FFF7BDFF2046FD22972104
:1002CC00FFF7B8FF20460022E321FFF7B3FF2046DB
:1002DC000422E421FFF7AEFF20460222E521FFF7BE
:1002EC00A9FF20460122E621FFF7A4FF20460322A6
:1002FC00E721FFF79FFF20460222F521FFF79AFF27
:10030C0020460522D921FFF795FF2046CE22DB217E
:10031C00FFF790FF20460322DC21FFF78BFF2046DE
:10032C00F822DD21FFF786FF204600229F21FFF7F0
:10033C0081FF20463C22A321FFF77CFF20460022B0
:10034C00B721FFF777FF20463C22BB21FFF772FF56
:10035C0020460922B221FFF76DFF20460922CA214F
:10036C00FFF768FF204601224FF4CC71FFF762FFC4
:10037C00204617224FF4D871FFF75CFF204600226D
:10038C0040F2AD11FFF756FF20460522FF21FFF783
:10039C0051FF204605224FF48071FFF74BFF20469A
:1003AC00052240F29911FFF745FF20461B224FF41E
:1003BC00D371FFF73FFF20463E224FF4D671FFF773
:1003CC0039FF20461F2240F2A711FFF733FF2046CA
:1003DC0000223021FFF72EFF204610221121FFF7BB
:1003EC0029FF204630224FF48571FFF723FF20466A
:1003FC0046223F21FFF71EFF2046FF223121FFF747
:10040C0019FF204663224121FFF714FF20460122E9
:10041C002E21FFF70FFF204609221B21FFF70AFFB1
:10042C00204631223E21FFF705FF2046BDE8104053
:10043C0024221421FFF7FEBE38B504464160006843
:10044C0010B1102101F0C2FF1020FFF71EFE05466F
:10045C0018B16268217AFFF731FE28462560012128
:10046C00FFF748FE054610B90025284638BD002187
:10047C002046FFF7C0FEB428F6D116212046FFF720
:10048C00BAFEC307F1D52046FFF705FF002216215F
:10049C002046FFF7CFFEE8E738B504464D2120464D
:1004AC00FFF7A9FEC207F9D5012218212046FFF754
:1004BC00C1FE4F212046FFF79EFE4307F9D562216E
:1004CC002046FFF798FE0546072220461521FFF728
:1004DC00B1FE284638BD10B5044603689B689847A2
:1004EC00A368013BA3602BB923682046BDE81040EC
:1004FC00DB68184710BD0EB403B503AB53F8042BDF
:10050C000021019300F082FF02B05DF804EB03B010
:10051C00704710B504460146022001F0F2FE214658
:10052C00032001F0EEFE2146042001F0EAFE2146F4
:10053C00052001F0E6FE2146062001F0E2FE2146F0
:10054C000A2001F0DEFE21460C2001F0DAFE2146E5
:10055C000F2001F0D6FE21460D2001F0D2FE2146DF
:10056C00BDE810400E2001F0CCBE000008B5002004
:10057C00FFF7CFFF0A2000F083FD0120FFF7C9FF32
:10058C000A2000F07DFD0121022001F0BAFE0021BD
:10059C00032001F0B6FE0021042001F0B2FE002180
:1005AC00052001F0AEFE0021062001F0AAFE00217C
:1005BC000A2001F0A6FE00210C2001F0A2FE002171
:1005CC000F2001F09EFE00210D2001F09AFE00216B
:1005DC000E2001F096FE01F0C7FE01467548FFF7AC
:1005EC002BFF28B901F0C4FC734900F0F0FEFEE7C4
:1005FC0030217048FFF730FE0A2000F041FD012148
:10060C00032001F07EFE0A2000F03AFD01F0ACFE62
:10061C0001466A48FFF710FF28B901F0A9FC6849A8
:10062C0000F0D5FEFEE731216448FFF715FE0121ED
:10063C00042001F066FE0A2000F022FD01F094FE79
:10064C0001466048FFF7F8FE28B901F091FC5E49BD
:10065C0000F0BDFEFEE732215A48FFF7FDFD0121F7
:10066C00052001F04EFE0A2000F00AFD01F07CFE90
:10067C0001465648FFF7E0FE28B901F079FC5449D1
:10068C0000F0A5FEFEE733215048FFF7E5FD012100
:10069C00062001F036FE0A2000F0F2FC01F064FEA8
:1006AC0001464C48FFF7C8FE28B901F061FC4A49E5
:1006BC0000F08DFEFEE734214648FFF7CDFD012109
:1006CC000A2001F01EFE0A2000F0DAFC01F04CFEBC
:1006DC0001464248FFF7B0FE28B901F049FC4049F9
:1006EC0000F075FEFEE735213C48FFF7B5FD012112
:1006FC000C2001F006FE0A2000F0C2FC01F034FED2
:10070C0001463848FFF798FE28B901F031FC36490C
:10071C0000F05DFEFEE737213248FFF79DFD012119
:10072C000F2001F0EEFD0A2000F0AAFC01F01CFEE7
:10073C0001462E48FFF780FE28B901F019FC2C4920
:10074C0000F045FEFEE738212848FFF785FD012122
:10075C000D2001F0D6FD0A2000F092FC01F004FE01
:10076C0001462448FFF768FE28B901F001FC224934
:10077C0000F02DFEFEE739211E48FFF76DFD01212B
:10078C000E2001F0BEFD0A2000F07AFC01F0ECFD19
:10079C0001461A48FFF750FE28B901F0E9FB184949
:1007AC0000F015FEFEE73A21BDE808401348FFF7BC
:1007BC0053BD00BFBC000020A0270A08D4000020B5
:1007CC00BD270A08E0000020DB270A08EC00002007
:1007DC00F8270A08F800002016280A08040100204F
:1007EC0033280A081001002050280A081C01002098
:1007FC006F280A08280100208C280A08C80000204D
:10080C00A9280A0870B50F4C0F4E237856F8230010
:10081C00FFF742FE2378054656F82300FFF703FD49
:10082C0023780A4AD0540A4A1A4440B955700A210E
:10083C000133B3FBF1F201FB1233237070BDFF21C6
:10084C005170F4E73801002000000020390100202D
:10085C00B000002010B58AB001F08AFB4FF4E131F2
:10086C0001F066FB01F084FB01F069FB18B9012073
:10087C0000F006FCF6E701F07BFB334900F09DFD30
:10088C00324801F0ABF901F073FB0022304B1146FA
:10089C000446586800F064FB811C04A800F0A2FC1C
:1008AC0004A9684600F05CFE009A2A492046FFF72E
:1008BC0022FE684600F0F9FD0121022001F010FD36
:1008CC000121032001F00CFD0121042001F008FDA1
:1008DC000121052001F004FD0121062001F000FD9D
:1008EC0001210A2001F0FCFC01210C2001F0F8FC94
:1008FC0001210F2001F0F4FC01210D2001F0F0FC8E
:10090C0001210E2001F0ECFC01F032FB124900F049
:10091C0054FD0020FFF7FDFD01F02AFB0F4900F00C
:10092C004CFDFFF723FE0E4800F0C8F80C4800F011
:10093C00ECF814210A4800F025F901F019FB0949DB
:10094C0000F03BFD0AB010BDC6280A084401002087
:10095C0000060020E2280A08F0280A0808290A08DC
:10096C007401002014290A0810B50446006828B147
:10097C004368013B43600BB9FFF7ADFD204610BD4A
:10098C0070B588B0FFF73EFF00F03AF91F4C0546F2
:10099C00204600F0EAFF98B11D4B1B78092B0DD1B6
:1009AC001C4E1D4C33682046EB1A237001F078FE68
:1009BC0021460246194801F097F8356008B070BD21
:1009CC00164901A801F07AF9029B079D6360039B0D
:1009DC00A360049BE360059B2361069B6361A36991
:1009EC009D420CD015B16B6801336B60A06928B1C6
:1009FC004368013B43600BB9FFF76DFDA561084BE4
:100A0C0007A80193FFF7B0FFD8E700BF94000020C0
:100A1C003801002034010020B000002044010020E7
:100A2C00F8290A0808B529211848FFF7E0FB292105
:100A3C001748FFF7DCFB29211648FFF7D8FB2921C3
:100A4C001548FFF7D4FB29211448FFF7D0FB2921C7
:100A5C001348FFF7CCFB29211248FFF7C8FB2921CB
:100A6C001148FFF7C4FB29211048FFF7C0FB2921CF
:100A7C000F48FFF7BCFB002217210E4801F072F85B
:100A8C00BDE808400C4800F0C9BF00BFBC00002006
:100A9C00D4000020E0000020EC000020F800002032
:100AAC0004010020100100201C010020280100205E
:100ABC00C8000020440100209400002008B501F07B
:100ACC0053FC00F01FFB012008BD38B515460C4641
:100ADC0001F04AFC362100F04BFB01F045FC0368A9
:100AEC0029469B68984701F03FFC0368210A9B68E4
:100AFC00984701F039FC0368E1B29B68984701F014
:100B0C0033FCBDE8384000F03ABB06224FF480417C
:100B1C00FFF7DBBF10B50C4601F026FC362100F0C8
:100B2C0027FB01F021FC036821469B68984701F0E4
:100B3C001BFC002100F01FFB01F016FC02223621E9
:100B4C0000F00FFB40F2E93401F00EFC03681B6966
:100B5C009847012806DC013CA4B21CB1012000F02E
:100B6C008FFAF1E701F000FC03685B6998470446D3
:100B7C0001F0FAFB03685B699847C3B243EA0420AF
:100B8C0080B210BD2029A8BF202138B50C460C21FD
:100B9C000546FFF7BFFFC4F1200420F01F01E4B2AB
:100BAC0089B2284621430C22BDE83840FFF78DBF9F
:100BBC0008B5024B1B68DB69019308BDD001060820
:100BCC0008B5024B1B685B6C019308BDD00106088D
:100BDC0008B5024B1B689B6C019308BDD00106083D
:100BEC0008B5024B1B685B68019308BD9C010608A5
:100BFC0008B5024B1B68DB68019308BD9C01060815
:100C0C0008B5024B1B685B69019308BD9C01060883
:100C1C0008B5024B1B689B68019308BDB001060820
:100C2C0008B5024B1B68DB68019308BDB0010608D0
:100C3C0008B5024B1B681B69019308BDB00106087F
:100C4C0008B5024B1B68DB6C019308BDAC010608B0
:100C5C0008B5024B1B689B6D019308BDAC010608DF
:100C6C0008B5024B1B68DB6D019308BDAC0106088F
:100C7C0008B5024B1B681B6E019308BDAC0106083E
:100C8C0008B5024B1B685B6E019308BDAC010608EE
:100C9C0008B5024B1B689B6E019308BDAC0106089E
:100CAC0008B5024B1B68DB6E019308BDAC0106084E
:100CBC0008B5024B1B681B6F019308BDAC010608FD
:100CCC0008B5024B1B685B6F019308BDAC010608AD
:100CDC0008B5034B1B68D3F88030019308BD0000A6
:100CEC00AC01060808B5034B1B68D3F89030019390
:100CFC0008BD0000AC01060808B5024B1B681B6858
:100D0C00019308BDBC01060808B5024B1B685B6863
:100D1C00019308BDBC01060808B5024B1B689B6813
:100D2C00019308BDBC01060808B5024B1B68DB68C3
:100D3C00019308BDBC01060808B5024B1B681B6972
:100D4C00019308BDBC01060808B5024B1B681B6A61
:100D5C00019308BDBC01060808B5024B1B689B6AD1
:100D6C00019308BDBC01060808B5024B1B68DB6A81
:100D7C00019308BDBC01060808B5024B1B681B6B30
:100D8C00019308BDBC01060808B5024B1B68DB6B60
:100D9C00019308BDBC01060808B5024B1B685B6CCF
:100DAC00019308BDBC01060808B5024B1B68DB6942
:100DBC00019308BDB401060808B5024B1B681B6AF9
:100DCC00019308BDB401060808B5024B1B689B696A
:100DDC00019308BDC401060808B5024B1B685B6A89
:100DEC00019308BDC401060808B5024B1B689B6A39
:100DFC00019308BDC401060808B5024B1B68DB6AE9
:100E0C00019308BDC401060808B5024B1B681B6B97
:100E1C00019308BDC401060808B5024B1B685B6B47
:100E2C00019308BDC401060808B5024B1B689B6BF7
:100E3C00019308BDC401060808B5024B1B681B6C66
:100E4C00019308BDC401060808B5024B1B681B685A
:100E5C00019308BDD801060808B5024B1B685B68F6
:100E6C00019308BDD801060808B5024B1B681B6925
:100E7C00019308BDD801060808B5024B1B685B69D5
:100E8C00019308BDD801060808B5024B1B689B6985
:100E9C00019308BDD801060808B5024B1B68DB6935
:100EAC00019308BDD801060808B5024B1B681B6AE4
:100EBC00019308BDD801060808B5024B1B685B6A94
:100ECC00019308BDD801060808B5024B1B685B6C82
:100EDC00019308BDC001060808B5024B1B689B6C4A
:100EEC00019308BDC001060808B5024B1B685B6B7B
:100EFC00019308BDA801020808B5024B1B681B6DC5
:100F0C00019308BDA801020808B5024B1B685B6879
:100F1C00019308BDA401060808B5024B1B685B6968
:100F2C00019308BDA401060808B5034B1B68D3F850
:100F3C009030019308BD0000A401060808B5034BCE
:100F4C001B68D3F89C30019308BD0000A40106086F
:100F5C0008B5024B1B68DB6B019308BDCC0106087E
:100F6C0008B5024B1B681B68019308BDC801060835
:100F7C0008B5024B1B685B68019308BDC8010608E5
:100F8C0008B5024B1B689B68019308BDC801060895
:100F9C0008B5024B1B68DB68019308BDC801060845
:100FAC0008B5024B1B681B69019308BDC8010608F4
:100FBC0008B5024B1B685B69019308BDC8010608A4
:100FCC0008B5024B1B689B69019308BDC801060854
:100FDC0008B5024B1B68DB69019308BDC801060804
:100FEC0008B5024B1B681B6A019308BDC8010608B3
:100FFC0008B5024B1B681B6B019308BDC8010608A2
:10100C0008B5024B1B685B6B019308BDC801060851
:10101C0008B5024B1B681B6C019308BDC801060880
:10102C0008B5024B1B685B6C019308BDC801060830
:10103C0008B5024B1B681B68019308BDA00106088C
:10104C0008B5024B1B685B68019308BDA00106083C
:10105C0008B5024B1B689B68019308BDA0010608EC
:10106C0008B5024B1B685B6A019308BDA00106081A
:10107C0008B5024B1B685B6C019308BDA001060808
:10108C000021FFF749BF7047F8B5064615460C46D8
:10109C008F18BC4206D0336830469B6814F8011B8D
:1010AC009847F6E72846F8BD0022007CFFF7E0BD24
:1010BC000021007CFFF7E4BD0021007CFFF7E8BDB8
:1010CC000021007CFFF7ECBD0021007CFFF7F0BD98
:1010DC0010B50446142101F079F9204610BD00002A
:1010EC0010B54FF47A73044608460021C4E9011385
:1010FC00034B114623602074FFF7EAFD204610BD18
:10110C0024290A080023007C1A461946FFF798BDCB
:10111C007FB500221423CDE90122ADF804300B7801
:10112C00007C8DF808304B680393CB6804930B7AE2
:10113C0001A90593FFF7D6FD07B05DF804FB1FB5B9
:10114C00003B8DF800104FF0640118BF0123039190
:10115C00694601928DF80830FFF7DAFF05B05DF8AB
:10116C0004FB0123FFF7EBBF0022007CFFF770BDEF
:10117C00C9B2FFF7F9BF0022007CFFF771BD012156
:10118C00FFF7F9BF704710B50446182101F01EF99E
:10119C00204610BDF8B50E46002400F10807051DC9
:1011AC0017F8011D0A22304600F013F9AF4204442F
:1011BC0001D12046F8BD002CF2D02E21304600F093
:1011CC00EDF80444ECE7000010B50446044B112282
:1011DC00002140F8043B01F025FA204610BD00BF69
:1011EC004C290A080346074A10B543F8042B01F1B1
:1011FC00100251F8044B914243F8044BF9D10A7890
:10120C001A7010BD4C290A08024AC0E900210422B8
:10121C00027570474C290A0810B59DF8084044EA3D
:10122C000324042344EA024444EA01644460037541
:10123C0010BD000037B5044D05609DF818500095A1
:10124C00FFF7EAFF03B030BD4C290A08014B024AF4
:10125C001A6070477801002058290A08002340685A
:10126C001A46FFF785BE002202214068FFF790BEA8
:10127C00002240681146FFF783BE002240681146E9
:10128C00FFF78EBE002340681A461946FFF790BE42
:10129C00002340681A461946FFF792BE00214068A9
:1012AC00FFF7B6BE00214068FFF7BABE00224068C7
:1012BC0081F00101FFF78CBE00224068FFF798BE59
:1012CC00002240681146FFF79BBE00224068114681
:1012DC00FFF786BE70B515468EB0044608A8FFF71A
:1012EC0073FF1122002103A801F09CF90026284667
:1012FC0001F0D6F90A4B009681B25B68284603AA26
:10130C00FFF7EAFD30B131462046FFF77DFF20465E
:10131C000EB070BD204603A9FFF764FFF7E700BFCE
:10132C0000060020034A044B042814BF104618463C
:10133C00704700BF7C01002000060020024B034ACE
:10134C001A6000225A6070477C01002064290A0848
:10135C00F8B506460D4600248F18BD420CD03368F4
:10136C0030469B6815F8011B9847031E01DB1C4493
:10137C00F3E7002C08BF1C462046F8BD70B50546A7
:10138C000C46084649B101F08BF92B680246214600
:10139C002846BDE87040DB68184770BD03689B6841
:1013AC00184738B50D210546FFF7F8FF0A2104460A
:1013BC002846FFF7F3FF204438BD38B50546FFF744
:1013CC00DDFF04462846FFF7ECFF204438BDFFF74D
:1013DC00F4BF0023012A98BF0A2230B58BB00C460B
:1013EC008DF8243009A92546B4FBF2F404FB125302
:1013FC00DBB2092B94BF30333733DBB2AA4201F88E
:10140C00013DF0D9FFF7BAFF0BB030BD2DE9F0412B
:10141C0086B000AF05460E46381D142114463B60BD
:10142C00FFF71EFE13280ED82846391DFFF7A6FF1E
:10143C0004461EB12846FFF7B4FF04442046183773
:10144C00BD46BDE8F08100F1080323F00703E84630
:10145C00ADEB030D2246411C3B686846FFF700FECE
:10146C0069462846FFF78AFF0446C546E1E70000B7
:10147C000022014B9A6070478401002070B5002651
:10148C0004460D4640F8086FFFF79AFB2846257076
:10149C00FFF78AFC2046666070BD704710B50446A5
:1014AC000C2100F093FF204610BD10B504460068D7
:1014BC00FFF7C6FD204610BD38B504460D46006842
:1014CC000131FFF7C5FD10B1C4E90005012038BD9D
:1014DC0010B50368044623B143688B4201D3012045
:1014EC0010BD2046FFF7E8FF0028F9D0A368002BB9
:1014FC00F5D122681370F2E770B505460E4609B9AE
:10150C00002070BD6AB1846814442146FFF7E0FFE7
:10151C000028F5D02868AB683146184401F0B8F8BB
:10152C00AC600120EDE738B5044680688568FFF7AC
:10153C00E3FFA3689868401B38BD002307B5012260
:10154C008DF8041001A98DF80530FFF7D5FF03B015
:10155C005DF804FB08B58068FFF7EFFF08BD0000DD
:10156C00002330B50D46044685B00293C0E9003324
:10157C0083600373064B142101930390FFF7A8FFBC
:10158C002B6828461B6801A99847204605B030BD3A
:10159C00A0290A0802220020044B1A60044B054AB9
:1015AC001860988098719A60FFF7AEBCA00100207B
:1015BC00940100200000FFFF13B503688DF807109D
:1015CC00DC6B012247F230530DF10701A04702B04A
:1015DC0010BD10B40368DC6B47F23053A44610BC4A
:1015EC00604713B5134602688DF80710D46B0DF1E4
:1015FC0007010122A04702B010BD704770470000E0
:10160C0010B50446064B0846994204F10C0404D06C
:10161C0000F0E0FE002808BF0024204610BD00BFEB
:10162C00E8290A0810B50446AC2100F0CFFE20468C
:10163C0010BDFEF72EBD000038B50B4B8469054676
:10164C0003607CB16368013B63605BB9236820462F
:10165C009B689847A368013BA3601BB9236820468D
:10166C00DB689847284638BDF8290A0810B50446A7
:10167C00FFF7E2FF20461C2100F0A8FE204610BD1B
:10168C0070B5044606464D69044B8C3544F8043B52
:10169C000FCD0FC42B683046237070BD4C290A083F
:1016AC0010B543690446B3F88620B3F884309A42E7
:1016BC0005D06369B3F884201344187910BD03680E
:1016CC001B6998470028F4D14FF0FF30F6E710B5AE
:1016DC0043690446B3F88620B3F884309A4208D0A4
:1016EC006369B3F88420511CA3F88410134418794F
:1016FC0010BD03681B6998470028F1D14FF0FF30EB
:10170C00F6E7F8B543691746B3F88620B3F884308A
:10171C0005469A420E4616D069693046B1F88430B7
:10172C00B1F88640E41ABC4228BF3C46043322463A
:10173C00194400F069FF6A69B2F884302344A2F8B6
:10174C0084302046F8BD03681B6998470028E3D114
:10175C004FF0FF34F5E700234269A2F88430426968
:10176C00A2F88630704700002DE9F0431F4603684D
:10177C008BB0DB6A05460C46164698473846FFF791
:10178C00D1FD0368DB689847002854D03346062205
:10179C00012102200097D5F81480FFF7BDFA202311
:1017AC00C8F800004FF00008CDE902386B69012041
:1017BC001B6823490193234B02AA00934346FFF76E
:1017CC009BFB6B691868FFF79FFA002833D02846FB
:1017DC00FFF7C1FF0223ADF80830E37976BA8DF834
:1017EC000C30A3794FF4FA508DF80D306379ADF8C5
:1017FC000A608DF80E3014F8043F8DF80F30FFF7A7
:10180C0063FB6B6906461022186802A9FFF78CFA75
:10181C0081463046FFF758FB0FCC6E698C360FC6ED
:10182C00236833702F61B9F1000F07D02B6828465D
:10183C00DB6A984740460BB0BDE8F0830120FAE71D
:10184C00B0290A08B7290A0838B542690446B2F823
:10185C0086302BB1B2F884209A4201D1FFF77BFF7E
:10186C002069FFF75FFD0368DB689847F8B163698F
:10187C001868FFF749FAD0B16069B0F886107F2973
:10188C0015D8051DC1F18002002300682944FFF71B
:10189C0053FA00280BDD6369B3F886200AB9A3F864
:1018AC0084206369B3F886201044A3F8860063692A
:1018BC00B3F88600B3F88430C01A38BD38B5436924
:1018CC0004461868FFF720FA18B163691868FFF727
:1018DC003BFA6569FFF750FA286060691122002114
:1018EC008C3000F09FFE2046BDE83840FFF733BF38
:1018FC0010B5436904461868FFF706FA08B90020CA
:10190C0010BD2069FFF70EFD0368DB6898470028BF
:10191C00F5D063691868FFF7EFF9B0FA80F0400969
:10192C00EEE708B5FFF7E4FF003818BF012008BD4B
:10193C002DE9F3410027476004460D4616469846AC
:10194C00FFF7D6FF70B1CDE9008760693B463246A0
:10195C0029460068FFF720FA002800DA606002B020
:10196C00BDE8F0814FF0FF30F8E770B50546FFF7A2
:10197C00BFFFE8B96B69B3F88610B3F884209142C5
:10198C0016D11868FFF7C0F908B9002070BD6B6953
:10199C001868FFF7B1F901280446F6D12B682846E0
:1019AC001B69984730B92B682846DB6A9847ECE7E7
:1019BC000120EBE72046E9E7002310B5044601605F
:1019CC00C0F884308830FFF7FFFB204610BD0000C4
:1019DC00F8B54FF47A720023C0E901320D4A036165
:1019EC00026043610446AC200E46FEF74EFB051E1A
:1019FC0005F10C0708D00123C5E90133064B31462C
:101A0C0038462B60FFF7D8FF2046C4E90575FFF771
:101A1C00A2FEF8BDF8290A08D4290A0810B5044614
:101A2C00FFF7AAF901462046FFF7D2FF204610BD6A
:101A3C0010B504460068FFF767F910B12068FFF78E
:101A4C0083F9204610BD0C30FFF7F2BF2DE9F043AF
:101A5C001F4603688FB0DB6A06460D4690469847D2
:101A6C001348FFF70AFCF0B102A8FFF7ADFB2846BC
:101A7C0000F016FE002481B23B462846009403AACF
:101A8C00FFF72AFA90B9336809ADD3F82090094BC7
:101A9C0003AC08930FCC0FC5236842462B7030461D
:101AAC003B4608A9C8470FB0BDE8F0832046FAE7CB
:101ABC007C0100204C290A0813B5134602688DF8E6
:101ACC00071094690DF107010122A04702B010BD67
:101ADC0007B503688DF807100122DB680DF10701CB
:101AEC00984703B05DF804FB10B403689C6947F297
:101AFC003053A44610BC604710B504460020A061CA
:101B0C0004F11400FFF714FFA369636010BD70B5F6
:101B1C0016260D46044686B032460021684600F073
:101B2C0081FD6B69ADF80060002269461868FFF70B
:101B3C002BF920460DF10201FFF754FB204606B0AD
:101B4C0070BD10B5044603689B689847A368013BB9
:101B5C00A3602BB923682046BDE81040DB6818470A
:101B6C0010BD0000F8B50025144BC2600360018164
:101B7C0045600446FFF700F92061FFF7FDF80146C8
:101B8C0004F11400FFF724FF294628460C4DFFF7FB
:101B9C000FF82A685AB9FFF7EFF807461C20FEF732
:101BAC0074FA064610B13946FFF712FF2E60002179
:101BBC000120FEF7FDFF2046F8BD00BFB82A0A0839
:101BCC00A401002010B504461430FFF777FE2069FD
:101BDC00FFF7BAF8FFF7D0F8206110BDF8B504464E
:101BEC00FFF7F0FFE068FFF79DFB0368DB689847A1
:101BFC00054668B12069FFF787F848B9E168208984
:101C0C00FFF7AAF80746FFF77FF8064610B12761E1
:101C1C002846F8BD2046FFF7D5FF3546F8E738B51E
:101C2C004B68044643608B688360CB68C3600B6968
:101C3C0003614B6943618D6983699D420CD015B179
:101C4C006B6801336B60A06928B14368013B43604A
:101C5C000BB9FFF776FFA561204638BD4B68436092
:101C6C00094B03608B688360CB68C3600B690361AD
:101C7C00064B03604B6943618B69836113B15A68EE
:101C8C0001325A60704700BF442A0A08F8290A0832
:101C9C0010B50446034B40F8183BFEF765FE204692
:101CAC0010BD00BFF8290A0810B50446FFF7F0FF75
:101CBC0020461C2100F08AFB204610BDF0B50C46D6
:101CCC008FB00646FFF758F823690546834203D1C7
:101CDC00236820461B699847E068FFF723FB0368DD
:101CEC0004F11407DB68984708B32069A8421ED09A
:101CFC00FFF73AF80446FFF707F8D8B1214607A8D2
:101D0C00FFF766FE0C9C114B07A901A802AD8C34A1
:101D1C000793FFF7FCFE0FCD0FC42B6838462370DA
:101D2C0007A9FFF77CFF07A8FFF7B2FF07E02046E3
:101D3C00FFF748FF064B38461968FFF770FF394626
:101D4C003046FFF78BFF30460FB0F0BD6C2A0A0807
:101D5C00A401002010B50446054B0360FFF732FFC9
:101D6C00044B04F12C006361FEF7FEFD204610BD10
:101D7C00B82A0A08F8290A0810B50446FFF7EAFF42
:101D8C002046302100F022FB204610BD024B1A6881
:101D9C00024B1A60704700BF28000020A8010020E9
:101DAC00704741747047704708B5007CFFF744F8E2
:101DBC0020EAE07008BD08B5007CFFF715F820EAB2
:101DCC00E07008BD08B5007CFFF71EF840EAE07033
:101DDC0008BD08B5007CFFF70FF840EAE07008BDBD
:101DEC00007CFFF719B870B5467C04460D462EB141
:101DFC002946207CBDE87040FEF7EEBF007CFFF763
:101E0C001BF80028F4DC304670BD10B504461421D4
:101E1C0000F0DCFA204610BD4FF0000C10B5044663
:101E2C00084611464FF47A72C4E901C2044A207480
:101E3C002260012262741A46FEF7C6FF204610BDCE
:101E4C00F82A0A0838B50C4D2978BFF35B8F11F0CE
:101E5C0001040FD12846FEF729F958B12146074B4A
:101E6C00074A0848FFF7D8FF2846FEF724F906482A
:101E7C0000F0C4FB034838BDAC0100203402002044
:101E8C00B0010020B8020020B31D0A08417470474D
:101E9C007047704708B50021007CFEF7F5FF40EA5B
:101EAC00E07008BD08B50121007CFEF7EDFF40EAAB
:101EBC00E07008BD08B5007CFEF7DEFF20EAE0709C
:101ECC0008BD08B5007CFEF7CFFF20EAE07008BD26
:101EDC0038B50446007C0D46FEF7CEFF002801DC29
:101EEC00607C28B12946207CFEF7D6FF20EAE07002
:101EFC0038BD007CFEF7D8BF10B50446142100F0A5
:101F0C0065FA204610BD704710B54FF47A7304463D
:101F1C0008460021C4E90113044B207423600123FB
:101F2C0011466374FEF790FF204610BD282B0A085B
:101F3C000022007CFEF790BF007CFEF7BDBFFFF7D0
:101F4C00FBBF000010B504461422002100F06AFB10
:101F5C00054B20466360054BE36040F2011323817F
:101F6C008123238210BD00BFFC020020FD03002052
:101F7C0030B50E4D87B001A8FFF7E4FF2978BFF309
:101F8C005B8F11F001040ED12846FEF78FF850B18B
:101F9C00214601AA0648FFF7B7FF2846FEF78BF843
:101FAC00044800F02BFB024807B030BDCC020020E7
:101FBC00D40200209D1E0A0810B5044614220021EC
:101FCC0000F030FB054B20466360054BE36040F2AC
:101FDC00011323818123238210BD00BF7E040020C6
:101FEC007F05002010B50E4C86B001A8FFF7E4FF6A
:101FFC002378BFF35B8FDB070ED42046FEF756F831
:10200C0050B1012101AA0748FFF77EFF2046FEF7D9
:10201C0052F8054800F0F2FA024806B010BD00BFB5
:10202C00D0020020E8020020131F0A08002240689A
:10203C001146FEF7B5BFF0B5154689B011220E4614
:10204C000446002103A800F0EDFA284600F028FB16
:10205C00002781B273682846009703AAFEF73CFF5D
:10206C0030B139462046FFF7CFF8204609B0F0BD15
:10207C00204603A9FFF7B6F8F7E70022406811469F
:10208C00FEF7AEBF002240681146FEF7B9BF002232
:10209C004068FEF7ADBF0022406881F00101FEF7F9
:1020AC0097BF002340681A461946FEF789BF0023E4
:1020BC0040681A461946FEF77BBF0022406811465D
:1020CC00FEF75EBF002202214068FEF761BF0023CD
:1020DC0040681A46FEF74CBF0422024B5A60024A73
:1020EC001A60704700060020582B0A08014B186034
:1020FC00704700BF2C00002008B5134B43B1FFF70D
:10210C0037FF03681B699847002801DDAFF3008097
:10211C000E4B43B1FFF796FE03681B6998470028E6
:10212C0001DDAFF300800A4B0BB1AFF30080094B1C
:10213C0043B1FFF757FF03681B699847002801DD7F
:10214C00AFF3008008BD00BF0000000000000000DD
:10215C00000000000000000008B5FFF7CDFFFEF7FF
:10216C004FFD014B186008BD200600200548064AAB
:10217C0008B5121A054900F047FA054B054A1A60D2
:10218C0008BD00BF0040024004400240B02C0A08C9
:10219C00004002401E1C279A002307B51A466FF018
:1021AC0077010093FEF7CAFE03B05DF804FB000054
:1021BC0007B543880A2B08D0502B0BD1094B1B6851
:1021CC004BB103B05DF804EB1847FFF7E5FF03B024
:1021DC005DF804FB00231A466FF077010093FEF7BD
:1021EC00ADFEF4E70C060020002110B51148FEF7F7
:1021FC003FFF114B1A68114B9A420CBF012200226F
:10220C000F4B1A7001D0FFF7B1FFFEF7E9FC044643
:10221C0000F010FA0B4B13B12046AFF300800021F5
:10222C000848FEF795FEBDE8104000210648FEF771
:10223C007BBE00BFF9200A08004002401E1C279AF2
:10224C000806002000000000BD210A08024B986817
:10225C0008B1FEF7BDBC704714060020172870B5F6
:10226C00044601D9002070BDA0F10D03022B0BD93F
:10227C00012824D800F078F80021007CFEF720FD1E
:10228C0080F00100C0B2EEE7124E3178BFF35B8FE5
:10229C0011F001050DD13046FDF708FF48B1294674
:1022AC000D48FFF7EBF83046FDF705FF0B4800F043
:1022BC00A5F9094B1878FEF77FFD0028D2D1123C06
:1022CC00012C05D8FFF7BEFD007CFEF7ADFDD7E76E
:1022DC000120C8E7100600201406002059220A0825
:1022EC00172838B504460D460AD8FF2908D0FFF741
:1022FC00B5FF28B129462046BDE83840FEF788BC1A
:10230C0038BD38B504460D46FEF78AFCFF2810D0C0
:10231C00062804D84D2323FA00F0C30709D420461D
:10232C00FFF79CFF28B129462046BDE83840FEF750
:10233C007FBC38BD70470000002370B5202543805A
:10234C001423084E044603803146856005612846F7
:10235C0000F03EF831466060284600F039F8E06045
:10236C00204670BD8C2B0A0830B50E4D87B02978ED
:10237C00BFF35B8F11F0010411D12846FDF796FED7
:10238C0068B101A8FFF7D8FF214601AA0648FEF75D
:10239C00A7FE2846FDF78FFE044800F02FF90248EF
:1023AC0007B030BD240600202806002041230A086F
:1023BC00002307B51A46194600930348FEF73AFF67
:1023CC0003B05DF804FB00BF3C060020FDF761BEC6
:1023DC00FDF75DBE014900F0FBB800BFA82B0A0851
:1023EC007FB500241023CDE90234036815469E699D
:1023FC0012686B4600948DF80440B0479DF8043089
:10240C0003F00603062B09BF01202046009B2B601E
:10241C0004B070BD0098904214BF01200620704794
:10242C0010B50446024B036000F0CFF8204610BDF7
:10243C00E82B0A0810B50446FFF7F2FF20460821E6
:10244C00FFF7C4FF204610BD2DE9F041DDF81880E0
:10245C001F46DDE9083498450646154607D107990D
:10246C0000F0B6F818B165710020BDE8F08139466E
:10247C00304600F0ADF80028F6D00123C4F80080F7
:10248C002571A371F0E738B515461C4600F0A0F88D
:10249C0020B10823E36006232560237138BD2DE9A4
:1024AC00F04105460C4616461F4600F091F848B917
:1024BC00032F07D82368324629462046BDE8F04151
:1024CC005B691847BDE8F08110B50446024B036008
:1024DC00FFF7A6FF204610BD482C0A0810B504468D
:1024EC00FFF7F2FF20460C21FFF770FF204610BDCE
:1024FC002DE9F041DDF81880064690450F4615464B
:10250C001C460BD0B0682A460368CDF818801E6AAA
:10251C0039462346B446BDE8F0416047194600F001
:10252C0057F80028EED00620BDE8F0812DE9F14FD8
:10253C000D46DDE90A4BDDE90CA619468146174626
:10254C00984600F045F890B1002D3460377109DBE6
:10255C002C44A2450CBF06240124B471002001B008
:10256C00BDE8F08F0235F9D10123B371F6E754457C
:10257C0006D15946484600F02BF808B17771EDE7C3
:10258C00D9F808003A460368CDE90CA6CDE90A4B08
:10259C00DC6929464346A44601B0BDE8F04F6047CC
:1025AC002DE9F04107460C4615461E46FFF76BFF1A
:1025BC0048B9B8682A46036821469F693346BC4629
:1025CC00BDE8F0416047BDE8F081704700207047DE
:1025DC00814208B50ED0406803782A2B0CD049688C
:1025EC000B782A2B08BF013100F048F8B0FA80F0C4
:1025FC00400908BD0120FCE70020FAE70023014652
:10260C001A46184600F054B80A44914200F1FF33C0
:10261C0000D1704710B511F8014B914203F8014FEE
:10262C00F9D110BD03460244934200D1704703F820
:10263C00011BF9E738B50D4B04461D68AB6B7BB934
:10264C001820FEF7F5FC0A4A0A4BA863C0E90023E0
:10265C00094B012283600B2383810023C0E90423EF
:10266C000022AB6B1C615A6138BD00BF2C000020EE
:10267C000E33CDAB34126DE6ECDE050010F8012BF9
:10268C0011F8013B012A28BF9A42F7D0D01A7047A3
:10269C00034611F8012B03F8012B002AF9D17047DE
:1026AC00034613F8012B002AFBD1181A0138704786
:1026BC002DE9F843DFF8BC800646D8F800001F4629
:1026CC000D46914600F058F8264B1C6834B9264C40
:1026DC001C60264B13B11B68C4F8883063681F2B31
:1026EC0007DDD8F8000000F049F84FF0FF30BDE8E6
:1026FC00F8835EB3D4F8880088B91D4B23B9D8F899
:10270C00000000F03AF8F0E74FF48470FEF790FC0C
:10271C000028F4D00023C0E94033C4F8880001221B
:10272C006368022E40F8239002FA03F200EB830157
:10273C00D0F8003143EA0203C0F80031C1F88070D0
:10274C0002BFD0F804311A43C0F804216368D8F8EA
:10275C0000005A1C0233626044F8235000F00EF85B
:10276C000020C4E7E0060020540600200000000012
:10277C003D100A0890000020704770477047000019
:10278C001D000A085D000A0885000A0889000A086D
:10279C00000000004661696C656420746F20626FF4
:1027AC006F7420666972737420564C363138305809
:1027BC00004661696C656420746F20626F6F7420D1
:1027CC007365636F6E6420564C3631383058004652
:1027DC0061696C656420746F20626F6F742074681B
:1027EC0069726420564C3631383058004661696C39
:1027FC00656420746F20626F6F7420666F757274DD
:10280C006820564C3631383058004661696C656426
:10281C0020746F20626F6F7420666966746820562E
:10282C004C3631383058004661696C656420746FE1
:10283C0020626F6F7420736978746820564C36313F
:10284C00383058004661696C656420746F20626F83
:10285C006F7420736576656E746820564C3631380B
:10286C003058004661696C656420746F20626F6F2C
:10287C007420656967746820564C363138305800BE
:10288C004661696C656420746F20626F6F74206E92
:10289C00696E746820564C36313830580046616980
:1028AC006C656420746F20626F6F742074656E7435
:1028BC006820564C3631383058004C697374656E4C
:1028CC00696E6720746F2054435020636C69656E89
:1028DC0074732E2E2E006C6F63616C4950203D205A
:1028EC0025730A0053687574646F776E2070696E77
:1028FC007320696E697465642E2E2E005374617298
:10290C0074696E672E2E2E00526561647921000069
:10291C00000000000000000093100A08DD100A08F7
:10292C00B5100A0895100A08BD100A08C5100A0847
:10293C00CD100A08D5100A080000000000000000A5
:10294C00A1110A0891110A0893110A08617070000C
:10295C00000000000000000069120A0873120A0847
:10296C007D120A0887120A0891120A089D120A0899
:10297C00A9120A08B1120A08B9120A08C5120A08E3
:10298C00CD120A08D7120A08E1120A08000000004A
:10299C0000000000A7140A08A9140A0861150A0807
:1029AC0033150A08776972696E6700544350436C9B
:1029BC0069656E7420736F636B65743D25780000D8
:1029CC00000000000000000009160A0831160A0871
:1029DC00531A0A083F160A080D160A0800000000D0
:1029EC0000000000000000000000000045160A086E
:1029FC0079160A08C5150A08DF150A0855180A08B9
:102A0C00DB160A08AD160A0807160A0875170A0815
:102A1C00591A0A080F170A08C9180A0877190A0858
:102A2C002F190A08EF150A083D190A088D160A080D
:102A3C00000000000000000000000000000000008A
:102A4C00A5000A085D130A08A5000A08A5000A08D3
:102A5C00A5000A08A5000A080000000000000000FC
:102A6C009D1C0A08B51C0A08C5150A08DF150A08BA
:102A7C0055180A08DB160A08AD160A0807160A08C4
:102A8C0075170A08591A0A080F170A08C9180A08EC
:102A9C0077190A082F190A08EF150A083D190A08B0
:102AAC001B1B0A080000000000000000611D0A0842
:102ABC00851D0A08DD1A0A08F51A0A08E91B0A0816
:102ACC00C51A0A08051B0A0825592D256D2D2564E4
:102ADC005425483A254D3A2553257A006173637481
:102AEC00696D65000000000000000000AD1D0A08C3
:102AFC00171E0A08F31D0A085D130A08C31D0A08ED
:102B0C00DF1D0A08D11D0A08ED1D0A08AF1D0A08B1
:102B1C00B51D0A0800000000000000009F1E0A08F6
:102B2C00051F0A08DD1E0A085D130A08CF1E0A08D5
:102B3C00A11E0A08B11E0A08FF1E0A08C11E0A08B7
:102B4C00991E0A080000000000000000DB200A08A3
:102B5C00D1200A08C7200A0839200A08BB200A0815
:102B6C00AF200A08A9120A08B1120A08A3200A0801
:102B7C009B200A0891200A0887200A0843200A088B
:102B8C0000537431395F53705F6D616B655F7368AF
:102B9C00617265645F74616700000000E82B0A08CD
:102BAC008D2B0A08482C0A08BC2B0A086C2C0A0826
:102BBC004E31305F5F637878616269763131375FAF
:102BCC005F636C6173735F747970655F696E666F58
:102BDC004500000000000000B02B0A082D240A0854
:102BEC0041240A08D9250A08D9250A08AB240A0861
:102BFC00ED230A0893240A0855240A0821240A08FC
:102C0C00482C0A08182C0A08B02B0A084E31305FE1
:102C1C005F637878616269763132305F5F73695FC8
:102C2C00636C6173735F747970655F696E666F4511
:102C3C0000000000000000000C2C0A08D5240A0833
:102C4C00E9240A08D9250A08D9250A08AB240A0858
:102C5C00ED230A08AD250A0839250A08FD240A08BF
:102C6C00E82B0A08742C0A08537439747970655F60
:102C7C00696E666F00000000310A0A0859120A08D2
:102C8C0049130A087D140A08A1150A08991D0A0897
:102C9C00E5200A08BD230A0800000000000000001F
:042CAC000000000024
:042CB0000000000020
:102CB400BC000020D4000020E0000020EC00002034
:102CC400F800002004010020100100201C01002055
:102CD40028010020C8000020E82A0A08300000204B
:102CE40000000000000000000000000000000000E0
:102CF40000000000000000000000000000000000D0
:102D040000000000000000000000000000000000BF
:102D140000000000000000000000000000000000AF
:102D2400000000000000000000000000000000009F
:102D3400000000000000000000000000000000008F
:042D4400E506002080
:102D4800FFFFFFFF00000102030405060708090A48
:102D58000B0C0D0E0F101112131415161718191A43
:082D68001B1C1D1E1F2028008A
:042D7000785634124B
:04000005080A001CC9
:00000001FF
