:02000004080AE8
:1000000000000A08242F0A08000006000600050167
:080010000402FD0800000000DD
:04001800982A0A0810
:10001C0009480A4908B5884205D0094A824202D0EB
:10002C00121A02F077FC0748074A0021121A02F054
:10003C007FFC064808BD00BF00000020842E0A0883
:10004C0078000020780000209506002095060020FE
:10005C0070B502F03BFA0025054E064CA41BA40813
:10006C00A54200D170BD56F8043B98470135F7E71F
:10007C00582E0A08782E0A0800F0F8BA08B500F0D5
:10008C0085FBBDE8084002F0D9B901F033BA01F0A4
:10009C0031BA01F037BA01F035BA0078B0FA80F015
:1000AC0040097047012303707047426000220272BE
:1000BC0020220170C260704710B5037A044653B118
:1000CC002178606801F0A7FA606801F0ACFAB0FA28
:1000DC0080F0400910BD012100F003F80028EFD199
:1000EC00F8E738B5044640680D4601F065FA012082
:1000FC00207225B12046BDE83840FFF7DDBF38BD82
:10010C002DE9F8431F46DDE90896C36815463244CD
:10011C009A420446884602D90020BDE8F88301784B
:10012C00406801F078FA7EB960682A460368414657
:10013C00DB6898478542EFD13946606801F06FFA69
:10014C00B0FA80F04009E8E7B9F1000FECD0606834
:10015C00324603684946DB689847B042DCD1E3E796
:10016C002DE9F041154604460E46D2B2017840689E
:10017C0001F03FFA85420DD100271FFA87F8A845F8
:10018C0007F1010709D2606803685B69984706F8B4
:10019C000800F2E70020BDE8F0810120FBE72DE923
:1001AC00F84307468846164699460025B54212D2B2
:1001BC00FA68741B944228BF1446331BAB4294BF9D
:1001CC004B4600232246384608EB0501FFF7C8FFD3
:1001DC0010B12544EAE70120BDE8F8830022017242
:1001EC00026070471FB50023CDE9003349BA0446BD
:1001FC00ADF80C10012303A902220068FFF780FF61
:10020C00012320681A4603A9FFF7C9FF9DF80C00CB
:10021C0004B010BD4D2108B5FFF7E4FFC0F3071083
:10022C0008BD1FB50023CDE9003349BAADF80C1059
:10023C008DF80E200123032203A90068FFF760FF4D
:10024C0005B05DF804FB38B504460D4601F07F029D
:10025C0040F21221FFF7E5FF2068257210B1102142
:10026C0002F026FA1020FFF710FF054618B162685D
:10027C00217AFFF71AFF284625600121BDE8384096
:10028C00FFF72FBF10B50446012240F20721FFF7FC
:10029C00C8FF204601224FF40271FFF7C2FF20462F
:1002AC0000229621FFF7BDFF2046FD229721FFF784
:1002BC00B8FF20460022E321FFF7B3FF20460422BB
:1002CC00E421FFF7AEFF20460222E521FFF7A9FF4C
:1002DC0020460122E621FFF7A4FF20460322E72156
:1002EC00FFF79FFF20460222F521FFF79AFF2046D9
:1002FC000522D921FFF795FF2046CE22DB21FFF7FF
:10030C0090FF20460322DC21FFF78BFF2046F822CA
:10031C00DD21FFF786FF204600229F21FFF781FF9A
:10032C0020463C22A321FFF77CFF20460022B72168
:10033C00FFF777FF20463C22BB21FFF772FF2046D8
:10034C000922B221FFF76DFF20460922CA21FFF7CF
:10035C0068FF204601224FF4CC71FFF762FF204664
:10036C0017224FF4D871FFF75CFF2046002240F2B1
:10037C00AD11FFF756FF20460522FF21FFF751FF75
:10038C00204605224FF48071FFF74BFF20460522D3
:10039C0040F29911FFF745FF20461B224FF4D37111
:1003AC00FFF73FFF20463E224FF4D671FFF739FF8F
:1003BC0020461F2240F2A711FFF733FF20460022F0
:1003CC003021FFF72EFF204610221121FFF729FFC5
:1003DC00204630224FF48571FFF723FF204646223A
:1003EC003F21FFF71EFF2046FF223121FFF719FFA7
:1003FC00204663224121FFF714FF204601222E21C3
:10040C00FFF70FFF204609221B21FFF70AFF2046AA
:10041C0031223E21FFF705FF2046BDE81040242283
:10042C001421FFF7FEBE38B504464160006810B1D8
:10043C00102102F03DF91020FFF727FE054618B1F8
:10044C006268217AFFF731FE284625600121FFF70B
:10045C0048FE054610B90025284638BD0021204627
:10046C00FFF7C0FEB428F6D116212046FFF7BAFEDE
:10047C00C307F1D52046FFF705FF002216212046C1
:10048C00FFF7CFFEE8E738B504464D212046FFF7CD
:10049C00A9FEC207F9D5012218212046FFF7C1FE9B
:1004AC004F212046FFF79EFE4307F9D562212046D7
:1004BC00FFF798FE0546072220461521FFF7B1FEEF
:1004CC00284638BD10B5044601F080FE2146BDE833
:1004DC00104001F0DAB9000008B50021042002F048
:1004EC0082F80021032002F07EF80021022002F0A5
:1004FC007AF80A2001F01EF80121042002F073F8AA
:10050C000121032002F06FF80121022002F06BF8A8
:10051C000A2001F00FF80121042002F064F80021F8
:10052C00032002F060F80021022002F05CF802F0D7
:10053C008DF801462148FFF776FF28B901F046FEF9
:10054C001F4901F0ACF9FEE730211C48FFF77BFE98
:10055C000A2000F0EFFF0121032002F044F80A20EA
:10056C0000F0E8FF02F072F801461648FFF75BFF57
:10057C0028B901F02BFE144901F091F9FEE7312165
:10058C001048FFF760FE0121022002F02CF80A202F
:10059C0000F0D0FF02F05AF801460C48FFF743FF79
:1005AC0028B901F013FE0A4901F079F9FEE732216E
:1005BC00BDE808400548FFF746BE00BFDC00002040
:1005CC00AC2A0A08E8000020C92A0A08F400002016
:1005DC00E72A0A08F8B51E4D1E4E2B7856F8230054
:1005EC00FFF751FF2B78044656F82300FFF712FE55
:1005FC002B78194A2946194ED05428BB184F194D3F
:10060C00FA5C03EB8300054415F802E0AC540525B5
:10061C00DFF854C001325CF82300A0EB0E00044458
:10062C00B2FBF5F04CF82340B4FBF5F400EB800082
:10063C00121AFA54F45403220133B3FBF2F202EB14
:10064C0042029B1A0B70F8BDFF22F254F3E700BF75
:10065C00000100200000002020010020D800002014
:10066C0001010020040100201401002070B588B0A5
:10067C0001F0ACFD4FF4E13101F088FD01F0A6FD75
:10068C0001F08BFD18B9012000F054FFF6E701F0E2
:10069C009DFD384901F0F9F8374904A801F07DF9BE
:1006AC0001F092FC0A220146684601F09AF969466B
:1006BC0004A801F0C0F90168304800F0CBFA684694
:1006CC0001F021F904A801F01EF92C4C294E2A4DF9
:1006DC00204600F0CEF910BB01F078FD314601F058
:1006EC00D4F8294604A801F058F901F06DFC0A224F
:1006FC000146684601F075F9694604A801F09BF9BA
:10070C000168204600F0A6FA684601F0FCF804A83F
:10071C0001F0F9F84FF47A7000F00CFFD8E70121E2
:10072C00042001F04FFF0121032001F04BFF0121B8
:10073C00022001F047FF01F049FD114901F0A5F835
:10074C000021042001F04FFF0021032001F04BFF9A
:10075C000021022001F047FF01F038FD094901F0AA
:10076C0094F801F033FD084901F08FF8FFF7B4FE5F
:10077C0008B070BD042B0A08122B0A087800002060
:10078C001E2B0A08362B0A08592B0A0808B50B48E9
:10079C0000F06FF910B1094800F042FBFFF71AFFA7
:1007AC00074B1B78022B04D1064A0749034800F07B
:1007BC00DCFABDE80840142000F0BCBE7800002034
:1007CC0000010020D8000020652B0A08002307B583
:1007DC0040F25B7200930A490A4B0B4800F060F838
:1007EC0029210A48FFF7FAFC29210948FFF7F6FCF2
:1007FC002921084803B05DF804EBFFF7EFBC00BFFC
:10080C00782B0A08D1040A0878000020DC000020AC
:10081C00E8000020F400002091F85C3010B504468C
:10082C00016013B1886D00F015FC204610BD10B5A9
:10083C000368044693F85C2012B1986D00F012FC2A
:10084C00204610BDF8B51F469DF8243004460D46D1
:10085C00164623B101235830037100F0F3FB089BBB
:10086C0023630023636306B1A66425B1294604F112
:10087C00380001F0A5F8069BE0692365079BA4F8F6
:10088C004C70FF2BB8BFFF23A4F8543008B1FFF70E
:10089C0002FCB4F85400FFF7FAFBE061F8BD00006D
:1008AC002DE9FF4104460025984617460E4601F0F7
:1008BC0013FB0D49E56104F1380001F06EF89DF869
:1008CC002830FF22CDE902830F232046CDE90032E8
:1008DC0031463B462A46A56484F85C50FFF7B2FFCC
:1008EC00204604B0BDE8F081582B0A0810B5044628
:1008FC00204601F007FA0028FAD0204601F045F90D
:10090C00C0B210BD2DE9F0470546C46989460127E0
:10091C00FFF7ECFF4FF0000820703C46EB6993F8B2
:10092C0000A00AF0F00A2846FFF7E0FF2646EB6924
:10093C000134985500F07F0303FB07880306A4B22B
:10094C001FFA88F84FEAC717EDD4631EBAF1300FBF
:10095C0089F8003024D12846EF69FFF7C7FF3855D6
:10096C002846EF69FFF7C2FFF41C0236B6B2B85541
:10097C000226A4B2B6B2B1462746C14512D22846C9
:10098C00FFF7B4FFB5F8543009F10109BB4288BF39
:10099C00EB691FFA89F988BFD8550137BFB2ECE76C
:1009AC000026E7E7A8EB0600B0452CBF064600265C
:1009BC00B5F854003444A4B2A0422CBF2046002009
:1009CC00BDE8F087F7B58C461E461D46074600234A
:1009DC00AE4605F07F01BEF17F0F02A888BF41F043
:1009EC0080015C1CBEF17F0F03444FEAD515E4B2C5
:1009FC0003F8041C10D8C4F10403D11802F803C086
:100A0C00C4F10503134401A80532934206D010F833
:100A1C00015B03F8015BF8E72346D9E7721C22441B
:100A2C00384601F034F8054600F03CFB013478629E
:100A3C003444A8B2231A5842584103B0F0BD0233D3
:100A4C00F0B5044698B20023CD5C4DB1B4F85460B7
:100A5C005F1C864204D9461C15543B46B0B2F3E7E2
:100A6C0099B2441A2244091202F8021C02F8013C01
:100A7C00F0BD38B5044601F0D6F9002814BF0125A5
:100A8C00002502D1204601F077F9284638BD000038
:100A9C002DE9F04788B00446894617461E46DDF816
:100AAC0040809DF850A0FFF7E4FF0546002840F079
:100ABC00CB80214601A8FFF7AFFEA16C002940F0C6
:100ACC0087802B462046B4F84C20A16B01F01CFA11
:100ADC00002879D0012323849DF85430E269042B3B
:100AEC0040F08180594B186899889B79ADF80C10AF
:100AFC008DF80E300290C2F805009DF80E30BDF84E
:100B0C000C10D3720C23A2F80910B8F1000F7FD08F
:100B1C009DF848009DF84420400140EAC20040F096
:100B2C000600C0B2BAF1000F01D100F0FD001FB1F8
:100B3C00002E6FD140F08000E269D054226DE16943
:100B4C00581C12120A54E169206D9A1C8854033304
:100B5C0049462046E269FFF772FF0346B8F1000FE1
:100B6C000BD04146E2692046FFF769FFE269034674
:100B7C0013992046FFF763FF034667B139462046B9
:100B8C00E269FFF75CFF03462EB131462046E2696D
:100B9C00FFF755FF0346053B1021E2699BB2204647
:100BAC00FFF710FF00F07EFA4FF47A76C4E90900E3
:100BBC00204601F0A7F880BB00F074FAA36AC01AB3
:100BCC00236D73439842F3D9204601F0D5F834E0F5
:100BDC0002A800F099FD2B462046B4F84C2002A93F
:100BEC0001F020F874E71A4B0DF1080C18685968DD
:100BFC001B7AACE803008CF8003002AB03CBC2F8D4
:100C0C000500C2F809109CF8003053730E237CE7E2
:100C1C00022087E740F0C0008EE7204602A9FFF7CC
:100C2C0071FE0428D0D1E369DE78002ECCD100F01F
:100C3C0039FA0125A06284F82C6001A8FFF7F7FDB2
:100C4C00284608B0BDE8F0870025F9E7902B0A0884
:100C5C00972B0A087FB501230422CDE90432002327
:100C6C001A46CDE90233CDE90033FFF711FF07B087
:100C7C005DF804FB2DE9F74FDDF83C8004468B460C
:100C8C0016461F469DF834509DF83890FFF7F1FE3C
:100C9C008246002851D0214601A8FFF7BDFD002156
:100CAC00B4F85420E06901F043FE05235946204670
:100CBC00E269FFF7C4FE6B1E012B15D8218CE3698A
:100CCC00013189B2218409121954421CE369218C27
:100CDC0092B2023080B29954B8F1000F04D0238C38
:100CEC005A1C2284A8F8003000210B188F42E269AC
:100CFC009BB20AD9B4F854C09C4506D916F801C069
:100D0C00013102F803C089B2EFE79DF830100029D9
:100D1C000CBF30213121B9F1000F01D041F0080195
:100D2C00022D0ED141F00401053B20469BB2FFF78A
:100D3C0049FE824601A8FFF77AFD504603B0BDE894
:100D4C00F08F012D08BF41F00201EDE71FB5089CA3
:100D5C000394002402949DF81C4001949DF81840C3
:100D6C000094FFF787FF04B010BD7FB50546104611
:100D7C0014460E4601F01AFE00220346CDE901226C
:100D8C000092314622462846FFF7E0FF04B070BDC2
:100D9C0073B504460E46FFF76CFE0546C8B12146F6
:100DAC0001A8FFF739FD6222E36920461A7002227E
:100DBC00E3695A70E36932129A70E3690422DE70B7
:100DCC00E16900F064FE051E01A818BF0125FFF7BC
:100DDC002EFD284602B070BD73B504460E46FFF7D3
:100DEC0048FE0546C8B1214601A8FFF715FD722241
:100DFC00E36920461A700222E3695A70E3693212E1
:100E0C009A70E3690422DE70E16900F040FE051E71
:100E1C0001A818BF0125FFF70AFD284602B070BDD6
:100E2C002DE9F04F87B000AF0446FFF722FE814654
:100E3C00F8B1214607F11400FFF7EEFC00F032F98F
:100E4C004FF47A73226D06465343A26A821A9A4271
:100E5C0003D8626A821A93421FD294F82C306BB179
:100E6C00204600F089FF4FF0000907F11400FFF74E
:100E7C00DEFC48461C37BD46BDE8F08FC021E26958
:100E8C0020461170E2695370E169022200F0FFFD07
:100E9C000123C4E9096684F82C30204600F032FFA7
:100EAC000028E2D0204607F11301FFF72BFD834603
:100EBC000028DAD0E369A662197801F0F002302A32
:100ECC007DD1D4F830A0BAF1000FCED097F813C072
:100EDC00C7F804D003EB0C025578917801EB05218F
:100EEC008DB2694605F10802D208A1EBC202954603
:100EFC0068460CF10302FA6003EB020E0DEB0502DF
:100F0C00C7F808D03A603A68B9688A4206D00A46EF
:100F1C001EF8018B02F8018BBA60F4E700224255EF
:100F2C0093F80080F96808F00608ABEB0C02033A62
:100F3C00B8F1020FA2EB0502294424D113F801E009
:100F4C00194491F801B00CF105012944023A1944F5
:100F5C000BEB0E2BD0474022E3691FFA8BFB1A7068
:100F6C00E36983F80180E3694FEA2B229A70E36905
:100F7C00042283F803B02046E16900F088FD666224
:100F8C00D7F804D071E7B8F1040F15D113F801E0CC
:100F9C00194491F801B00CF105012944023A1944A5
:100FAC000BEB0E2BD0475022E3691FFA8BFB1A7008
:100FBC000222E3695A70D6E71944D047E0E7502A79
:100FCC0008D19A78D978204601EB022189B2FFF733
:100FDC00DFFE4AE7402A12D1626B002A3FF445AF8C
:100FEC00BBF1040F7FF441AF11F0060F7FF43DAF5E
:100FFC009978D87800EB012080B2904735E7602AC9
:10100C0008D19A78D978204601EB022189B2FFF7F2
:10101C00E3FE2AE7702ADFD0902A3FF426AFC02ADD
:10102C000AD1D0221A700022E36920465A70E16975
:10103C00022200F02CFD18E7D02A04BF002384F80C
:10104C002C3012E708B5024B1B681B6B019308BDD3
:10105C00D001060808B5024B1B689B6B019308BDB9
:10106C00D001060808B5024B1B681B6C019308BD28
:10107C00D001060808B5024B1B685B6C019308BDD8
:10108C00D001060808B5024B1B689B6C019308BD88
:10109C00D001060808B5024B1B685B68019308BDBC
:1010AC009C01060808B5024B1B685B69019308BDDF
:1010BC009C01060808B5024B1B689B6D019308BD8B
:1010CC009C01060808B5024B1B685B6E019308BDBA
:1010DC009C01060808B5024B1B689B68019308BD70
:1010EC00B001060808B5024B1B68DB68019308BD0C
:1010FC00B001060808B5024B1B681B69019308BDBB
:10110C00B001060808B5024B1B68DB6C019308BDE7
:10111C00AC01060808B5024B1B689B6D019308BD1A
:10112C00AC01060808B5024B1B68DB6D019308BDCA
:10113C00AC01060808B5024B1B681B6E019308BD79
:10114C00AC01060808B5024B1B685B6E019308BD29
:10115C00AC01060808B5024B1B689B6E019308BDD9
:10116C00AC01060808B5024B1B68DB6E019308BD89
:10117C00AC01060808B5024B1B681B6F019308BD38
:10118C00AC01060808B5024B1B685B6F019308BDE8
:10119C00AC01060808B5034B1B68D3F880300193EB
:1011AC0008BD0000AC01060808B5034B1B68D3F85A
:1011BC009030019308BD0000AC01060808B5024B45
:1011CC001B681B68019308BDBC01060808B5024BDF
:1011DC001B685B68019308BDBC01060808B5024B8F
:1011EC001B689B68019308BDBC01060808B5024B3F
:1011FC001B68DB68019308BDBC01060808B5024BEF
:10120C001B681B69019308BDBC01060808B5024B9D
:10121C001B681B6A019308BDBC01060808B5024B8C
:10122C001B681B6B019308BDBC01060808B5024B7B
:10123C001B685B6C019308BDBC01060808B5024B2A
:10124C001B68DB69019308BDB401060808B5024BA5
:10125C001B681B6A019308BDB401060808B5024B54
:10126C001B689B69019308BDC401060808B5024BB5
:10127C001B685B6A019308BDC401060808B5024BE4
:10128C001B689B6A019308BDC401060808B5024B94
:10129C001B68DB6A019308BDC401060808B5024B44
:1012AC001B681B6B019308BDC401060808B5024BF3
:1012BC001B685B6B019308BDC401060808B5024BA3
:1012CC001B689B6B019308BDC401060808B5024B53
:1012DC001B681B6C019308BDC401060808B5024BC2
:1012EC001B681B68019308BDD801060808B5024BA2
:1012FC001B685B68019308BDD801060808B5024B52
:10130C001B681B69019308BDD801060808B5024B80
:10131C001B685B69019308BDD801060808B5024B30
:10132C001B689B69019308BDD801060808B5024BE0
:10133C001B68DB69019308BDD801060808B5024B90
:10134C001B681B6A019308BDD801060808B5024B3F
:10135C001B685B6A019308BDD801060808B5024BEF
:10136C001B685B6C019308BDC001060808B5024BF5
:10137C001B689B6C019308BDC001060808B5024BA5
:10138C001B681B6D019308BDA801020808B5024B30
:10139C001B681B68019308BDA401060808B5024B25
:1013AC001B685B68019308BDA401060808B5024BD5
:1013BC001B685B69019308BDA401060808B5024BC4
:1013CC001B689B6D019308BDA401060808B5034B6F
:1013DC001B68D3F89030019308BD0000A4010608E7
:1013EC0008B5034B1B68D3F89C30019308BD000073
:1013FC00A401060808B5024B1B689B68019308BD45
:10140C00CC01060808B5024B1B685B69019308BD4B
:10141C00CC01060808B5024B1B681B6B019308BD79
:10142C00CC01060808B5024B1B68DB6B019308BDA9
:10143C00CC01060808B5024B1B685B68019308BD1C
:10144C00C801060808B5024B1B689B68019308BDD0
:10145C00C801060808B5024B1B68DB68019308BD80
:10146C00C801060808B5024B1B681B69019308BD2F
:10147C00C801060808B5024B1B685B69019308BDDF
:10148C00C801060808B5024B1B689B69019308BD8F
:10149C00C801060808B5024B1B68DB69019308BD3F
:1014AC00C801060808B5024B1B681B6A019308BDEE
:1014BC00C801060808B5024B1B681B6B019308BDDD
:1014CC00C801060808B5024B1B685B6B019308BD8D
:1014DC00C801060808B5024B1B681B6C019308BDBC
:1014EC00C801060808B5024B1B685B6C019308BD6C
:1014FC00C801060808B5024B1B681B68019308BDA0
:10150C00A001060808B5024B1B685B68019308BD77
:10151C00A001060808B5024B1B689B68019308BD27
:10152C00A001060808B5024B1B685B6C019308BD53
:10153C00A00106080021FFF739BF7047F8B5064631
:10154C0015460C468F18BC4206D0336830469B6853
:10155C0014F8011B9847F6E72846F8BD0022007CDA
:10156C00FFF7E8BD0021007CFFF7ECBD0021007CFB
:10157C00FFF7F0BD0021007CFFF7F4BD0021007CDB
:10158C00FFF7F8BD10B50446142101F091F8204680
:10159C0010BD000010B54FF47A73044608460021C4
:1015AC00C4E90113034B114623602074FFF7F2FDCD
:1015BC00204610BDA82B0A080023007C1A461946A9
:1015CC00FFF7A0BD7FB500221423CDE90122ADF8B1
:1015DC0004300B78007C8DF808304B680393CB6893
:1015EC0004930B7A01A90593FFF7DEFD07B05DF8B4
:1015FC0004FB1FB5003B8DF800104FF0640118BFC1
:10160C0001230391694601928DF80830FFF7DAFF48
:10161C0005B05DF804FB0022007CFFF77BBD0022C7
:10162C00007CFFF77FBD0121FFF7F9BF704710B5B4
:10163C000446182101F03CF8204610BDF8B50E46C2
:10164C00002400F10807051D17F8011D0A22304679
:10165C0000F027F9AF42044401D12046F8BD002C1C
:10166C00F2D02E21304600F001F90444ECE70000E2
:10167C0010B50446044B1122002140F8043B01F044
:10168C0057F9204610BD00BFD02B0A080346074A65
:10169C0010B543F8042B01F1100251F8044B9142A0
:1016AC0043F8044BF9D10A781A7010BDD02B0A08F4
:1016BC00024AC0E90021042202757047D02B0A08A7
:1016CC0010B59DF8084044EA0324042344EA02447C
:1016DC0044EA01644460037510BD000037B5044D45
:1016EC0005609DF818500095FFF7EAFF03B030BD78
:1016FC00D02B0A0813B5CB7800938B784A780978ED
:10170C00FFF7DEFF02B010BD10B50446024B0360BC
:10171C00FFF7F0FF204610BDD02B0A08014B024A00
:10172C001A60704724010020DC2B0A080023406853
:10173C001A46FFF77FBE002202214068FFF78ABEDF
:10174C00002240681146FFF77DBE0022406811461A
:10175C00FFF788BE002340681A461946FFF78ABE79
:10176C00002340681A461946FFF78CBE00214068DA
:10177C00FFF7B0BE00214068FFF7B4BE00224068FE
:10178C0081F00101FFF786BE00224068FFF792BE90
:10179C00002240681146FFF795BE002240681146B2
:1017AC00FFF780BE70B515468EB0044608A8FFF74B
:1017BC005FFF1122002103A801F0BAF80026284689
:1017CC0001F0F4F80A4B009681B25B68284603AA34
:1017DC00FFF7CCFD30B131462046FFF769FF2046BC
:1017EC000EB070BD204603A9FFF750FFF7E700BF0E
:1017FC00A8050020034A044B042814BF10461846C1
:10180C00704700BF28010020A8050020024B034AA6
:10181C001A6000225A60704728010020E82B0A0841
:10182C00F8B506460D4600248F18BD420CD033681F
:10183C0030469B6815F8011B9847031E01DB1C44BE
:10184C00F3E7002C08BF1C462046F8BD70B50546D2
:10185C000C46084649B101F0A9F82B68024621460E
:10186C002846BDE87040DB68184770BD03689B686C
:10187C00184738B50D210546FFF7F8FF0A21044635
:10188C002846FFF7F3FF204438BD38B50546FFF76F
:10189C00DDFF04462846FFF7ECFF204438BDFFF778
:1018AC00F4BF0023012A98BF0A2230B58BB00C4636
:1018BC008DF8243009A92546B4FBF2F404FB12532D
:1018CC00DBB2092B94BF30333733DBB2AA4201F8B9
:1018DC00013DF0D9FFF7BAFF0BB030BD0022014B30
:1018EC009A6070473001002070B5002604460D4602
:1018FC0040F8086FFFF7BEFB28462570FFF79EFCEB
:10190C002046666070BD10B504460068FFF7FAFD0E
:10191C00204610BD10B50446006808B1FFF7F2FD73
:10192C000023C4E90133236010BD38B504460D46CD
:10193C0000680131FFF7EEFD10B1C4E9000501208C
:10194C0038BD10B50368044623B143688B4201D3FC
:10195C00012010BD2046FFF7E8FF0028F9D0A3684E
:10196C00002BF5D122681370F2E770B50E461146C4
:10197C0004461546FFF7E5FF20B92046FFF7CAFFDE
:10198C00204670BD2A4631462068A56000F0C2FF93
:10199C0000212268A368D154F2E738B5002304462D
:1019AC000D46C0E900338360037339B1084600F07B
:1019BC00FDFF294602462046FFF7D7FF204638BDDB
:1019CC0038B505460C4649B1084600F0EFFF2146F4
:1019DC0002462846FFF7C9FF284638BDFFF79AFF95
:1019EC00FAE710B5002304468AB0C4E90033A360BB
:1019FC002373084601A900F0A7FC204601A9FFF7B4
:101A0C00DFFF20460AB010BD70B505460E4609B979
:101A1C00002070BD6AB1846814442146FFF791FF21
:101A2C000028F5D02868AB683146184400F0B6FFA2
:101A3C00AC600120EDE710B58A6809680446FFF731
:101A4C00E3FF10B92046FFF765FF204610BD0000EC
:101A5C0002220020044B1A60044B054A186098803F
:101A6C0098719A60FFF79ABC4C010020400100204D
:101A7C000000FFFF13B503688DF80710DC6B012223
:101A8C0047F230530DF10701A04702B010BD10B45E
:101A9C000368DC6B47F23053A44610BC604713B5A7
:101AAC00134602688DF80710D46B0DF10701012263
:101ABC00A04702B010BD70477047000010B5044637
:101ACC00064B0846994204F10C0404D000F0F4FDD6
:101ADC00002808BF0024204610BD00BF542C0A0863
:101AEC0010B50446AC2100F0E3FD204610BDFEF716
:101AFC00D0BA000038B50B4B8469054603607CB145
:101B0C006368013B63605BB9236820469B68984718
:101B1C00A368013BA3601BB923682046DB68984788
:101B2C00284638BD642C0A0810B50446FFF7E2FFBE
:101B3C0020461C2100F0BCFD204610BD70B50446AB
:101B4C0006464D69044B8C3544F8043B0FCD0FC44D
:101B5C002B683046237070BDD02B0A0810B5436932
:101B6C000446B3F88620B3F884309A4205D06369F2
:101B7C00B3F884201344187910BD03681B69984787
:101B8C000028F4D14FF0FF30F6E710B54369044656
:101B9C00B3F88620B3F884309A4208D06369B3F85E
:101BAC008420511CA3F884101344187910BD0368C9
:101BBC001B6998470028F1D14FF0FF30F6E7F8B5D4
:101BCC0043691746B3F88620B3F8843005469A4229
:101BDC000E4616D069693046B1F88430B1F88640AB
:101BEC00E41ABC4228BF3C4604332246194400F098
:101BFC0091FE6A69B2F884302344A2F884302046FE
:101C0C00F8BD03681B6998470028E3D14FF0FF34F7
:101C1C00F5E700234269A2F884304269A2F88630C5
:101C2C00704700002DE9F0431F4603688BB0DB6A58
:101C3C0005460C46164698473846FFF7DBFD036809
:101C4C00DB689847002854D0334606220121022035
:101C5C000097D5F81480FFF7C1FA2023C8F80000CC
:101C6C004FF00008CDE902386B6901201B6823494D
:101C7C000193234B02AA00934346FFF77FFB6B694A
:101C8C001868FFF7A3FA002833D02846FFF7C1FFE6
:101C9C000223ADF80830E37976BA8DF80C30A379CD
:101CAC004FF4FA508DF80D306379ADF80A608DF869
:101CBC000E3014F8043F8DF80F30FFF74FFB6B69B3
:101CCC0006461022186802A9FFF790FA81463046A2
:101CDC00FFF744FB0FCC6E698C360FC6236833704C
:101CEC002F61B9F1000F07D02B682846DB6A9847A3
:101CFC0040460BB0BDE8F0830120FAE71C2C0A0823
:101D0C00232C0A0838B542690446B2F886302BB148
:101D1C00B2F884209A4201D1FFF77BFF2069FFF7CC
:101D2C0069FD0368DB689847F8B163691868FFF7C9
:101D3C004DFAD0B16069B0F886107F2915D8051D11
:101D4C00C1F18002002300682944FFF757FA0028EC
:101D5C000BDD6369B3F886200AB9A3F884206369A4
:101D6C00B3F886201044A3F886006369B3F88600A4
:101D7C00B3F88430C01A38BD38B5436904461868C6
:101D8C00FFF724FA18B163691868FFF73FFA656921
:101D9C00FFF744FA28606069112200218C3000F0B2
:101DAC00C7FD2046BDE83840FFF733BF10B5436987
:101DBC0004461868FFF70AFA08B9002010BD20691C
:101DCC00FFF718FD0368DB6898470028F5D06369B6
:101DDC001868FFF7F3F9B0FA80F04009EEE708B5A0
:101DEC00FFF7E4FF003818BF012008BD2DE9F341CF
:101DFC000027476004460D4616469846FFF7D6FF67
:101E0C0070B1CDE9008760693B46324629460068CF
:101E1C00FFF70CFA002800DA606002B0BDE8F08130
:101E2C004FF0FF30F8E770B50546FFF7BFFFE8B994
:101E3C006B69B3F88610B3F88420914216D11868F8
:101E4C00FFF7C4F908B9002070BD6B691868FFF77B
:101E5C00B5F901280446F6D12B6828461B6998472A
:101E6C0030B92B682846DB6A9847ECE70120EBE792
:101E7C002046E9E7002310B504460160C0F8843021
:101E8C008830FFF7F5FB204610BD0000F8B54FF485
:101E9C007A720023C0E901320D4A0361026043618A
:101EAC000446AC200E46FEF7F0F8051E05F10C07B3
:101EBC0008D00123C5E90133064B314638462B6067
:101ECC00FFF7D8FF2046C4E90575FFF7A2FEF8BD61
:101EDC00642C0A08402C0A0810B50446FFF79EF93A
:101EEC0001462046FFF7D2FF204610BD10B5044630
:101EFC000068FFF76BF910B12068FFF787F92046EF
:101F0C0010BD0C30FFF7F2BF2DE9F0431F460368FC
:101F1C008FB0DB6A06460D46904698471348FFF78C
:101F2C0014FCF0B102A8FFF7A3FB284600F03EFD1D
:101F3C00002481B23B462846009403AAFFF716FA08
:101F4C0090B9336809ADD3F82090094B03AC0893D2
:101F5C000FCC0FC5236842462B7030463B4608A970
:101F6C00C8470FB0BDE8F0832046FAE728010020EF
:101F7C00D02B0A0808B50020FFF74CFA28B1FFF760
:101F8C0041FA80F00100C0B208BD0120FCE710B599
:101F9C000020FFF78FF80446A0B9FFF7F7F90128E6
:101FAC0010D12046FFF70AFA60B9FFF7E3FF10B92A
:101FBC00FFF720FAF9E7FFF7DDFFBDE8104000203E
:101FCC00FFF778B8204610BD1FB5FFF7E0FF1022D1
:101FDC000021684600F0ACFC00216846FFF772F85F
:101FEC00009805B05DF804FB024B1A68024B1A60AE
:101FFC00704700BF0C000020500100207047417456
:10200C007047704708B5007CFFF760F920EAE07074
:10201C0008BD08B5007CFFF731F920EAE07008BD77
:10202C0008B5007CFFF73AF940EAE07008BD08B546
:10203C00007CFFF72BF940EAE07008BD007CFFF74D
:10204C0035B970B5467C04460D462EB12946207C28
:10205C00BDE87040FFF70AB9007CFFF737F900289C
:10206C00F4DC304670BD10B50446142100F020FBA2
:10207C00204610BD4FF0000C10B504460846114622
:10208C004FF47A72C4E901C2044A2074226001221E
:10209C0062741A46FFF7E2F8204610BDCC2C0A08F1
:1020AC0038B50C4D2978BFF35B8F11F001040FD1BB
:1020BC002846FDF7F2FF58B12146074B074A08485E
:1020CC00FFF7D8FF2846FDF7EDFF064800F008FCA7
:1020DC00034838BD54010020DC01002058010020C9
:1020EC00600200200F200A08417470477047704747
:1020FC0008B50021007CFFF711F940EAE07008BD3B
:10210C0008B50121007CFFF709F940EAE07008BD31
:10211C0008B5007CFFF7FAF820EAE07008BD08B5B6
:10212C00007CFFF7EBF820EAE07008BD38B50446F8
:10213C00007C0D46FFF7EAF8002801DC607C28B132
:10214C002946207CFFF7F2F820EAE07038BD007CCD
:10215C00FFF7F4B810B50446142100F0A9FA204694
:10216C0010BD704710B54FF47A7304460846002131
:10217C00C4E90113044B20742360012311466374DA
:10218C00FFF7ACF8204610BDFC2C0A080022007C9E
:10219C00FFF7ACB8007CFFF7D9B8FFF7FBBF000026
:1021AC0010B504461422002100F0C2FB054B20465A
:1021BC006360054BE36040F201132381812323828A
:1021CC0010BD00BFA4020020A503002030B50E4DA9
:1021DC0087B001A8FFF7E4FF2978BFF35B8F11F0FC
:1021EC0001040ED12846FDF758FF50B1214601AA33
:1021FC000648FFF7B7FF2846FDF754FF044800F0E8
:10220C006FFB024807B030BD740200207C02002036
:10221C00F9200A0810B504461422002100F088FBAE
:10222C00054B20466360054BE36040F201132381AC
:10223C008123238210BD00BF260400202705002027
:10224C0010B50E4C86B001A8FFF7E4FF2378BFF35E
:10225C005B8FDB070ED42046FDF71FFF50B1012129
:10226C0001AA0748FFF77EFF2046FDF71BFF054834
:10227C0000F036FB024806B010BD00BF780200200B
:10228C00900200206F210A08002240681146FFF7D7
:10229C00E9B8F0B5154689B011220E460446002166
:1022AC0003A800F045FB284600F080FB002781B214
:1022BC0073682846009703AAFFF758F830B13946DF
:1022CC002046FFF7F5F9204609B0F0BD204603A9DA
:1022DC00FFF7DCF9F7E7002240681146FFF7E2B898
:1022EC00002240681146FFF7EDB800224068FFF766
:1022FC00E1B80022406881F00101FFF7CBB8002360
:10230C0040681A461946FFF7BDB8002340681A46C4
:10231C001946FFF7AFB8002240681146FFF792B894
:10232C00002202214068FFF795B8002340681A4646
:10233C00FFF780B80422024B5A60024A1A607047B9
:10234C00A80500202C2D0A08931E222B4FF0000309
:10235C002DE9F0418CB00D4614468DF82C3026D961
:10236C00002829DA2E462D230A2406F8013B404288
:10237C004FF001080DF12B072246014601A800F091
:10238C00B5FA029B0198092BCCBF3722302213449B
:10239C0007F8013908F101080028EDD14246304612
:1023AC00791C00F0B7FA28460CB0BDE8F0810A2A77
:1023BC00D6D018B12E46DBE70A24FAE730232E4696
:1023CC004FF002088DF82B300DF12A07E6E70000DC
:1023DC00014B1860704700BF1000002008B5134B6C
:1023EC0043B1FFF7F3FE03681B699847002801DD32
:1023FC00AFF300800E4B43B1FFF752FE03681B692D
:10240C009847002801DDAFF300800A4B0BB1AFF306
:10241C000080094B43B1FFF713FF03681B69984712
:10242C00002801DDAFF3008008BD00BF00000000F4
:10243C0000000000000000000000000008B5FFF7DD
:10244C00CDFFFEF72FFE014B186008BDC80500201C
:10245C000548064A08B5121A054900F05BFA054B07
:10246C00054A1A6008BD00BF00400240044002400B
:10247C00802E0A08004002401E1C279A002307B534
:10248C001A466FF077010093FEF7AAFF03B05DF8D0
:10249C0004FB000007B543880A2B08D0502B0BD146
:1024AC00094B1B684BB103B05DF804EB1847FFF701
:1024BC00E5FF03B05DF804FB00231A466FF07701CB
:1024CC000093FEF78DFFF4E7B4050020002110B552
:1024DC001148FFF727F8114B1A68114B9A420CBFA1
:1024EC00012200220F4B1A7001D0FFF7B1FFFEF74B
:1024FC00D1FD044600F024FA0B4B13B12046AFF388
:10250C00008000210848FEF78DFFBDE81040002137
:10251C000648FEF75BBF00BFDD230A0800400240FF
:10252C001E1C279AB005002000000000A1240A08F8
:10253C00024B986808B1FEF7A5BD7047BC0500209A
:10254C00172870B5044601D9002070BDA0F10D0309
:10255C00022B0BD9012824D800F078F80021007C3C
:10256C00FEF710FE80F00100C0B2EEE7124E31789B
:10257C00BFF35B8F11F001050DD13046FDF78DFDDA
:10258C0048B129460D48FFF7AFF93046FDF78AFDF3
:10259C000B4800F0A5F9094B1878FEF757FE0028F8
:1025AC00D2D1123C012C05D8FFF77AFD007CFEF746
:1025BC0085FED7E70120C8E7B8050020BC05002040
:1025CC003D250A08172838B504460D460AD8FF29B8
:1025DC0008D0FFF7B5FF28B129462046BDE83840A2
:1025EC00FEF778BD38BD38B504460D46FEF77AFDCA
:1025FC00FF2810D0062804D84D2323FA00F0C30777
:10260C0009D42046FFF79CFF28B129462046BDE897
:10261C003840FEF76FBD38BD70470000002370B521
:10262C00202543801423084E0446038031468560E0
:10263C000561284600F03EF831466060284600F0FF
:10264C0039F8E060204670BD602D0A0830B50E4D9B
:10265C0087B02978BFF35B8F11F0010411D12846A4
:10266C00FDF71BFD68B101A8FFF7D8FF214601AAB1
:10267C000648FEF78FFF2846FDF714FD044800F0CE
:10268C002FF9024807B030BDCC050020D005002042
:10269C0025260A08002307B51A4619460093034855
:1026AC00FFF71CF803B05DF804FB00BFE405002045
:1026BC00FDF7EFBCFDF7EBBC014900F0FBB800BF28
:1026CC007C2D0A087FB500241023CDE90234036861
:1026DC0015469E6912686B4600948DF80440B0470D
:1026EC009DF8043003F00603062B09BF0120204699
:1026FC00009B2B6004B070BD0098904214BF012069
:10270C000620704710B50446024B036000F0CFF86A
:10271C00204610BDBC2D0A0810B50446FFF7F2FF89
:10272C0020460821FFF7C4FF204610BD2DE9F041DB
:10273C00DDF818801F46DDE9083498450646154635
:10274C0007D1079900F0B6F818B165710020BDE803
:10275C00F0813946304600F0ADF80028F6D0012360
:10276C00C4F800802571A371F0E738B515461C46F6
:10277C0000F0A0F820B10823E36006232560237144
:10278C0038BD2DE9F04105460C4616461F4600F0B3
:10279C0091F848B9032F07D82368324629462046BA
:1027AC00BDE8F0415B691847BDE8F08110B50446FF
:1027BC00024B0360FFF7A6FF204610BD1C2E0A0833
:1027CC0010B50446FFF7F2FF20460C21FFF770FF0F
:1027DC00204610BD2DE9F041DDF8188006469045E5
:1027EC000F4615461C460BD0B0682A460368CDF838
:1027FC0018801E6A39462346B446BDE8F04160474E
:10280C00194600F057F80028EED00620BDE8F081FC
:10281C002DE9F14F0D46DDE90A4BDDE90CA6194611
:10282C0081461746984600F045F890B1002D34606B
:10283C00377109DB2C44A2450CBF06240124B4716A
:10284C00002001B0BDE8F08F0235F9D10123B3713E
:10285C00F6E7544506D15946484600F02BF808B126
:10286C007771EDE7D9F808003A460368CDE90CA674
:10287C00CDE90A4BDC6929464346A44601B0BDE8C4
:10288C00F04F60472DE9F04107460C4615461E46B1
:10289C00FFF76BFF48B9B8682A46036821469F6961
:1028AC003346BC46BDE8F0416047BDE8F081704757
:1028BC0000207047814208B50ED0406803782A2B5F
:1028CC000CD049680B782A2B08BF013100F05CF85A
:1028DC00B0FA80F0400908BD0120FCE70020FAE7BF
:1028EC00002301461A46184600F068B810B591FB53
:1028FC00F2F4002902FB141306DB002B01DA01347D
:10290C009B1AC0E9004310BD002BC4BF04F1FF3477
:10291C009B18F6E70A44914200F1FF3300D170474F
:10292C0010B511F8014B914203F8014FF9D110BDCC
:10293C0003460244934200D1704703F8011BF9E7A8
:10294C0038B50D4B04461D68AB6B7BB91820FEF7F0
:10295C00D1FD0A4A0A4BA863C0E90023094B0122A6
:10296C0083600B2383810023C0E904230022AB6B1B
:10297C001C615A6138BD00BF100000200E33CDAB76
:10298C0034126DE6ECDE050010F8012B11F8013B5A
:10299C00012A28BF9A42F7D0D01A7047034611F883
:1029AC00012B03F8012B002AF9D17047034613F8C9
:1029BC00012B002AFBD1181A013870472DE9F84376
:1029CC00DFF8BC800646D8F800001F460D4691463D
:1029DC0000F058F8264B1C6834B9264C1C60264B6A
:1029EC0013B11B68C4F8883063681F2B07DDD8F857
:1029FC00000000F049F84FF0FF30BDE8F8835EB3FB
:102A0C00D4F8880088B91D4B23B9D8F8000000F021
:102A1C003AF8F0E74FF48470FEF76CFD0028F4D020
:102A2C000023C0E94033C4F8880001226368022EF9
:102A3C0040F8239002FA03F200EB8301D0F8003146
:102A4C0043EA0203C0F80031C1F8807002BFD0F82D
:102A5C0004311A43C0F804216368D8F800005A1CEA
:102A6C000233626044F8235000F00EF80020C4E7F3
:102A7C0088060020FC0500200000000001150A0853
:102A8C007400002070477047704700001D000A0852
:102A9C005D000A0885000A0889000A080000000089
:102AAC004661696C656420746F20626F6F74206678
:102ABC006972737420564C3631383058004661694F
:102ACC006C656420746F20626F6F74207365636F24
:102ADC006E6420564C3631383058004661696C654E
:102AEC006420746F20626F6F742074686972642044
:102AFC00564C363138305800436F6E6E65637469CE
:102B0C006E672E2E2E0077726973742D7761746345
:102B1C00680053687574646F776E2070696E7320EB
:102B2C00696E697465642E2E2E00416C6C20696E82
:102B3C00207265736574206D6F64652E2E2E28705F
:102B4C00696E7320617265206C6F77290053746114
:102B5C007274696E672E2E2E0077726973742F64EF
:102B6C006174612F73656E736F7273006D71747421
:102B7C002E65636C6970736570726F6A65637473CC
:102B8C002E696F0000044D5154540400064D5149F8
:102B9C0073647003000000000000000047150A0871
:102BAC0091150A0869150A0849150A0871150A08C9
:102BBC0079150A0881150A0889150A080000000011
:102BCC000000000049160A0839160A083B160A08C4
:102BDC0061707000000000000000000039170A0846
:102BEC0043170A084D170A0857170A0861170A08ED
:102BFC006D170A0879170A0881170A0889170A0835
:102C0C0095170A089D170A08A7170A08B1170A088A
:102C1C00776972696E6700544350436C69656E74D2
:102C2C0020736F636B65743D257800000000000015
:102C3C0000000000C51A0A08ED1A0A080F1F0A083E
:102C4C00FB1A0A08C91A0A0800000000000000005C
:102C5C000000000000000000011B0A08351B0A08D8
:102C6C00811A0A089B1A0A08111D0A08971B0A08E0
:102C7C00691B0A08C31A0A08311C0A08151F0A081E
:102C8C00CB1B0A08851D0A08331E0A08EB1D0A080F
:102C9C00AB1A0A08F91D0A08491B0A0825592D25E3
:102CAC006D2D25645425483A254D3A2553257A0037
:102CBC0061736374696D6500000000000000000022
:102CCC0009200A0873200A084F200A082D180A0840
:102CDC001F200A083B200A082D200A0849200A0850
:102CEC000B200A0811200A08000000000000000058
:102CFC00FB200A0861210A0839210A082D180A0844
:102D0C002B210A08FD200A080D210A085B210A085C
:102D1C001D210A08F5200A08000000000000000030
:102D2C0037230A082D230A0823230A0895220A08A8
:102D3C0017230A080B230A0879170A0881170A08AF
:102D4C00FF220A08F7220A08ED220A08E3220A08E1
:102D5C009F220A0800537431395F53705F6D616BA9
:102D6C00655F7368617265645F7461670000000081
:102D7C00BC2D0A08612D0A081C2E0A08902D0A0881
:102D8C00402E0A084E31305F5F6378786162697655
:102D9C003131375F5F636C6173735F747970655F3A
:102DAC00696E666F4500000000000000842D0A0863
:102DBC0011270A0825270A08BD280A08BD280A0871
:102DCC008F270A08D1260A0877270A0839270A0804
:102DDC0005270A081C2E0A08EC2D0A08842D0A085F
:102DEC004E31305F5F637878616269763132305F83
:102DFC005F73695F636C6173735F747970655F692E
:102E0C006E666F450000000000000000E02D0A080F
:102E1C00B9270A08CD270A08BD280A08BD280A08C0
:102E2C008F270A08D1260A0891280A081D280A08A3
:102E3C00E1270A08BC2D0A08482E0A085374397475
:102E4C007970655F696E666F00000000D9070A082B
:102E5C0029170A0819180A08E9180A085D1A0A0835
:102E6C00F51F0A0841230A08A1260A0800000000E1
:042E7C000000000052
:042E8000000000004E
:102E8400DC000020E8000020F4000020BC2C0A082C
:102E940014000020000000000000000000000000FA
:102EA400000000000000000000000000000000001E
:102EB400000000000000000000000000000000000E
:102EC40000000000000000000000000000000000FE
:102ED40000000000000000000000000000000000EE
:102EE40000000000000000000000000000000000DE
:082EF400000000008D06002023
:102EFC00FFFFFFFF00000102030405060708090A93
:102F0C000B0C0D0E0F101112131415161718191A8D
:082F1C001B1C1D1E1F202800D4
:042F24007856341295
:04000005080A001CC9
:00000001FF
