:02000004080AE8
:1000000000000A08603A0A08000006000600050120
:080010000402FD0800000000DD
:04001800EC340A08B2
:10001C0009480A4908B5884205D0094A824202D0EB
:10002C00121A03F0A1F90748074A0021121A03F02B
:10003C00A9F9064808BD00BF00000020A4390A0831
:10004C0094000020940000200507002005070020E4
:10005C0070B502F077FB0025054E064CA41BA408D6
:10006C00A54200D170BD56F8043B98470135F7E71F
:10007C007C390A089C390A0800F0F2BB08B500F07C
:10008C0091FCBDE8084002F015BB01F06FBB01F01C
:10009C006DBB01F073BB01F071BB0078B0FA80F05E
:1000AC0040097047012303707047426000220272BE
:1000BC0020220170C260704710B5037A044653B118
:1000CC002178606801F0E3FB606801F0E8FBB0FAAE
:1000DC0080F0400910BD012100F003F80028EFD199
:1000EC00F8E738B5044640680D4601F0A1FB012045
:1000FC00207225B12046BDE83840FFF7DDBF38BD82
:10010C002DE9F8431F46DDE90896C36815463244CD
:10011C009A420446884602D90020BDE8F88301784B
:10012C00406801F0B4FB7EB960682A46036841461A
:10013C00DB6898478542EFD13946606801F0ABFB2C
:10014C00B0FA80F04009E8E7B9F1000FECD0606834
:10015C00324603684946DB689847B042DCD1E3E796
:10016C002DE9F041154604460E46D2B2017840689E
:10017C0001F07BFB85420DD100271FFA87F8A845BB
:10018C0007F1010709D2606803685B69984706F8B4
:10019C000800F2E70020BDE8F0810120FBE72DE923
:1001AC00F84307468846164699460025B54212D2B2
:1001BC00FA68741B944228BF1446331BAB4294BF9D
:1001CC004B4600232246384608EB0501FFF7C8FFD3
:1001DC0010B12544EAE70120BDE8F8830022017242
:1001EC00026070471FB50023CDE9003349BA0446BD
:1001FC00ADF80C10012303A902220068FFF780FF61
:10020C00012320681A4603A9FFF7C9FF9DF80C00CB
:10021C0004B010BD4D2108B5FFF7E4FFC0F3071083
:10022C0008BD1FB50023CDE9003349BAADF80C1059
:10023C008DF80E200123032203A90068FFF760FF4D
:10024C0005B05DF804FB38B504460D4601F07F029D
:10025C0040F21221FFF7E5FF2068257210B1102142
:10026C0002F062FB1020FFF710FF054618B1626820
:10027C00217AFFF71AFF284625600121BDE8384096
:10028C00FFF72FBF10B50446012240F20721FFF7FC
:10029C00C8FF204601224FF40271FFF7C2FF20462F
:1002AC0000229621FFF7BDFF2046FD229721FFF784
:1002BC00B8FF20460022E321FFF7B3FF20460422BB
:1002CC00E421FFF7AEFF20460222E521FFF7A9FF4C
:1002DC0020460122E621FFF7A4FF20460322E72156
:1002EC00FFF79FFF20460222F521FFF79AFF2046D9
:1002FC000522D921FFF795FF2046CE22DB21FFF7FF
:10030C0090FF20460322DC21FFF78BFF2046F822CA
:10031C00DD21FFF786FF204600229F21FFF781FF9A
:10032C0020463C22A321FFF77CFF20460022B72168
:10033C00FFF777FF20463C22BB21FFF772FF2046D8
:10034C000922B221FFF76DFF20460922CA21FFF7CF
:10035C0068FF204601224FF4CC71FFF762FF204664
:10036C0017224FF4D871FFF75CFF2046002240F2B1
:10037C00AD11FFF756FF20460522FF21FFF751FF75
:10038C00204605224FF48071FFF74BFF20460522D3
:10039C0040F29911FFF745FF20461B224FF4D37111
:1003AC00FFF73FFF20463E224FF4D671FFF739FF8F
:1003BC0020461F2240F2A711FFF733FF20460022F0
:1003CC003021FFF72EFF204610221121FFF729FFC5
:1003DC00204630224FF48571FFF723FF204646223A
:1003EC003F21FFF71EFF2046FF223121FFF719FFA7
:1003FC00204663224121FFF714FF204601222E21C3
:10040C00FFF70FFF204609221B21FFF70AFF2046AA
:10041C0031223E21FFF705FF2046BDE81040242283
:10042C001421FFF7FEBE38B504464160006810B1D8
:10043C00102102F079FA1020FFF727FE054618B1BB
:10044C006268217AFFF731FE284625600121FFF70B
:10045C0048FE054610B90025284638BD0021204627
:10046C00FFF7C0FEB428F6D116212046FFF7BAFEDE
:10047C00C307F1D52046FFF705FF002216212046C1
:10048C00FFF7CFFEE8E738B504464D212046FFF7CD
:10049C00A9FEC207F9D5012218212046FFF7C1FE9B
:1004AC004F212046FFF79EFE4307F9D562212046D7
:1004BC00FFF798FE0546072220461521FFF7B1FEEF
:1004CC00284638BD10B5044601F0BCFF2146BDE8F6
:1004DC00104001F016BB10B50224A0B2002101346B
:1004EC0002F0BDF90F2CF8D110BD000008B5FFF7D4
:1004FC00F2FF0A2001F05AF90121022002F0AFF9B3
:10050C000121032002F0ABF90121042002F0A7F92C
:10051C000121052002F0A3F90121062002F09FF928
:10052C0001210A2002F09BF901210B2002F097F91E
:10053C0001210C2002F093F901210D2002F08FF91A
:10054C0001210E2002F08BF90A2001F02FF9012174
:10055C00022002F084F90021032002F080F900212E
:10056C00042002F07CF90021052002F078F900212A
:10057C00062002F074F900210A2002F070F9002123
:10058C000B2002F06CF900210C2002F068F900211C
:10059C000D2002F064F900210E2002F060F902F047
:1005AC0091F901467548FFF73EFF28B901F04AFF63
:1005BC00734901F0B0FAFEE730217048FFF743FEB3
:1005CC000A2001F0F3F80121032002F048F90A2077
:1005DC0001F0ECF802F076F901466A48FFF723FFC8
:1005EC0028B901F02FFF684901F095FAFEE7312197
:1005FC006448FFF728FE0121042002F030F90A209C
:10060C0001F0D4F802F05EF901466048FFF70BFFE9
:10061C0028B901F017FF5E4901F07DFAFEE732219F
:10062C005A48FFF710FE0121052002F018F90A20A4
:10063C0001F0BCF802F046F901465648FFF7F3FE0C
:10064C0028B901F0FFFE544901F065FAFEE73321A9
:10065C005048FFF7F8FD0121062002F000F90A20AE
:10066C0001F0A4F802F02EF901464C48FFF7DBFE2E
:10067C0028B901F0E7FE4A4901F04DFAFEE73421B2
:10068C004648FFF7E0FD01210A2002F0E8F80A20B5
:10069C0001F08CF802F016F901464248FFF7C3FE50
:1006AC0028B901F0CFFE404901F035FAFEE73521BB
:1006BC003C48FFF7C8FD01210B2002F0D0F80A20BE
:1006CC0001F074F802F0FEF801463848FFF7ABFE73
:1006DC0028B901F0B7FE364901F01DFAFEE73621C4
:1006EC003248FFF7B0FD01210C2002F0B8F80A20C7
:1006FC0001F05CF802F0E6F801462E48FFF793FE95
:10070C0028B901F09FFE2C4901F005FAFEE73721CC
:10071C002848FFF798FD01210D2002F0A0F80A20CF
:10072C0001F044F802F0CEF801462448FFF77BFEB6
:10073C0028B901F087FE224901F0EDF9FEE73821D6
:10074C001E48FFF780FD01210E2002F088F80A20D8
:10075C0001F02CF802F0B6F801461A48FFF763FED8
:10076C0028B901F06FFE184901F0D5F9FEE73921DF
:10077C00BDE808401348FFF766BD00BF0401002028
:10078C0000350A081C0100201D350A08280100202C
:10079C003B350A083401002058350A084001002076
:1007AC0076350A084C01002093350A0858010020C0
:1007BC00B0350A0864010020CF350A08700100200A
:1007CC00EC350A081001002009360A082DE9F0471B
:1007DC001D4D1E4C2B781E4E54F82300FFF753FE74
:1007EC002B78824654F82300FFF714FD2C78194B14
:1007FC00185528BB184F2644385D02F0FFFA00222A
:10080C00164B02F065FB80465046894602F0F6FA1C
:10081C000022124B02F05CFB02460B464046494656
:10082C0002F0A0F902F066FDC0B2307138550A2210
:10083C000134B4FBF2F302FB13442C70BDE8F087D7
:10084C00FF2326443371F2E77C01002000000020D6
:10085C00F4000020870100207D0100200000E03F13
:10086C0070B588B001F0EEFD4FF4E13101F0CAFD36
:10087C0001F0E8FD01F0CDFD18B9012000F096FF64
:10088C00F6E701F0DFFD414901F03BF9404904A8CE
:10089C0001F0BFF901F0D4FC0A220146684601F0D0
:1008AC00DCF9694604A801F002FA0168394800F045
:1008BC000DFB684601F063F904A801F060F9354CB2
:1008CC00324E334D204600F010FA10BB01F0BAFD49
:1008DC00314601F016F9294604A801F09AF901F005
:1008EC00AFFC0A220146684601F0B7F9694604A834
:1008FC0001F0DDF90168204600F0E8FA684601F0E5
:10090C003EF904A801F03BF94FF47A7000F04EFF69
:10091C00D8E70121022001F091FF0121032001F011
:10092C008DFF0121042001F089FF0121052001F038
:10093C0085FF0121062001F081FF01210A2001F031
:10094C007DFF01210B2001F079FF01210C2001F02A
:10095C0075FF01210D2001F071FF01210E2001F026
:10096C006DFF01F06FFD0C4901F0CBF8FFF7B3FD03
:10097C0001F068FD094901F0C4F801F063FD084974
:10098C0001F0BFF8FFF7B2FD08B070BD26360A08BB
:10099C0034360A089400002040360A0858360A08F3
:1009AC007B360A0810B5FFF711FF0D4B1B78092B8E
:1009BC000CD101F045FC0B4C20600B4800F095F974
:1009CC0020B122460949084800F00BFB064800F00C
:1009DC008CF920B1BDE81040034800F05DBB10BDA0
:1009EC007C010020F40000209400002087360A08C7
:1009FC00002307B540F25B7200931849184B194855
:100A0C0000F08AF829211848FFF7E8FB292117483C
:100A1C00FFF7E4FB29211648FFF7E0FB29211548D5
:100A2C00FFF7DCFB29211448FFF7D8FB29211348D9
:100A3C00FFF7D4FB29211248FFF7D0FB29211148DD
:100A4C00FFF7CCFB29211048FFF7C8FB29210F48E1
:100A5C0003B05DF804EBFFF7C1BB00BF9A360A0880
:100A6C00D1040A0894000020040100201C0100207D
:100A7C002801002034010020400100204C010020FE
:100A8C00580100206401002070010020100100209A
:100A9C0091F85C3010B50446016013B1886D00F01C
:100AAC0015FC204610BD10B50368044693F85C2075
:100ABC0012B1986D00F012FC204610BDF8B51F461F
:100ACC009DF8243004460D46164623B101235830B8
:100ADC00037100F0F3FB089B23630023636306B1EF
:100AEC00A66425B1294604F1380001F0A5F8069B4F
:100AFC00E0692365079BA4F84C70FF2BB8BFFF235C
:100B0C00A4F8543008B1FFF7C6FAB4F85400FFF754
:100B1C00BEFAE061F8BD00002DE9FF410446002556
:100B2C00984617460E4601F013FB0D49E56104F19A
:100B3C00380001F06EF89DF82830FF22CDE90283D1
:100B4C000F232046CDE9003231463B462A46A564A8
:100B5C0084F85C50FFF7B2FF204604B0BDE8F0818A
:100B6C007A360A0810B50446204601F007FA002828
:100B7C00FAD0204601F045F9C0B210BD2DE9F0477E
:100B8C000546C46989460127FFF7ECFF4FF00008C2
:100B9C0020703C46EB6993F800A00AF0F00A284656
:100BAC00FFF7E0FF2646EB690134985500F07F0310
:100BBC0003FB07880306A4B21FFA88F84FEAC7178D
:100BCC00EDD4631EBAF1300F89F8003024D12846D9
:100BDC00EF69FFF7C7FF38552846EF69FFF7C2FFEB
:100BEC00F41C0236B6B2B8550226A4B2B6B2B1465F
:100BFC002746C14512D22846FFF7B4FFB5F854304A
:100C0C0009F10109BB4288BFEB691FFA89F988BF5A
:100C1C00D8550137BFB2ECE70026E7E7A8EB060092
:100C2C00B0452CBF06460026B5F854003444A4B297
:100C3C00A0422CBF20460020BDE8F087F7B58C46BB
:100C4C001E461D4607460023AE4605F07F01BEF149
:100C5C007F0F02A888BF41F080015C1CBEF17F0FA2
:100C6C0003444FEAD515E4B203F8041C10D8C4F1C0
:100C7C000403D11802F803C0C4F10503134401A8FE
:100C8C000532934206D010F8015B03F8015BF8E7DC
:100C9C002346D9E7721C2244384601F034F8054645
:100CAC0000F03CFB013478623444A8B2231A584259
:100CBC00584103B0F0BD0233F0B5044698B200239E
:100CCC00CD5C4DB1B4F854605F1C864204D9461C0F
:100CDC0015543B46B0B2F3E799B2441A22440912B8
:100CEC0002F8021C02F8013CF0BD38B5044601F0D4
:100CFC00D6F9002814BF0125002502D1204601F0A9
:100D0C0077F9284638BD00002DE9F04788B0044635
:100D1C00894617461E46DDF840809DF850A0FFF727
:100D2C00E4FF0546002840F0CB80214601A8FFF7E0
:100D3C00AFFEA16C002940F087802B462046B4F80A
:100D4C004C20A16B01F01CFA002879D001232384DC
:100D5C009DF85430E269042B40F08180594B18689F
:100D6C0099889B79ADF80C108DF80E300290C2F872
:100D7C0005009DF80E30BDF80C10D3720C23A2F8B0
:100D8C000910B8F1000F7FD09DF848009DF8442061
:100D9C00400140EAC20040F00600C0B2BAF1000FB8
:100DAC0001D100F0FD001FB1002E6FD140F080008A
:100DBC00E269D054226DE169581C12120A54E1699F
:100DCC00206D9A1C8854033349462046E269FFF78C
:100DDC0072FF0346B8F1000F0BD04146E269204682
:100DEC00FFF769FFE269034613992046FFF763FF9B
:100DFC00034667B139462046E269FFF75CFF0346BC
:100E0C002EB131462046E269FFF755FF0346053BFC
:100E1C001021E2699BB22046FFF710FF00F07EFA2A
:100E2C004FF47A76C4E90900204601F0A7F880BB9C
:100E3C0000F074FAA36AC01A236D73439842F3D975
:100E4C00204601F0D5F834E002A800F099FD2B46BD
:100E5C002046B4F84C2002A901F020F874E71A4B94
:100E6C000DF1080C186859681B7AACE803008CF873
:100E7C00003002AB03CBC2F80500C2F809109CF895
:100E8C00003053730E237CE7022087E740F0C0004C
:100E9C008EE7204602A9FFF771FE0428D0D1E36942
:100EAC00DE78002ECCD100F039FA0125A06284F84E
:100EBC002C6001A8FFF7F7FD284608B0BDE8F087C5
:100ECC000025F9E7B2360A08B9360A087FB50123BE
:100EDC000422CDE9043200231A46CDE90233CDE9D0
:100EEC000033FFF711FF07B05DF804FB2DE9F74F56
:100EFC00DDF83C8004468B4616461F469DF8345060
:100F0C009DF83890FFF7F1FE8246002851D021461B
:100F1C0001A8FFF7BDFD0021B4F85420E06902F0F0
:100F2C0031FA052359462046E269FFF7C4FE6B1ED1
:100F3C00012B15D8218CE369013189B22184091266
:100F4C001954421CE369218C92B2023080B299543C
:100F5C00B8F1000F04D0238C5A1C2284A8F800305E
:100F6C0000210B188F42E2699BB20AD9B4F854C025
:100F7C009C4506D916F801C0013102F803C089B2AC
:100F8C00EFE79DF8301000290CBF30213121B9F169
:100F9C00000F01D041F00801022D0ED141F00401E7
:100FAC00053B20469BB2FFF749FE824601A8FFF79E
:100FBC007AFD504603B0BDE8F08F012D08BF41F01B
:100FCC000201EDE71FB5089C0394002402949DF8E0
:100FDC001C4001949DF818400094FFF787FF04B063
:100FEC0010BD7FB50546104614460E4602F008FAB1
:100FFC0000220346CDE901220092314622462846C2
:10100C00FFF7E0FF04B070BD73B504460E46FFF762
:10101C006CFE0546C8B1214601A8FFF739FD6222D6
:10102C00E36920461A700222E3695A70E3693212AE
:10103C009A70E3690422DE70E16900F064FE051E1B
:10104C0001A818BF0125FFF72EFD284602B070BD80
:10105C0073B504460E46FFF748FE0546C8B1214657
:10106C0001A8FFF715FD7222E36920461A700222CF
:10107C00E3695A70E36932129A70E3690422DE70F4
:10108C00E16900F040FE051E01A818BF0125FFF71D
:10109C000AFD284602B070BD2DE9F04F87B000AFB5
:1010AC000446FFF722FE8146F8B1214607F11400F1
:1010BC00FFF7EEFC00F032F94FF47A73226D06461E
:1010CC005343A26A821A9A4203D8626A821A9342E2
:1010DC001FD294F82C306BB1204600F089FF4FF0F2
:1010EC00000907F11400FFF7DEFC48461C37BD462B
:1010FC00BDE8F08FC021E26920461170E26953709F
:10110C00E169022200F0FFFD0123C4E9096684F8BD
:10111C002C30204600F032FF0028E2D0204607F1A8
:10112C001301FFF72BFD83460028DAD0E369A66292
:10113C00197801F0F002302A7DD1D4F830A0BAF140
:10114C00000FCED097F813C0C7F804D003EB0C02F5
:10115C005578917801EB05218DB2694605F10802AD
:10116C00D208A1EBC202954668460CF10302FA6064
:10117C0003EB020E0DEB0502C7F808D03A603A6893
:10118C00B9688A4206D00A461EF8018B02F8018B18
:10119C00BA60F4E70022425593F80080F96808F031
:1011AC000608ABEB0C02033AB8F1020FA2EB0502F6
:1011BC00294424D113F801E0194491F801B00CF141
:1011CC0005012944023A19440BEB0E2BD04740225F
:1011DC00E3691FFA8BFB1A70E36983F80180E369FA
:1011EC004FEA2B229A70E369042283F803B020465D
:1011FC00E16900F088FD6662D7F804D071E7B8F1B8
:10120C00040F15D113F801E0194491F801B00CF159
:10121C0005012944023A19440BEB0E2BD0475022FE
:10122C00E3691FFA8BFB1A700222E3695A70D6E746
:10123C001944D047E0E7502A08D19A78D97820464B
:10124C0001EB022189B2FFF7DFFE4AE7402A12D1F7
:10125C00626B002A3FF445AFBBF1040F7FF441AF42
:10126C0011F0060F7FF43DAF9978D87800EB012090
:10127C0080B2904735E7602A08D19A78D978204611
:10128C0001EB022189B2FFF7E3FE2AE7702ADFD0D7
:10129C00902A3FF426AFC02A0AD1D0221A7000221D
:1012AC00E36920465A70E169022200F02CFD18E730
:1012BC00D02A04BF002384F82C3012E708B5024B67
:1012CC001B681B6B019308BDD001060808B5024BC7
:1012DC001B689B6B019308BDD001060808B5024B37
:1012EC001B681B6C019308BDD001060808B5024BA6
:1012FC001B685B6C019308BDD001060808B5024B56
:10130C001B689B6C019308BDD001060808B5024B05
:10131C001B685B68019308BD9C01060808B5024B6D
:10132C001B685B69019308BD9C01060808B5024B5C
:10133C001B689B6D019308BD9C01060808B5024B08
:10134C001B685B6E019308BD9C01060808B5024B37
:10135C001B689B68019308BDB001060808B5024BD9
:10136C001B68DB68019308BDB001060808B5024B89
:10137C001B681B69019308BDB001060808B5024B38
:10138C001B68DB6C019308BDAC01060808B5024B69
:10139C001B689B6D019308BDAC01060808B5024B98
:1013AC001B68DB6D019308BDAC01060808B5024B48
:1013BC001B681B6E019308BDAC01060808B5024BF7
:1013CC001B685B6E019308BDAC01060808B5024BA7
:1013DC001B689B6E019308BDAC01060808B5024B57
:1013EC001B68DB6E019308BDAC01060808B5024B07
:1013FC001B681B6F019308BDAC01060808B5024BB6
:10140C001B685B6F019308BDAC01060808B5034B64
:10141C001B68D3F88030019308BD0000AC010608AE
:10142C0008B5034B1B68D3F89030019308BD00003E
:10143C00AC01060808B5024B1B681B68019308BD7C
:10144C00BC01060808B5024B1B685B68019308BD1C
:10145C00BC01060808B5024B1B689B68019308BDCC
:10146C00BC01060808B5024B1B68DB68019308BD7C
:10147C00BC01060808B5024B1B681B69019308BD2B
:10148C00BC01060808B5024B1B681B6A019308BD1A
:10149C00BC01060808B5024B1B681B6B019308BD09
:1014AC00BC01060808B5024B1B685B6C019308BDB8
:1014BC00BC01060808B5024B1B68DB69019308BD2B
:1014CC00B401060808B5024B1B681B6A019308BDE2
:1014DC00B401060808B5024B1B689B69019308BD53
:1014EC00C401060808B5024B1B685B6A019308BD72
:1014FC00C401060808B5024B1B689B6A019308BD22
:10150C00C401060808B5024B1B68DB6A019308BDD1
:10151C00C401060808B5024B1B681B6B019308BD80
:10152C00C401060808B5024B1B685B6B019308BD30
:10153C00C401060808B5024B1B689B6B019308BDE0
:10154C00C401060808B5024B1B681B6C019308BD4F
:10155C00C401060808B5024B1B681B68019308BD43
:10156C00D801060808B5024B1B685B68019308BDDF
:10157C00D801060808B5024B1B681B69019308BD0E
:10158C00D801060808B5024B1B685B69019308BDBE
:10159C00D801060808B5024B1B689B69019308BD6E
:1015AC00D801060808B5024B1B68DB69019308BD1E
:1015BC00D801060808B5024B1B681B6A019308BDCD
:1015CC00D801060808B5024B1B685B6A019308BD7D
:1015DC00D801060808B5024B1B685B6C019308BD6B
:1015EC00C001060808B5024B1B689B6C019308BD33
:1015FC00C001060808B5024B1B681B6D019308BDA2
:10160C00A801020808B5024B1B681B68019308BDB2
:10161C00A401060808B5024B1B685B68019308BD62
:10162C00A401060808B5024B1B685B69019308BD51
:10163C00A401060808B5024B1B689B6D019308BDFD
:10164C00A401060808B5034B1B68D3F8903001932E
:10165C0008BD0000A401060808B5034B1B68D3F8AD
:10166C009C30019308BD0000A401060808B5024B8C
:10167C001B689B68019308BDCC01060808B5024B9A
:10168C001B685B69019308BDCC01060808B5024BC9
:10169C001B681B6B019308BDCC01060808B5024BF7
:1016AC001B68DB6B019308BDCC01060808B5024B27
:1016BC001B685B68019308BDC801060808B5024B9E
:1016CC001B689B68019308BDC801060808B5024B4E
:1016DC001B68DB68019308BDC801060808B5024BFE
:1016EC001B681B69019308BDC801060808B5024BAD
:1016FC001B685B69019308BDC801060808B5024B5D
:10170C001B689B69019308BDC801060808B5024B0C
:10171C001B68DB69019308BDC801060808B5024BBC
:10172C001B681B6A019308BDC801060808B5024B6B
:10173C001B681B6B019308BDC801060808B5024B5A
:10174C001B685B6B019308BDC801060808B5024B0A
:10175C001B681B6C019308BDC801060808B5024B39
:10176C001B685B6C019308BDC801060808B5024BE9
:10177C001B681B68019308BDA001060808B5024B45
:10178C001B685B68019308BDA001060808B5024BF5
:10179C001B689B68019308BDA001060808B5024BA5
:1017AC001B685B6C019308BDA00106080021FFF7C4
:1017BC0039BF7047F8B5064615460C468F18BC4223
:1017CC0006D0336830469B6814F8011B9847F6E73F
:1017DC002846F8BD0022007CFFF7E8BD0021007C04
:1017EC00FFF7ECBD0021007CFFF7F0BD0021007C71
:1017FC00FFF7F4BD0021007CFFF7F8BD10B50446DF
:10180C00142101F091F8204610BD000010B54FF4E2
:10181C007A73044608460021C4E90113034B1146B0
:10182C0023602074FFF7F2FD204610BDCC360A0869
:10183C000023007C1A461946FFF7A0BD7FB5002295
:10184C001423CDE90122ADF804300B78007C8DF81F
:10185C0008304B680393CB6804930B7A01A905936A
:10186C00FFF7DEFD07B05DF804FB1FB5003B8DF8FC
:10187C0000104FF0640118BF0123039169460192D7
:10188C008DF80830FFF7DAFF05B05DF804FB002295
:10189C00007CFFF77BBD0022007CFFF77FBD0121A0
:1018AC00FFF7F9BF704710B50446182101F03CF85A
:1018BC00204610BDF8B50E46002400F10807051DA2
:1018CC0017F8011D0A22304600F027F9AF420444F4
:1018DC0001D12046F8BD002CF2D02E21304600F06C
:1018EC0001F90444ECE7000010B50446044B112246
:1018FC00002140F8043B01F045FD204610BD00BF1F
:10190C00F4360A080346074A10B543F8042B01F1D4
:10191C00100251F8044B914243F8044BF9D10A7868
:10192C001A7010BDF4360A08024AC0E900210422DC
:10193C0002757047F4360A0810B59DF8084044EA61
:10194C000324042344EA024444EA0164446003751A
:10195C0010BD000037B5044D05609DF8185000957A
:10196C00FFF7EAFF03B030BDF4360A0813B5CB78A5
:10197C0000938B784A780978FFF7DEFF02B010BD30
:10198C0010B50446024B0360FFF7F0FF204610BD74
:10199C00F4360A08014B024A1A6070479401002081
:1019AC0000370A08002340681A46FFF77FBE002262
:1019BC0002214068FFF78ABE002240681146FFF7FB
:1019CC007DBE002240681146FFF788BE00234068A8
:1019DC001A461946FFF78ABE002340681A46194674
:1019EC00FFF78CBE00214068FFF7B0BE00214068B5
:1019FC00FFF7B4BE0022406881F00101FFF786BEFC
:101A0C0000224068FFF792BE002240681146FFF7A3
:101A1C0095BE002240681146FFF780BE70B5154692
:101A2C008EB0044608A8FFF75FFF1122002103A81F
:101A3C0001F0A8FC0026284601F0E2FC0A4B0096B7
:101A4C0081B25B68284603AAFFF7CCFD30B1314662
:101A5C002046FFF769FF20460EB070BD204603A953
:101A6C00FFF750FFF7E700BF18060020034A044BAE
:101A7C00042814BF10461846704700BF9801002078
:101A8C0018060020024B034A1A6000225A60704765
:101A9C00980100200C370A08F8B506460D460024BC
:101AAC008F18BD420CD0336830469B6815F8011B6B
:101ABC009847031E01DB1C44F3E7002C08BF1C46AF
:101ACC002046F8BD70B505460C46084649B101F0F4
:101ADC0097FC2B68024621462846BDE87040DB681F
:101AEC00184770BD03689B68184738B50D2105462B
:101AFC00FFF7F8FF0A2104462846FFF7F3FF2044BE
:101B0C0038BD38B50546FFF7DDFF04462846FFF71C
:101B1C00ECFF204438BDFFF7F4BF0023012A98BF27
:101B2C000A2230B58BB00C468DF8243009A9254615
:101B3C00B4FBF2F404FB1253DBB2092B94BF303329
:101B4C003733DBB2AA4201F8013DF0D9FFF7BAFFF7
:101B5C000BB030BD0022014B9A607047A0010020F1
:101B6C0070B5002604460D4640F8086FFFF7BEFB23
:101B7C0028462570FFF79EFC2046666070BD10B5A8
:101B8C0004460068FFF7FAFD204610BD10B5044668
:101B9C00006808B1FFF7F2FD0023C4E901332360AC
:101BAC0010BD38B504460D4600680131FFF7EEFD57
:101BBC0010B1C4E90005012038BD10B50368044616
:101BCC0023B143688B4201D3012010BD2046FFF79F
:101BDC00E8FF0028F9D0A368002BF5D12268137018
:101BEC00F2E770B50E46114604461546FFF7E5FFC1
:101BFC0020B92046FFF7CAFF204670BD2A46314661
:101C0C002068A56001F0B0FB00212268A368D154C4
:101C1C00F2E738B5002304460D46C0E90033836073
:101C2C00037339B1084601F0EBFB29460246204606
:101C3C00FFF7D7FF204638BD38B505460C4649B1ED
:101C4C00084601F0DDFB214602462846FFF7C9FF96
:101C5C00284638BDFFF79AFFFAE710B50023044673
:101C6C008AB0C4E90033A3602373084601A900F0CD
:101C7C00A7FC204601A9FFF7DFFF20460AB010BDE4
:101C8C0070B505460E4609B9002070BD6AB184686E
:101C9C0014442146FFF791FF0028F5D02868AB6863
:101CAC003146184401F0A4FBAC600120EDE710B5FF
:101CBC008A6809680446FFF7E3FF10B92046FFF76E
:101CCC0065FF204610BD000002220020044B1A6064
:101CDC00044B054A1860988098719A60FFF79ABC7B
:101CEC00BC010020B00100200000FFFF13B5036809
:101CFC008DF80710DC6B012247F230530DF1070110
:101D0C00A04702B010BD10B40368DC6B47F230532F
:101D1C00A44610BC604713B5134602688DF8071033
:101D2C00D46B0DF107010122A04702B010BD704722
:101D3C007047000010B50446064B0846994204F162
:101D4C000C0404D000F0F4FD002808BF0024204649
:101D5C0010BD00BF78370A0810B50446AC2100F05E
:101D6C00E3FD204610BDFEF794B9000038B50B4BCF
:101D7C008469054603607CB16368013B63605BB9B1
:101D8C00236820469B689847A368013BA3601BB956
:101D9C0023682046DB689847284638BD88370A08F0
:101DAC0010B50446FFF7E2FF20461C2100F0BCFDF5
:101DBC00204610BD70B5044606464D69044B8C3563
:101DCC0044F8043B0FCD0FC42B683046237070BD14
:101DDC00F4360A0810B543690446B3F88620B3F804
:101DEC0084309A4205D06369B3F88420134418797F
:101DFC0010BD03681B6998470028F4D14FF0FF30E1
:101E0C00F6E710B543690446B3F88620B3F884307E
:101E1C009A4208D06369B3F88420511CA3F884104B
:101E2C001344187910BD03681B6998470028F1D139
:101E3C004FF0FF30F6E7F8B543691746B3F8862044
:101E4C00B3F8843005469A420E4616D0696930467E
:101E5C00B1F88430B1F88640E41ABC4228BF3C4645
:101E6C0004332246194401F07FFA6A69B2F88430CF
:101E7C002344A2F884302046F8BD03681B699847B8
:101E8C000028E3D14FF0FF34F5E700234269A2F8B4
:101E9C0084304269A2F88630704700002DE9F04387
:101EAC001F4603688BB0DB6A05460C4616469847FE
:101EBC003846FFF7DBFD0368DB689847002854D0F1
:101ECC0033460622012102200097D5F81480FFF733
:101EDC00C1FA2023C8F800004FF00008CDE9023801
:101EEC006B6901201B6823490193234B02AA0093C1
:101EFC004346FFF77FFB6B691868FFF7A3FA0028CE
:101F0C0033D02846FFF7C1FF0223ADF80830E37940
:101F1C0076BA8DF80C30A3794FF4FA508DF80D3059
:101F2C006379ADF80A608DF80E3014F8043F8DF823
:101F3C000F30FFF74FFB6B6906461022186802A999
:101F4C00FFF790FA81463046FFF744FB0FCC6E69E1
:101F5C008C360FC6236833702F61B9F1000F07D090
:101F6C002B682846DB6A984740460BB0BDE8F083E7
:101F7C000120FAE740370A0847370A0838B54269A2
:101F8C000446B2F886302BB1B2F884209A4201D1C3
:101F9C00FFF77BFF2069FFF769FD0368DB68984753
:101FAC00F8B163691868FFF74DFAD0B16069B0F801
:101FBC0086107F2915D8051DC1F180020023006809
:101FCC002944FFF757FA00280BDD6369B3F8862024
:101FDC000AB9A3F884206369B3F886201044A3F8E7
:101FEC0086006369B3F88600B3F88430C01A38BD34
:101FFC0038B5436904461868FFF724FA18B16369C9
:10200C001868FFF73FFA6569FFF744FA28606069C2
:10201C00112200218C3001F0B5F92046BDE8384082
:10202C00FFF733BF10B5436904461868FFF70AFA87
:10203C0008B9002010BD2069FFF718FD0368DB68A4
:10204C0098470028F5D063691868FFF7F3F9B0FAE0
:10205C0080F04009EEE708B5FFF7E4FF003818BF41
:10206C00012008BD2DE9F3410027476004460D46C9
:10207C0016469846FFF7D6FF70B1CDE90087606928
:10208C003B46324629460068FFF70CFA002800DA76
:10209C00606002B0BDE8F0814FF0FF30F8E770B53A
:1020AC000546FFF7BFFFE8B96B69B3F88610B3F8C4
:1020BC008420914216D11868FFF7C4F908B90020A2
:1020CC0070BD6B691868FFF7B5F901280446F6D1A5
:1020DC002B6828461B69984730B92B682846DB6A61
:1020EC009847ECE70120EBE72046E9E7002310B521
:1020FC0004460160C0F884308830FFF7F5FB2046B9
:10210C0010BD0000F8B54FF47A720023C0E901321B
:10211C000D4A0361026043610446AC200E46FDF794
:10212C00B4FF051E05F10C0708D00123C5E90133E6
:10213C00064B314638462B60FFF7D8FF2046C4E9E2
:10214C000575FFF7A2FEF8BD88370A0864370A0840
:10215C0010B50446FFF79EF901462046FFF7D2FF63
:10216C00204610BD10B504460068FFF76BF910B19E
:10217C002068FFF787F9204610BD0C30FFF7F2BF3F
:10218C002DE9F0431F4603688FB0DB6A06460D4607
:10219C00904698471348FFF714FCF0B102A8FFF7DC
:1021AC00A3FB284601F02CF9002481B23B462846BB
:1021BC00009403AAFFF716FA90B9336809ADD3F867
:1021CC002090094B03AC08930FCC0FC523684246F3
:1021DC002B7030463B4608A9C8470FB0BDE8F083CA
:1021EC002046FAE798010020F4360A0808B50020CA
:1021FC00FFF74CFA28B1FFF741FA80F00100C0B2AA
:10220C0008BD0120FCE710B50020FFF78FF804464D
:10221C00A0B9FFF7F7F9012810D12046FFF70AFA09
:10222C0060B9FFF7E3FF10B9FFF720FAF9E7FFF702
:10223C00DDFFBDE810400020FFF778B8204610BD48
:10224C001FB5FFF7E0FF10220021684601F09AF855
:10225C0000216846FFF772F8009805B05DF804FBA2
:10226C00024B1A68024B1A60704700BF280000200E
:10227C00C0010020704741747047704708B5007C5E
:10228C00FFF760F920EAE07008BD08B5007CFFF7A5
:10229C0031F920EAE07008BD08B5007CFFF73AF987
:1022AC0040EAE07008BD08B5007CFFF72BF940EA66
:1022BC00E07008BD007CFFF735B970B5467C04466C
:1022CC000D462EB12946207CBDE87040FFF70AB9B7
:1022DC00007CFFF737F90028F4DC304670BD10B5F0
:1022EC000446142100F020FB204610BD4FF0000CDA
:1022FC0010B50446084611464FF47A72C4E901C27F
:10230C00044A20742260012262741A46FFF7E2F834
:10231C00204610BDF0370A0838B50C4D2978BFF3AC
:10232C005B8F11F001040FD12846FDF7B6FE58B1B2
:10233C002146074B074A0848FFF7D8FF2846FDF708
:10234C00B1FE064800F0F6FF034838BDC40100207A
:10235C004C020020C8010020D002002087220A086D
:10236C00417470477047704708B50021007CFFF737
:10237C0011F940EAE07008BD08B50121007CFFF7B7
:10238C0009F940EAE07008BD08B5007CFFF7FAF8DF
:10239C0020EAE07008BD08B5007CFFF7EBF820EAF6
:1023AC00E07008BD38B50446007C0D46FFF7EAF82E
:1023BC00002801DC607C28B12946207CFFF7F2F86C
:1023CC0020EAE07038BD007CFFF7F4B810B5044685
:1023DC00142100F0A9FA204610BD704710B54FF437
:1023EC007A73044608460021C4E90113044B207497
:1023FC002360012311466374FFF7ACF8204610BD2F
:10240C0020380A080022007CFFF7ACB8007CFFF7EC
:10241C00D9B8FFF7FBBF000010B504461422002109
:10242C0000F0B0FF054B20466360054BE36040F2C3
:10243C00011323818123238210BD00BF14030020CC
:10244C001504002030B50E4D87B001A8FFF7E4FF4E
:10245C002978BFF35B8F11F001040ED12846FDF7EC
:10246C001CFE50B1214601AA0648FFF7B7FF2846CB
:10247C00FDF718FE044800F05DFF024807B030BDC0
:10248C00E4020020EC02002071230A0810B5044677
:10249C001422002100F076FF054B20466360054BAB
:1024AC00E36040F2011323818123238210BD00BF1E
:1024BC00960400209705002010B50E4C86B001A89C
:1024CC00FFF7E4FF2378BFF35B8FDB070ED42046C6
:1024DC00FDF7E3FD50B1012101AA0748FFF77EFF8C
:1024EC002046FDF7DFFD054800F024FF024806B04A
:1024FC0010BD00BFE802002000030020E7230A08FB
:10250C00002240681146FFF7E9B8F0B5154689B0CE
:10251C0011220E460446002103A800F033FF284682
:10252C0000F06EFF002781B273682846009703AA5B
:10253C00FFF758F830B139462046FFF7F5F9204639
:10254C0009B0F0BD204603A9FFF7DCF9F7E700223C
:10255C0040681146FFF7E2B8002240681146FFF7C9
:10256C00EDB800224068FFF7E1B80022406881F026
:10257C000101FFF7CBB8002340681A461946FFF754
:10258C00BDB8002340681A461946FFF7AFB80022C1
:10259C0040681146FFF792B8002202214068FFF70D
:1025AC0095B8002340681A46FFF780B80422024B06
:1025BC005A60024A1A6070471806002050380A0800
:1025CC00931E222B4FF000032DE9F0418CB00D46E9
:1025DC0014468DF82C3026D9002829DA2E462D23C6
:1025EC000A2406F8013B40424FF001080DF12B077D
:1025FC002246014601A800F0A3FE029B0198092B7C
:10260C00CCBF37223022134407F8013908F10108F6
:10261C000028EDD142463046791C00F0A5FE284634
:10262C000CB0BDE8F0810A2AD6D018B12E46DBE7F3
:10263C000A24FAE730232E464FF002088DF82B308F
:10264C000DF12A07E6E70000014B1860704700BF48
:10265C002C00002008B5134B43B1FFF7F3FE0368C1
:10266C001B699847002801DDAFF300800E4B43B186
:10267C00FFF752FE03681B699847002801DDAFF392
:10268C0000800A4B0BB1AFF30080094B43B1FFF74D
:10269C0013FF03681B699847002801DDAFF3008026
:1026AC0008BD00BF0000000000000000000000009A
:1026BC000000000008B5FFF7CDFFFEF72FFE014B21
:1026CC00186008BD380600200548064A08B5121ADD
:1026DC00054900F049FE054B054A1A6008BD00BFCC
:1026EC000040024004400240A0390A080040024069
:1026FC001E1C279A002307B51A466FF0770100932A
:10270C00FEF7AAFF03B05DF804FB000007B5438891
:10271C000A2B08D0502B0BD1094B1B684BB103B0C3
:10272C005DF804EB1847FFF7E5FF03B05DF804FB19
:10273C0000231A466FF077010093FEF78DFFF4E744
:10274C0024060020002110B51148FFF727F8114B83
:10275C001A68114B9A420CBF012200220F4B1A70BF
:10276C0001D0FFF7B1FFFEF7D1FD044600F012FED9
:10277C000B4B13B12046AFF3008000210848FEF745
:10278C008DFFBDE8104000210648FEF75BBF00BF7F
:10279C0055260A08004002401E1C279A20060020DD
:1027AC000000000019270A08024B986808B1FEF7D0
:1027BC00A5BD70472C060020172870B5044601D91A
:1027CC00002070BDA0F10D03022B0BD9012824D8D9
:1027DC0000F078F80021007CFEF710FE80F001007C
:1027EC00C0B2EEE7124E3178BFF35B8F11F00105EA
:1027FC000DD13046FDF751FC48B129460D48FFF785
:10280C00AFF93046FDF74EFC0B4800F093FD094B39
:10281C001878FEF757FE0028D2D1123C012C05D8AF
:10282C00FFF77AFD007CFEF785FED7E70120C8E7AD
:10283C00280600202C060020B5270A08172838B5D2
:10284C0004460D460AD8FF2908D0FFF7B5FF28B17A
:10285C0029462046BDE83840FEF778BD38BD38B56E
:10286C0004460D46FEF77AFDFF2810D0062804D842
:10287C004D2323FA00F0C30709D42046FFF79CFF31
:10288C0028B129462046BDE83840FEF76FBD38BD5B
:10289C0070470000002370B5202543801423084E98
:1028AC0004460380314685600561284600F03EF8F9
:1028BC0031466060284600F039F8E060204670BD73
:1028CC0084380A0830B50E4D87B02978BFF35B8F7A
:1028DC0011F0010411D12846FDF7DFFB68B101A806
:1028EC00FFF7D8FF214601AA0648FEF78FFF2846BE
:1028FC00FDF7D8FB044800F01DFD024807B030BDC1
:10290C003C060020400600209D280A08002307B53D
:10291C001A46194600930348FFF71CF803B05DF8FC
:10292C0004FB00BF54060020FDF7B3BBFDF7AFBBA3
:10293C00014900F0FBB800BFA0380A087FB500249D
:10294C001023CDE90234036815469E6912686B4664
:10295C0000948DF80440B0479DF8043003F0060352
:10296C00062B09BF01202046009B2B6004B070BDD4
:10297C000098904214BF01200620704710B5044601
:10298C00024B036000F0CFF8204610BDE0380A0877
:10299C0010B50446FFF7F2FF20460821FFF7C4FFED
:1029AC00204610BD2DE9F041DDF818801F46DDE909
:1029BC00083498450646154607D1079900F0B6F835
:1029CC0018B165710020BDE8F0813946304600F041
:1029DC00ADF80028F6D00123C4F800802571A3714E
:1029EC00F0E738B515461C4600F0A0F820B10823D6
:1029FC00E36006232560237138BD2DE9F0410546BF
:102A0C000C4616461F4600F091F848B9032F07D81C
:102A1C002368324629462046BDE8F0415B691847D9
:102A2C00BDE8F08110B50446024B0360FFF7A6FF2A
:102A3C00204610BD40390A0810B50446FFF7F2FFD6
:102A4C0020460C21FFF770FF204610BD2DE9F04108
:102A5C00DDF81880064690450F4615461C460BD0EF
:102A6C00B0682A460368CDF818801E6A394623469A
:102A7C00B446BDE8F0416047194600F057F800280D
:102A8C00EED00620BDE8F0812DE9F14F0D46DDE9D1
:102A9C000A4BDDE90CA6194681461746984600F00C
:102AAC0045F890B1002D3460377109DB2C44A245F8
:102ABC000CBF06240124B471002001B0BDE8F08FD6
:102ACC000235F9D10123B371F6E7544506D15946C5
:102ADC00484600F02BF808B17771EDE7D9F80800FB
:102AEC003A460368CDE90CA6CDE90A4BDC692946C8
:102AFC004346A44601B0BDE8F04F60472DE9F041D4
:102B0C0007460C4615461E46FFF76BFF48B9B868DA
:102B1C002A46036821469F693346BC46BDE8F0410E
:102B2C006047BDE8F081704700207047814208B5CE
:102B3C000ED0406803782A2B0CD049680B782A2BCE
:102B4C0008BF013100F04AFCB0FA80F0400908BD22
:102B5C000120FCE70020FAE781F0004102E000BF11
:102B6C0083F0004330B54FEA41044FEA430594EA41
:102B7C00050F08BF90EA020F1FBF54EA000C55EA7C
:102B8C00020C7FEA645C7FEA655C00F0E2804FEA4D
:102B9C005454D4EB5555B8BF6D420CDD2C4480EA2F
:102BAC00020281EA030382EA000083EA010180EA5F
:102BBC00020281EA0303362D88BF30BD11F0004FAD
:102BCC004FEA01314FF4801C4CEA113102D04042E3
:102BDC0061EB410113F0004F4FEA03334CEA13331E
:102BEC0002D0524263EB430394EA050F00F0A78036
:102BFC00A4F10104D5F1200E0DDB02FA0EFC22FA31
:102C0C0005F2801841F1000103FA0EF2801843FA24
:102C1C0005F359410EE0A5F120050EF1200E012A15
:102C2C0003FA0EFC28BF4CF0020C43FA05F3C01853
:102C3C0051EBE37101F0004507D54FF0000EDCF1CC
:102C4C00000C7EEB00006EEB0101B1F5801F1BD375
:102C5C00B1F5001F0CD349085FEA30004FEA3C0C79
:102C6C0004F101044FEA445212F5800F80F09A806F
:102C7C00BCF1004F08BF5FEA500C50F1000041EB73
:102C8C00045141EA050130BD5FEA4C0C404141EB77
:102C9C000101013C28BFB1F5801FE9D291F0000F72
:102CAC0004BF01460020B1FA81F308BF2033A3F121
:102CBC000B03B3F120020CDA0C3208DD02F1140C18
:102CCC00C2F10C0201FA0CF021FA02F10CE002F153
:102CDC001402D8BFC2F1200C01FA02F120FA0CFC4C
:102CEC00DCBF41EA0C019040E41AA2BF01EB045195
:102CFC00294330BD6FEA04041F3C1CDA0C340EDC93
:102D0C0004F11404C4F1200220FA04F001FA02F3D5
:102D1C0040EA030021FA04F345EA030130BDC4F193
:102D2C000C04C4F1200220FA02F001FA04F340EA88
:102D3C000300294630BD21FA04F0294630BD94F039
:102D4C00000F83F4801306BF81F480110134013D20
:102D5C004EE77FEA645C18BF7FEA655C29D094EA91
:102D6C00050F08BF90EA020F05D054EA000C04BF0F
:102D7C001946104630BD91EA030F1EBF00210020FA
:102D8C0030BD5FEA545C05D14000494128BF41F099
:102D9C00004130BD14F580043CBF01F5801130BDFD
:102DAC0001F0004545F0FE4141F470014FF0000088
:102DBC0030BD7FEA645C1ABF194610467FEA655C39
:102DCC001CBF0B46024650EA013406BF52EA0335DB
:102DDC0091EA030F41F4002130BD00BF90F0000FC9
:102DEC0004BF0021704730B54FF4806404F1320405
:102DFC004FF000054FF0000150E700BF90F0000FBE
:102E0C0004BF0021704730B54FF4806404F13204E4
:102E1C0010F0004548BF40424FF000013EE700BFB4
:102E2C0042004FEAE2014FEA31014FEA02701FBF44
:102E3C0012F07F4393F07F4F81F06051704732F076
:102E4C007F4208BF704793F07F4F04BF41F40021CD
:102E5C00704730B54FF4607401F0004521F000412B
:102E6C001CE700BF50EA010208BF704730B54FF0B5
:102E7C0000050AE050EA010208BF704730B511F0B6
:102E8C00004502D5404261EB41014FF4806404F1EE
:102E9C0032045FEA915C3FF4D8AE4FF003025FEA74
:102EAC00DC0C18BF03325FEADC0C18BF033202EBF8
:102EBC00DC02C2F1200300FA03FC20FA02F001FA52
:102ECC0003FE40EA0E0021FA02F11444BDE600BFF5
:102EDC0070B54FF0FF0C4CF4E06C1CEA11541DBFA4
:102EEC001CEA135594EA0C0F95EA0C0F00F0DEF86F
:102EFC002C4481EA030621EA4C5123EA4C5350EA54
:102F0C00013518BF52EA033541F4801143F48013A4
:102F1C0038D0A0FB02CE4FF00005E1FB02E506F035
:102F2C000042E0FB03E54FF00006E1FB03569CF08A
:102F3C00000F18BF4EF0010EA4F1FF04B6F5007F90
:102F4C0064F5407404D25FEA4E0E6D4146EB060602
:102F5C0042EAC62141EA55514FEAC52040EA5E508B
:102F6C004FEACE2EB4F1FD0C88BFBCF5E06F1ED835
:102F7C00BEF1004F08BF5FEA500E50F1000041EB6C
:102F8C00045170BD06F0004646EA010140EA020019
:102F9C0081EA0301B4EB5C04C2BFD4EB0C0541EA3B
:102FAC00045170BD41F480114FF0000E013C00F350
:102FBC00AB8014F1360FDEBF002001F0004170BD74
:102FCC00C4F10004203C35DA0C341BDC04F114048D
:102FDC00C4F1200500FA05F320FA04F001FA05F219
:102FEC0040EA020001F0004221F0004110EBD370E6
:102FFC0021FA04F642EB06015EEA430E08BF20EA12
:10300C00D37070BDC4F10C04C4F1200500FA04F3B4
:10301C0020FA05F001FA04F240EA020001F0004146
:10302C0010EBD37041F100015EEA430E08BF20EAB9
:10303C00D37070BDC4F1200500FA05F24EEA020E01
:10304C0020FA04F301FA05F243EA020321FA04F030
:10305C0001F0004121FA04F220EA020000EBD370E7
:10306C005EEA430E08BF20EAD37070BD94F0000FE7
:10307C000FD101F00046400041EB010111F4801F1B
:10308C0008BF013CF7D041EA060195F0000F18BFCC
:10309C00704703F00046520043EB030313F4801F08
:1030AC0008BF013DF7D043EA0603704794EA0C0FC2
:1030BC000CEA135518BF95EA0C0F0CD050EA4106D8
:1030CC0018BF52EA4306D1D181EA030101F0004155
:1030DC004FF0000070BD50EA410606BF104619467D
:1030EC0052EA430619D094EA0C0F02D150EA013689
:1030FC0013D195EA0C0F05D152EA03361CBF1046CA
:10310C0019460AD181EA030101F0004141F0FE4168
:10311C0041F470014FF0000070BD41F0FE4141F4EC
:10312C00780170BD70B54FF0FF0C4CF4E06C1CEAEC
:10313C0011541DBF1CEA135594EA0C0F95EA0C0FA1
:10314C0000F0A7F8A4EB050481EA030E52EA03355C
:10315C004FEA013100F088804FEA03334FF080557D
:10316C0045EA131343EA12634FEA022245EA1115AA
:10317C0045EA10654FEA00260EF000419D4208BF5B
:10318C00964244F1FD0404F5407402D25B084FEA08
:10319C003202B61A65EB03055B084FEA32024FF4B4
:1031AC0080104FF4002CB6EB020E75EB030E22BF11
:1031BC00B61A754640EA0C005B084FEA3202B6EBD1
:1031CC00020E75EB030E22BFB61A754640EA5C0080
:1031DC005B084FEA3202B6EB020E75EB030E22BF10
:1031EC00B61A754640EA9C005B084FEA3202B6EB11
:1031FC00020E75EB030E22BFB61A754640EADC00D0
:10320C0055EA060E18D04FEA051545EA16754FEA31
:10321C0006164FEAC30343EA52734FEAC2025FEA4F
:10322C001C1CC0D111F4801F0BD141EA00014FF0DE
:10323C0000004FF0004CB6E711F4801F04BF0143AF
:10324C000020B4F1FD0C88BFBCF5E06F3FF6AFAECB
:10325C00B5EB030C04BFB6EB020C5FEA500C50F15B
:10326C00000041EB045170BD0EF0004E4EEA1131DE
:10327C0014EB5C04C2BFD4EB0C0541EA045170BDE5
:10328C0041F480114FF0000E013C90E645EA060E29
:10329C008DE60CEA135594EA0C0F08BF95EA0C0F57
:1032AC003FF43BAF94EA0C0F0AD150EA01347FF49F
:1032BC0034AF95EA0C0F7FF425AF104619462CE776
:1032CC0095EA0C0F06D152EA03353FF4FDAE1046D9
:1032DC00194622E750EA410618BF52EA43067FF42A
:1032EC00C5AE50EA41047FF40DAF52EA43057FF4BA
:1032FC00EBAE12E74A0011D212F5001211D20DD525
:10330C006FF47873B3EB62520ED44FEAC12343F0DF
:10331C00004343EA505323FA02F070474FF0000089
:10332C00704750EA013002D14FF0FF3070474FF038
:10333C0000007047002301461A46184600F068B892
:10334C0010B591FBF2F4002902FB141306DB002BE1
:10335C0001DA01349B1AC0E9004310BD002BC4BF35
:10336C0004F1FF349B18F6E70A44914200F1FF3355
:10337C0000D1704710B511F8014B914203F8014F81
:10338C00F9D110BD03460244934200D1704703F8B3
:10339C00011BF9E738B50D4B04461D68AB6B7BB9C7
:1033AC001820FEF7E3F90A4A0A4BA863C0E9002388
:1033BC00094B012283600B2383810023C0E9042382
:1033CC000022AB6B1C615A6138BD00BF2C00002081
:1033DC000E33CDAB34126DE6ECDE050010F8012B8C
:1033EC0011F8013B012A28BF9A42F7D0D01A704736
:1033FC00034611F8012B03F8012B002AF9D1704771
:10340C00034613F8012B002AFBD1181A0138704718
:10341C002DE9F843DFF8BC800646D8F800001F46BB
:10342C000D46914600F058F8264B1C6834B9264CD2
:10343C001C60264B13B11B68C4F8883063681F2BC3
:10344C0007DDD8F8000000F049F84FF0FF30BDE878
:10345C00F8835EB3D4F8880088B91D4B23B9D8F82B
:10346C00000000F03AF8F0E74FF48470FEF77EF9B4
:10347C000028F4D00023C0E94033C4F888000122AE
:10348C006368022E40F8239002FA03F200EB8301EA
:10349C00D0F8003143EA0203C0F80031C1F8807063
:1034AC0002BFD0F804311A43C0F804216368D8F87D
:1034BC0000005A1C0233626044F8235000F00EF8EE
:1034CC000020C4E7F80600206C0600200000000075
:1034DC0079170A0890000020704770477047000069
:1034EC001D000A085D000A0885000A0889000A0800
:1034FC00000000004661696C656420746F20626F87
:10350C006F7420666972737420564C36313830589B
:10351C00004661696C656420746F20626F6F742063
:10352C007365636F6E6420564C36313830580046E4
:10353C0061696C656420746F20626F6F74207468AD
:10354C0069726420564C3631383058004661696CCB
:10355C00656420746F20626F6F7420666F7572746F
:10356C006820564C3631383058004661696C6564B9
:10357C0020746F20626F6F742066696674682056C1
:10358C004C3631383058004661696C656420746F74
:10359C0020626F6F7420736978746820564C3631D2
:1035AC00383058004661696C656420746F20626F16
:1035BC006F7420736576656E746820564C3631389E
:1035CC003058004661696C656420746F20626F6FBF
:1035DC007420656967746820564C36313830580051
:1035EC004661696C656420746F20626F6F74206E25
:1035FC00696E746820564C36313830580046616913
:10360C006C656420746F20626F6F742074656E74C7
:10361C006820564C363138305800436F6E6E6563F7
:10362C0074696E672E2E2E0077726973742D776114
:10363C007463680053687574646F776E2070696E7C
:10364C007320696E697465642E2E2E00416C6C209B
:10365C00696E207265736574206D6F64652E2E2EF5
:10366C002870696E7320617265206C6F7729005326
:10367C0074617274696E672E2E2E00777269737482
:10368C002F646174612F73656E736F7273006D714B
:10369C0074742E65636C6970736570726F6A6563A0
:1036AC0074732E696F0000044D5154540400064D80
:1036BC00514973647003000000000000000000001A
:1036CC00BF170A0809180A08E1170A08C1170A08DF
:1036DC00E9170A08F1170A08F9170A0801180A0865
:1036EC000000000000000000C1180A08B1180A0808
:1036FC00B3180A08617070000000000000000000A0
:10370C00B1190A08BB190A08C5190A08CF190A0801
:10371C00D9190A08E5190A08F1190A08F9190A0849
:10372C00011A0A080D1A0A08151A0A081F1A0A089B
:10373C00291A0A08776972696E6700544350436C02
:10374C0069656E7420736F636B65743D257800003A
:10375C0000000000000000003D1D0A08651D0A085D
:10376C0087210A08731D0A08411D0A080000000081
:10377C00000000000000000000000000791D0A0895
:10378C00AD1D0A08F91C0A08131D0A08891F0A082E
:10379C000F1E0A08E11D0A083B1D0A08A91E0A088B
:1037AC008D210A08431E0A08FD1F0A08AB200A08CF
:1037BC0063200A08231D0A0871200A08C11D0A0883
:1037CC0025592D256D2D25645425483A254D3A252E
:1037DC0053257A0061736374696D65000000000005
:1037EC000000000081220A08EB220A08C7220A08FE
:1037FC00A51A0A0897220A08B3220A08A5220A0861
:10380C00C1220A0883220A0889220A080000000043
:10381C000000000073230A08D9230A08B1230A0800
:10382C00A51A0A08A3230A0875230A0885230A087F
:10383C00D3230A0895230A086D230A080000000008
:10384C0000000000AF250A08A5250A089B250A08D8
:10385C000D250A088F250A0883250A08F1190A087C
:10386C00F9190A0877250A086F250A0865250A0838
:10387C005B250A0817250A0800537431395F537009
:10388C005F6D616B655F7368617265645F746167BE
:10389C0000000000E0380A0885380A0840390A0898
:1038AC00B4380A0864390A084E31305F5F6378789F
:1038BC00616269763131375F5F636C6173735F741A
:1038CC007970655F696E666F45000000000000004E
:1038DC00A8380A0889290A089D290A08352B0A08DC
:1038EC00352B0A08072A0A0849290A08EF290A0869
:1038FC00B1290A087D290A0840390A0810390A0832
:10390C00A8380A084E31305F5F6378786162697657
:10391C003132305F5F73695F636C6173735F7479AD
:10392C0070655F696E666F45000000000000000066
:10393C0004390A08312A0A08452A0A08352B0A08CC
:10394C00352B0A08072A0A0849290A08092B0A08EC
:10395C00952A0A08592A0A08E0380A086C390A0814
:10396C00537439747970655F696E666F000000007E
:10397C00FD090A08A1190A08911A0A08611B0A080C
:10398C00D51C0A086D220A08B9250A0819290A0843
:04399C000000000027
:0439A0000000000023
:1039A400040100201C010020280100203401002013
:1039B400400100204C010020580100206401002037
:1039C4007001002010010020E0370A0830000020B8
:1039D40000000000000000000000000000000000E3
:1039E40000000000000000000000000000000000D3
:1039F40000000000000000000000000000000000C3
:103A040000000000000000000000000000000000B2
:103A140000000000000000000000000000000000A2
:103A24000000000000000000000000000000000092
:043A3400FD0600206B
:103A3800FFFFFFFF00000102030405060708090A4B
:103A48000B0C0D0E0F101112131415161718191A46
:083A58001B1C1D1E1F2028008D
:043A6000785634124E
:04000005080A001CC9
:00000001FF
